:020000040800F2
:1000000000200010D120020855210208190D020815
:100010005521020855210208552102080000000060
:100020000000000000000000000000005521020850
:10003000552102080000000055210208673501081B
:1000400055210208552102085521020855210208B0
:10005000552102085521020839400108374001089E
:100060003540010833400108314001081DA4000853
:100070000DA40008FDA30008EDA30008DDA30008FF
:10008000C9A30008B5A3000855210208552102089C
:100090005521020855210208552102082F40010868
:1000A0009DAB0108DDAB01088DAB010805AC010873
:1000B000CDAB0108BDAB0108ADAB0108552102086D
:1000C0005521020855210208552102085521020830
:1000D00055210208F1A20008E5A20008D9A20008F3
:1000E0002D4001085521020855210208552102081A
:1000F0005521020855210208552102085521020800
:10010000000000000000000000000000552102086F
:1001100055210208552102085521020855210208DF
:10012000A1A300088DA3000879A3000865A3000817
:100130004FA3000855210208000000000000000045
:10014000552102085521020855210208000000002F
:10015000000000000000000000000000000000009F
:10016000000000000000000055210208552102088F
:1001700055210208000000000000000000000000FF
:080180000000000055210208F7
:100188002DE9F04FAD4DAE4C0026ADB028463146B6
:100198004FF48062267022F026F9AA4BC5F808347D
:1001A800A94BC5F800641B7885F804647E2BC5F854
:1001B8000C6404D015F0B5FD15F0B2FA03E014F0A4
:1001C800DCF80028F6D015F08BFB0020014613F070
:1001D8000AFB23789D4F43F001032370BB7985F810
:1001E80010349B4B9B4C4FF47002C3F888200023BB
:1001F8000A930B93236843F480332360236803F442
:1002080000330B930A9B01330A930B9B1BB90A9B80
:10021800B3F5A04FF2D1236813F4003318BF0123BC
:100228000B930B9B012B61D0DFF824828A4BC8F813
:100238000C30636AC5F81434636A43F080736362F0
:10024800636943F4FC032CAE636103238DF86230C9
:1002580041F6FF7326F8503D4FF0904031460AF0C2
:1002680049F84FF6FF7331467C48ADF860300AF024
:1002780041F831467A480AF03DF8314679480AF0A3
:1002880039F8314678480AF035F8314677480AF0A7
:1002980031F830461FF06EF8754A189B7549B3FB64
:1002A800F1F3002682E84800734A7448D36843F0A3
:1002B8008073D360724A136843F0010313603146B8
:1002C800102222F090F86F4B6F4A5A60F02288F89B
:1002D800232007229E601A60FB796C4A9B1B18BF7B
:1002E8000123D371D3733146694A28E0694B12223E
:1002F8001A606368636063686360636843F480637B
:100308006360636823F47C136360636843F4E813F1
:100318006360236843F08073236022684D4B920129
:10032800FBD55A6822F003025A605A6842F002026A
:100338005A60636803F00C03082BFAD174E7564F30
:10034800880237F811E000F1904000234EFA03F6D6
:10035800F60744BF01269E4003F1010342BF106027
:1003680096800C32102BF1D101310629E7D14B4B85
:100378004B4E1B68336000201BF004FC0023494AE5
:1003880052F8230003F1010840B1172383710223B7
:10039800C37180F80880012113F020FE4346032B27
:1003A800EDD100201BF0EEFBA369DFF890A043F02D
:1003B8000103A361002140220AF5856022F013F8A9
:1003C800FF2107220AF58D6022F00DF80120002197
:1003D80013F009FA33681B0716D5334B1A7A012A2A
:1003E800994611D893F8118009F06AFF044658B964
:1003F80008F1FF38B8F1090F41F2968604E09AF83F
:100408001230012B01F0C4864FF4FA701AF045FD42
:10041800264800214FF48C7221F0E5FF0024244B7C
:10042800E0580023234951F8332082424FEAC30E93
:1004380042D101EB0E03187942E000BF28160020D4
:1004480088860020013F010800F0030820520020A0
:1004580000ED00E0001002400005FA050004004825
:1004680000080048000C004800100048001400482C
:10047800885B002040420F00F0ED00E0401A0020A9
:10048800001000E010E000E03F190100A81400206F
:10049800945B002000200240083B02088C2D0020BD
:1004A800A0500020986602081C4F0020981A0020CF
:1004B800143B0208606B020801330A2BB2D10020FA
:1004C8000C341BF0A9FACC2CA9D15E4C04F1CC0851
:1004D800207913F093F90C3414F8041C14F8032C45
:1004E80013F040FD4445F3D10022574900235354EB
:1004F8000132112AF9D1554AFF2199540133072BAA
:10050800F9D1346852483C22002121F06CFF04F0F4
:10051800400905224FF000084E4B4D4818F80310CB
:100528000C2303FB08F31954B9F1000F07D11E3946
:1005380001299FBFFF2102F1FF321954D2B208F1FD
:100548000108B8F1050FE7D1434B85F8A0251878C5
:100558004249C200BB1893F8D9E081F800E093F84B
:10056800DAE03F4993F8AD3181F800E013B9C4F3FC
:10057800401100E0012185F8A11511B9C4F3005319
:1005880000E00123C5F8A4350023364C40F2DC55C1
:1005980024F813500133082BF7D119B9173802285A
:1005A80026D81AE01744304BD7F8DC4097F8D81013
:1005B8001970002CF2D000228A42EFDA0623534346
:1005C800E5182A4FD5F800C043F807C003EB070E1B
:1005D800AB88AEF804300132EEE71EF0A7F9224BE3
:1005E8001B782BB1224B0122C3F8A42583F8A1253F
:1005F8001DF08EFC002111A81C2221F0F4FE1D4BD9
:10060800197801290AD11C488DF85110202221237C
:10061800027043708DF85E208DF85F30174B1B68B1
:10062800C3F300158DF858500023154A02EBC30197
:1006380091F90210022925D132F83330003318BF5E
:10064800012323E0143B0208B01B0020C11B00203B
:10065800CC700020B09A0208BC6B0020B16D00205D
:10066800B26D0020E82C0020B06D0020B36D002092
:1006780028160020395300203A530020646D0020CA
:10068800A07000200133052BCFD100238DF84B300B
:100698003368C3F340028DF84D20C3F380128DF800
:1006A8004F20C3F340328DF84520C3F3C0328DF894
:1006B800482013F4006204D0AD4A927A541E624274
:1006C8006241AC4C8DF84920C3F300428DF85020AC
:1006D80094F8A125003218BF01228DF85220C3F3E7
:1006E80000528DF85320A44A1188ADF85610A3493A
:1006F8005288ADF854200A7A8DF85920501E0228E5
:100708008CBF002001208DF84E00C888ADF85A0033
:10071800D80403F00109C3F3C00748BF984B898880
:1007280048BF9B88ADF85C1048BFADF85C30042A20
:100738008DF846908DF8477009D14FF0000A4FF4B4
:1007480080508DF84EA013F07DFDADF85CA03368A5
:100758008C48C3F300728DF844208B4A1901527AF1
:1007680084F8A82548BF00234FF000014FF09002FD
:1007780048BF8DF8523021F036FE6B00B9F1000FFA
:1007880000D107B10133814A52F823300393002383
:1007980002931D46039B33F815304FF6FF729342C0
:1007A80000F020829DF84B10DAB21B0A5FFA83FA38
:1007B80039B177480C2101FB0201097C2A3901294A
:1007C80048D99DF84F1039B171480C2101FB02013D
:1007D800C868704988423DD09DF8501061B16C4896
:1007E8000C2101FB020101F10C00CE686A498E421E
:1007F80030D0017918292DD09DF84D1031B16448B9
:100808000C2101FB0201097C142923D09DF8481012
:1008180031B15F480C2101FB0201097C222919D062
:100828009DF8491031B15A480C2101FB0201097C9D
:1008380015290FD09DF85110B1B155480C2101FB75
:1008480002019DF85E00097C884203D09DF85F0094
:10085800884209D14B4A53781278009203220192B8
:1008680012200121AAB218E1022B02D19DF84530CD
:1008780003E0012B04D19DF84630002B00F0AE8137
:100888009DF8523083B19DF858306BB9A2F10E0330
:10089800012B09D83E490C2303FB0213D9683F4BAF
:1008A800994208BF4FF0040A3D4B0C2707FB02375B
:1008B8009DF8533033B19DF858301BB9131F032BE3
:1008C80040F24D81BAF1010F72D1FF2384F800364E
:1008D80084F801362E4BC4F814760C2606FB023633
:1008E8004FF00009307C84F8089684F8AC95C4F879
:1008F800B095C4F8B495C4F8B895C4F8FC9584F8D4
:10090800029684F8039684F8049612F077FF022280
:10091800827180F807A080F80890317D13F05EFBA3
:10092800F068717C4A4612F0ACFE38464946524699
:100938001AF034FA1B491C4BC4F818361B4BC4F880
:100948001C360A1D3846C4F820961AF05FF90D4A7D
:10095800937802EBC3032021597213790133137181
:100968005378127813208DE804024946F2E000BF5C
:100978003651002028160020842E00209A6B002073
:10098800946B0020C82E002020520020506B0208D3
:10099800083B020800040040002C014000400140D0
:1009A800143B0208401C002061300108E1310108B5
:1009B800BAF1020F60D19DF80810DFF814C3BE48E1
:1009C800CDF81CC04FF01C0909FB01F90C260CEBF3
:1009D800090306FB02064FF0010B4FF0000A83F8EB
:1009E800091683F80AA683F812A683F808B6C3F88E
:1009F800147606F10C02307C05930492069112F0ED
:100A0800FDFE069980F806B05944017280F807B0D7
:100A1800317D13F0E3FA049AF0685179524612F0E6
:100A280030FE5A46384651461AF0B8F9059BDDF8AB
:100A38001CC0A249C3F8181603F5C362E144A04BD1
:100A4800536009F5C361C2F808A038460A1D1AF0B8
:100A5800DDF89C4A937802EBC30340215972D3789E
:100A68005B44D370029B5B44029353781278132043
:100A78008DE8040851466DE0BAF1030F6CD1914E30
:100A880096F801A0BAF10B0FB44609D93378009350
:100A9800012101911220AAB2534612F08BFE9DE06B
:100AA8009DF859B0BDF85AE0BDF85C309DF8440097
:100AB8000BF1FF32032A0FD8DFE802F002060A1210
:100AC800DFF8249208210FE0DFF8209218210BE0CC
:100AD800DFF81C92482107E0DFF81892012103E0B3
:100AE800DFF8149218210023774A00904A433846C9
:100AF800B2FBFEF292B2CDF810C013F027F8734B98
:100B08009DF84E2043F82A00DDF810C0C0F80C907C
:100B18006C4B22B19A7803EBC203192207E09A784A
:100B2800BBF1040F03EBC2030CBF0D2209225A725A
:100B3800B278737801320CEBC20C06F8323001330C
:100B48003278CCF80470DBB2737000920222019202
:100B580013200021AAB23BE0BAF1040F3ED1594E4E
:100B680096F800A0BAF1070F1FFA85F908D90222F2
:100B780073780192CDF800A0122001214A468CE733
:100B88009DF84410BDF854204F4B009193FBF2F2AE
:100B98000121BDF8563092B2384612F0D7FF4C4BBF
:100BA80003EB8A030A22C3F8E806B378013306EB9D
:100BB800C30113204A70327806F833200132D2B2CA
:100BC8004F603270737800920322019200214A46E6
:100BD80012F0F0FD3B4A9378013393700135112DE3
:100BE8007FF4D8AD3B4B3C4E1A78A2F11703002492
:100BF800022B347019D8394D2B19D3ED007AF5EE44
:100C0800407AF1EE10FA04D1354C2368DA0432D474
:100C180026E00FCBC035254485E80F003378103423
:100C28000133C02C3370E6D1EEE7234B03EBC2034C
:100C3800244AD3F8A8E1577893F8AC21974228BF03
:100C480017463770BEF1000FDED0BC42DCDA254D06
:100C580023011D4473440FCB013485E80F00F4E7EA
:100C68001DF03AF99DF84E30194D002B46D101235D
:100C780085F8883842E031780129F1D9194A02F11A
:100C8800080302EB0112183210339342E8D053EDF7
:100C9800047AB6EE007A67EE877A43ED047A53ED6C
:100CA800057A67EE877A43ED057A53ED037A67EEA6
:100CB800877A43ED037AE7E7083B0208C53601085F
:100CC80039300108C82E002040420F004C6B00202C
:100CD80028160020BC6B0020486B0020301D002027
:100CE800A0500020F01D00204134010815340108EF
:100CF800DD330108213201083132010802200021C8
:100D080012F071FD954A13783F2043F004031370E5
:100D180012F074FD0122C5F88C0885F8902840B1BE
:100D2800112282710222C27100220272012113F083
:100D380055F98B4E002012F02BFC307E1AF06CFE19
:100D4800337E03F01F015B090122022B02FA01F234
:100D580008D0032B0BD0012B0DD182498B6A1A4383
:100D68008A6208E07F49CB681A43CA6003E07D497C
:100D78000B691A430A61707DDFF8E49112F03EFDB9
:100D88000C270B234FF0020AC371877180F808A063
:100D9800F07D12F033FD0D23C371877180F808A030
:100DA800B07D12F02BFD8771C77180F808A0337FE2
:100DB80013B999F81D309BB1707D12F01FFD4E21BB
:100DC800727E13F0CFF8F07D12F018FD2E21727E9E
:100DD80013F0C8F8B07D12F011FD0E21727E18E0F4
:100DE80099F8150012F00AFD0E2199F8192013F050
:100DF800B9F899F8170012F001FD0E2199F8192099
:100E080013F0B0F899F8160012F0F8FC99F81920C8
:100E18000E2113F0A7F8307D30B112F0EFFC504BE3
:100E28000D215A7E13F09EF831694F4B99420AD131
:100E380003F56043DA6842F48052DA60DA6822F433
:100E48008052DA6019E0494B994209D103F5EC3335
:100E58001A6942F480421A611A6922F480420BE04E
:100E6800434B994209D103F5EA331A6942F4004227
:100E78001A611A6922F400421A61337F2BB9384A81
:100E8800527F1AB90123022001E0002318468A88FC
:100E980022F480521204120C8A808A8892B242F498
:100EA80080528A8031690A8802F4415242F44572BC
:100EB800134303430B808B8823F470631B041B0CC0
:100EC80043F4E0638B808B8B23F400631B041B0CBF
:100ED8008B8307230B82326913889BB243F040034C
:100EE8001380307D18B112F089FC13F010F8214BF3
:100EF8001B78012B1BD0204EDFF86890307912F058
:100F08007DFC8346707912F079FC8246B0791AF03C
:100F180083FD1A4A31681A4B99420CBF13461023B5
:100F28001A0F31D1D9F8302022F0100230E02368AE
:100F38005B06E0D595F8A0350022124950561F28C7
:100F480002BFFF20505403F1FF3302F10C0208BF27
:100F5800DBB23C2AF1D185F8A035CCE788860020A1
:100F6800B814002000100240003001400038004052
:100F7800003C004039530020A81400202000001035
:100F880000580040CC700020D9F8302022F0200210
:100F9800C9F83020D9F830201343C9F83030012778
:100FA8000D2309228BF806308BF807208BF8087080
:100FB80058463E210422029312F0D4FF029B8AF87D
:100FC80006300A238AF807308AF8087050463E210E
:100FD800042212F0C7FF3368F0791968B24ED4F8CA
:100FE80000B021F0010119601A68B0491140196078
:100FF800AF4AB049002818BF0A461A611A6800218A
:101008003A431A609960D96099609A6842F400423C
:101018009A601A681A605A6822F0784222F40042EC
:101028005A601A6822F400321A601A683A431A6041
:10103800A14B30465F7019709970192221F0D3F9CD
:101048001BF0020F18BF14230BF4004A0BF40067BF
:10105800304618BF3370BAF1000F01D022237371E4
:101068000FB11523C3734FF0000A944ED34616F8F8
:10107800010C68B312F0C2FB0623837100270BF141
:101088000F03C371077216F8010C12F0B7FB132196
:1010980012F0A4FF16F8010C3A46894901F51E77AB
:1010A800530017F81270874203D10B4493F8793232
:1010B80003E00132272AF0D1002307223370F270AF
:1010C8000AF10103012286F801A0B2705FFA83FADF
:1010D8000BF1010BBBF1050F06F10506C7D1D9F8D5
:1010E8002C30784E23F4F873C9F82C30D9F82C300A
:1010F80043F4D873C9F82C303C201AF08DFC212019
:101108001AF08AFC6F481EF080F818A81EF052F8F2
:101118006D4B18936D4B1993BAF1010F4FF0000303
:1011280094BF1A4680221D924FF480721E924FF48B
:1011380080621F9220223046209218A94FF4005254
:101148001A931C9321922293ADF86CA01EF03FF8DD
:10115800336843F0010333605D4EB36823F04053B6
:10116800B360B36843F08053B3600A2019F095FE6A
:10117800B36823F08043B360B368B360B36843F0E7
:101188000043B360B3685249002BFBDB8B68514ABC
:1011980023F040538B608B6843F000538B6090685A
:1011A8004D4B034043F468339360CA684B4B13407C
:1011B80043F40053CB600B6B23F00F020AF1FF33AB
:1011C8001343394A0B6302F119070123D178002927
:1011D80000F09D805E1C042B92F801C01179DFF8A5
:1011E800F090F6B210D803EB4303D9F830005B0057
:1011F8004FF01F0E0EFA03FE20EA0E000CFA03F35E
:101208000343C9F8303034E0092B0ED80620053BDB
:101218004343D9F834E01F2098402EEA00000CFA26
:1012280003F30343C9F8343023E00E2B4FF0060EC6
:1012380010D8A3F10A000EFB00F0D9F838A01F233C
:1012480083402AEA030E0CFA00F34EEA0303C9F8B6
:1012580038300EE00F3B0EFB03F0D9F83CA01F23FB
:1012680083402AEA030E0CFA00F34EEA0303C9F896
:101278003C30BCF1090F164832D98369ACF10A0336
:1012880003EB4303D0F818C04FF0070E0EFA03FE25
:101298002CEA0E0EC0F818E0D0F818E0994041EAA0
:1012A8000E01816132E000BF4A510020FFE0CF000B
:1012B8001A0310A0300E5000205B00204B51002074
:1012C800083B020808040240400100506451002015
:1012D8000001005000030050E010FCFF07C0FFFDB4
:1012E80043690CF1FF3303EB4303D0F814C04FF00C
:1012F800380E0EFA03FE2CEA0E0EC0F814E0D0F8F1
:1013080014E00333994041EA0E0141613346053246
:10131800BA427FF45BAFB64B9A6842F001029A601A
:101328001A461168B24BCF07FBD5DA6822F00202E1
:10133800DA60DA6842F00202DA60DA6842F0010242
:10134800DA609A6842F004029A6008F0B9FF06462B
:1013580088B90320314612F046FA30461AF012FCDA
:101368001AF003FC642019F098FDB8F10108F7D1D0
:1013780040461AF007FC17F059F80023C5F89438CE
:101388004FF0FF33C5F8983823689E0332D5C8203C
:1013980019F083FDAE200CF05DFA08B115F084FA5F
:1013A80085F89C08C82019F078FD924BC5F8A0383C
:1013B800082385F8A438152300228F4E85F8A53810
:1013C800012385F8A828C5F8943885F8C02885F839
:1013D800C138C5F8AC68C5F8B06819F009FD82A332
:1013E800D3E9002312EB000843EB0109C6E90A8997
:1013F80015F0F8FA2368814C180642BF804B814AE1
:101408001A6000211022804820F0EDFF00262320DA
:10141800A66119F042FD2CAB04F1180003F88A6D9F
:101428007521012208F0FCFA002869D0774BA363E4
:10143800774BE363432384F84C3004F118000DF133
:1014480027033146012208F0EBFA9DF8273003F014
:101458007E038DF8273040B1682B06D1012384F82C
:1014680031301D2384F84C304AE09DF8263003F0D3
:101478007E03682B8DF826303DD1604EA76B022382
:10148800062184F831300A4618AB06F11800B8472F
:101498009DF863309DF8652003F001035B0002F0BE
:1014A800010243EA82029DF8613003F0010313430D
:1014B80012D05AB2012A01D1002302E0022A03D134
:1014C800012384F832301BE003F00303032BF7D029
:1014D800032019F0EDFC13E00CABB76B06F1180014
:1014E8000C210122B8479DF8303013F00F03EFD0DC
:1014F800042BE5D1E0E7702B04BF042384F83130D6
:10150800A36CC5F8D03894F83150424B3B4A63631A
:10151800022D4FF0000384F8303001BF3E4B1360BA
:101528003E4B536001BF3E4BD3603E4BD36114BF6B
:101538001D4604234FF0000108BF82F8303009200F
:10154800009101912A460B4612F034F9002D00F063
:10155800A480354B01201D701BF0A8FC334AD178BC
:10156800967984F82C6093889078154649B1002EB6
:101578000CBF7D234FF47A73421E84F82E20434318
:1015880002E01E4A82F82E101F4F1C4E3B60304668
:10159800236898472B780BB186F83030244E254BBA
:1015A800C6F8D438C6F8D838C6F8DC38EB791BB991
:1015B8006B89002B46D158E01F4BC6F8D43800245D
:1015C8001E4BE9793A689FED1E0A1C2000FB043087
:1015D800543343F824000023013413F0CFFB032CC9
:1015E800EED1E5E7AFF30080404B4C00000000006F
:1015F80000010050D03D0208C81E00203C520020C7
:10160800145300207C2D0020746A0020299A0008B9
:10161800AB9B0008EC3D0208B99D0008179500082F
:10162800FF94000890C1793DB4500020042D00209B
:1016380028160020C93E0108833E0108081F002023
:10164800F304353FB74BC6F8D8380024B64B396891
:101658006A891C2000FB0430543343F82400AB890A
:10166800013413F0FDFB032CF0D1EB8993B1AD4BA2
:10167800C6F8DC380024AD4B3968EA891C2000FB29
:101688000430543343F824002B8A013413F0E8FB68
:10169800032CF0D116F0F6FF10B9012019F008FC60
:1016A800A34C0420002112F09EF82378002043F078
:1016B800020323701AF066FA0A27A0461AF055FAB0
:1016C800192019F0EAFB9B4B5B68990302D40120AF
:1016D80011F05EFF192019F0E0FB013F002011F026
:1016E80057FF17F0FF07E9D138461AF04BFA1BF0FD
:1016F8001DFD914BDFED917A1B7C914E00EE103A67
:10170800B8EEC00A002420EE270A13F02FFB8D4BF9
:1017180083ED000A8C4B1C605C609C601AF0CAFE6A
:10172800FF211D22304620F05EFE8849884B0D6857
:101738003770012215F0020E1A70A246304689460B
:1017480006D072700222B27004221A701A22F27045
:101758001A787B4C561C1421F6B281544FF0040CB5
:10176800911CC9B200F806C015F00A0C197008D00F
:1017780005266654161D76490332D2B20E7006212C
:10178800A154744E31688A0641BF1A78541C1C70E3
:10179800072448BF845415F0040F6F4C04D1226805
:1017A800D5060AD50A0608D51A7803258554951C46
:1017B8000132D2B21D701825855411F0800202D072
:1017C800BCF10A0F06D02468E50618D5BEF1000F53
:1017D80015D0A2B11A7809248454541CE4B20825FF
:1017E8000555941CE4B213250555D41CE4B21525FF
:1017F8000555541D0432D2B21C7016248454564A1E
:101808001568EC0614D51A780A248454541CE4B2DA
:101818004FF00E0E00F804E0941CE4B24FF01B0EDB
:1018280000F804E0141D0332D2B21C701C24845446
:101838006A0641BF1A78541C1C70192448BF845486
:101848001A780B258554CD0348BF414D02F1010498
:10185800E4B248BF02321C7041BF2A70384A0C25D6
:1018680015551A780F25541CE4B285544D051C7083
:1018780008D53A4D2D7A2DB1354D02322A70304AAD
:10188800102515550A0348BF1A78354C41BF511C1D
:101898001970112181541A7817218154911C013231
:1018A800D2B219701223835400214FF419722D48B3
:1018B80020F099FD1EF044F82B4BC4F8003A0023A1
:1018C80084F8083A0D2384F8043A1E2384F8053A6C
:1018D800D4F89438042B1FBF5A1C04EB8303C4F8B4
:1018E800942804F5206218BFC3F8B0281F4B4FF0A6
:1018F800000BA3F800B083F802B016F0F3F8154B0C
:101908001B681D0640F18680194D1A4B6B601A4BF7
:101918002B601A4B85F811B0C3F804B0C3F808B0AF
:101928002EE000BF833E0108681F0020C81F00206A
:1019380088860020586D00206C68002035FA8E3C9F
:101948005E2D002098680020606800209C500020D0
:101958007B2D0020A0500020646D0020442600202C
:1019680028160020985D0020F03D02084C4F00200A
:1019780014530020A07000207C2D0020A4500020CB
:1019880014F058FB614B85F813B01B682B6258465E
:1019980014F0A2FB2A685E4B11780C224A439B463E
:1019A8009A5C022A03D1012014F096FB2EE0012A4A
:1019B8002CD102201CF0EAFB18B9802012F042FC5E
:1019C80024E001796B7C534A12F803E08E4504D079
:1019D8000133DBB2042BF6D900236B746B7C90F9CE
:1019E800020012F803E02B681A780C2303FB02B3F9
:1019F80000225B780093484B0192022153F82E3065
:101A08001CF06AFBA8600028CDD1D6E7052000218C
:101A180011F0E9FE414B424AC3F8242100254FF05A
:101A2800010B83F84D5783F8605783F84C5783F8B8
:101A380000B05D709D70DD70C3F828A1C3F82C213B
:101A48001D71DD711D725D729D725D7403F26C73A0
:101A5800C3F800A017F03CFB324A334B11681D70E5
:101A680011F4803F924600F0E88002930DF0E8FA06
:101A7800029B2E4883F800B0294640F22A3220F013
:101A8800B2FC2B492B4B48699A6A02434A612A4A9D
:101A98001A62DD6218A893F825308DF860308DF849
:101AA80061B08DF862508DF863B01AF003F8182011
:101AB80011F0A4FE162383710223C4F8380DC371F4
:101AC80005721E49DFF878E051F8352072454FEA73
:101AD800C5038C4602D10B445A7903E001350A2D1F
:101AE800EFD100222E21CDF808C012F03BFADDF824
:101AF80008C0002312485CF8331081424FEAC30241
:101B080083461FD10D4B13441F791EE0BC500020A3
:101B1800E465020823150020746A0208FC5F0020AF
:101B2800000080BFA0500020517500203420002004
:101B380000100240000000200B960008606B0208AD
:101B4800002C014001330A2BD4D1384619F064FF28
:101B5800BBF80030C748C84F23F45C731B041B0C48
:101B6800ABF800301D23CBF82C300223ABF828301B
:101B780000250123ABF830500CA9CBF814306022B3
:101B8800ADF8343002930C92ADF836500E95ADF89E
:101B98003C50ADF83E50ADF84050ADF842501DF005
:101BA800B8FADBF8182042F00802CBF81820DBF866
:101BB800442042F40042CBF8442038461DF025FB6F
:101BC80018A81DF0F7FAAD4A1892AD4A19921022DA
:101BD8001A9240F22A32ADF86C2080221D924FF4FE
:101BE80080721E9238464FF4005218A921921C9513
:101BF8001F95209522951DF0EAFADBF80C20029B30
:101C080042F40072CBF80C203A6842F002023A60C3
:101C18009C4A13702B469C4900255A185D52043380
:101C2800FF21802B9170D170F5D108F062FA08F08D
:101C380060FA0620294611F0D6FDDAF8003058057A
:101C480040F1938004201CF0A1FA0421C4F83C0D53
:101C58001CF092FA84F8400D08201CF097FA08212D
:101C6800C4F8440D1CF088FA884D84F8480D00210A
:101C780028462C2220F0B7FB8E236B704FF07C0B8C
:101C8800E0237D27EB7085F800B085F82B70804D38
:101C98002C220021284620F0A6FB8A236B702020E6
:101CA800A023EB7085F800B085F82B701CF06EFA55
:101CB8002021C4F84C0D1CF05FFA84F8500D102058
:101CC8001CF064FA1021C4F8540D1CF055FA84F87D
:101CD800580D4FF480701CF059FA4FF48071C4F815
:101CE8005C0D1CF049FA84F8600D4FF400701CF08C
:101CF8004DFA684BC4F8640D1A7C531E012B0AD8A0
:101D0800654B022A4FF07E0108BFF92283F82F1194
:101D180008BF83F82A214FF400711CF02DFA5F4B9D
:101D2800DAF8001084F8680D00221A705C4B1B6802
:101D38009B1A5C4A18BF012313705B4A01230906EA
:101D480013704FF00203537048BF08214FF004038B
:101D5800937048BFD170554A58BF0323137019F0C8
:101D68005DF90720002111F03EFD514DB5F800B096
:101D7800BBF1000F40F0AD802C2011F03FFD0F2388
:101D880083710E230D210746C37180F808B0C4F88B
:101D98006C0D12F023F9384612F0B9F8454A138849
:101DA80023F040031B041B0C1380138823F0380313
:101DB8001B041B0C138013889BB243F04003138051
:101DC80032209F238DF830308DF831B08DF832B045
:101DD8008DF833B019F061F838468DF861B012F01B
:101DE80091F804220CA918A819F0F4FE384612F04C
:101DF8008EF89DF862309DF861201B0243EA024389
:101E08009DF8632013432C4A934225D00DD8A2F5A0
:101E18001A42033A934218D002F51A420232934208
:101E280015D0264A93424FD10FE0254A93420ED04F
:101E380004D8013A934247D1402309E0214A93420A
:101E480005D00132934207D03EE0202300E08023F2
:101E58002B804FF4807302E04FF480732B806B80EB
:101E6800AB882A881B02AB605343EB60012384F8DC
:101E7800703D2EE0002C01401C000240342C014033
:101E8800342000207276002052750020A5260020FC
:101E9800722600204426002000000020802C00200C
:101EA80064500020812C0020B92C0020E32C002055
:101EB800380100200038004018BA20001540010001
:101EC8001720C2001740EF0000232B806B80AB6007
:101ED800EB60EF6847B3FF0ABB460023BB4210DA4A
:101EE800DD190DF1600C6D106146E80210220393B4
:101EF800CDF808C009F052FD0F28DDF808C0039B93
:101F080006DC08F019FF4FEACB23C4F8743D0BE058
:101F180000225CF82210013140F003810132042ACA
:101F2800F7D12F46AB46D9E7DAF800209E4B12F4DA
:101F3800002118BF012119709C4B5B78202B01D818
:101F4800202308E0402B01D8402304E0802B94BFD5
:101F580080234FF48073C4F8783D954B954D4FF42A
:101F68007A71A3F84810944B94491B68C4F87C3DD7
:101F7800934B002018702B6843F008032B600B88E4
:101F880023F002030B8040F6020313404BB18D4B44
:101F9800032119708C4B012119708C4B18808C4BC4
:101FA800188012010CD58B4B1B6898472B6884F856
:101FB800800D10B143F4806301E023F480632B604B
:101FC800854B864D1B6886483360002101274C22CB
:101FD80084F8887820F007FA824A00232846C4F853
:101FE800843D136016F05AFF10F0CEFF6428B8BF86
:101FF800642068653946384616F086FF7A4B5A7968
:102008001C4652B1794B1B68642BB8BF6423C5F8D2
:102018009C300220394616F077FF6379724F022B05
:1020280025D1734B1B689B0721D53B88714C94FBCA
:10203800F3F39BB2642BB8BF6423C5F8E4300320E4
:10204800012116F061FF7B79022B04D1788894FB7B
:10205800F0F4A0B202E010F097FF80B26428B8BF95
:102068006420C5F82C010121042016F04DFF06203C
:10207800012116F049FF0820012116F045FF3368B9
:1020880040F602011940003118BF0121072016F05F
:102098003BFF0520012116F037FF31680920C1F305
:1020A800C01116F031FFD9F800100A20C1F3C001A1
:1020B80016F02AFFD9F800100B20C1F3800116F0A2
:1020C80023FFD9F800100C20C1F3001116F01CFFF3
:1020D80031680D20C1F3404116F016FF31680E201B
:1020E800C1F3802116F010FF71880F2001F0010163
:1020F80016F00AFF31681020C1F3C06116F004FF22
:102108001120012116F000FF0820002111F06BFBBF
:1021180098F8003063F07F0388F800302DB0BDE8F0
:10212800F08F6B1C5D46FDE62B2011F067FB182332
:1021380083710223C371804604720121CAF8880D95
:1021480011F04CFF4046012111F0E6FE3C2018F04A
:10215800A4FE99F81130DFF8A0A09C42BEF64FA962
:10216800002019F00FFD4046002111F0D5FE002196
:10217800782018F081FE012019F004FD4046012165
:1021880011F0CAFE7820002118F076FE0134E0E74D
:1021980008F096F800287EF437A98AF8110013F0A1
:1021A800B6FDFEF731B900BF34300020802E002084
:1021B800C46B0020646D0020BC5000206A760020AB
:1021C800B0740020D8260020A0150020307500200B
:1021D80032750020A81500208C2D0020780F0020D3
:1021E8004C5300204853002020520020746A0020DD
:1021F8009C50002040420F001C4F0020AFF300808D
:10220800AC4B1B682DE9F04F9B6AAB4F07EE903A39
:102218002DED088BF8EEE77A9FEDA89A3B6067EE04
:10222800897AA74BC3ED007AA64B99B05A790693E1
:1022380004460D460AB912F073FE069B5B79022B21
:1022480009D0A14B1B689A0705D519F007FF20464E
:1022580029461AF091F99D4B05931A79DFF8B09247
:10226800002A00F081809A4B9A4E1B6813F01003E5
:1022780004D1ADF84030ADF8423040E0964B1C68D0
:10228800B6F90830B4F9540000EE103AB8EEC00AB6
:102298001AF006FFB6F90A30ADF8400000EE103A21
:1022A800B4F95600B8EEC00A1AF0FAFE8B4BADF836
:1022B80042001B689FED8A6ADB7906EE903AB6F910
:1022C8000C30F8EEE66A07EE103AF2EE047A66EEA3
:1022D800A76AB8EEC77A37EE267A76EEA66A27EEB0
:1022E800067AC7EE267A9FED7F7A77EEC67A77EE82
:1022F800877AF1EE677AFDEEE77A17EE903AADF855
:1023080044303388ADF84630774BB9F81640186832
:10231800764B1D88F37900F4805003EB830100238A
:10232800734A5E1832445278012A0BD005D3022A28
:1023380016D110AA32F813600FE0059A02EB430297
:10234800568D0AE0032B6B4A01D0002606E00028D0
:102358000CBF2E462646D68002E0664A22F8136055
:102368000133042BDCD19CE05C4BDFF8A8A1D3F847
:1023780000B0DFF8A4819BF802409AF80060B8F931
:1023880000005C4D3246214613F04AF90490BDF82E
:102398001030B8F902002B803246214613F040F97C
:1023A80068809BF809109AF801200646B8F90400DD
:1023B80013F036F9B8F90610B9F8183040429942C6
:1023C800A88005DBB1F5FA6FA8BF4FF4FA6100E009
:1023D8001946C91A4FF47A725143474A4548C3F51A
:1023E800FA63B1FBF3F16FF063034FF0640C91FBF8
:1023F800FCF803FB081332F818E008F1010832F979
:1024080018100FFA8EF28A1A0599C9785A4392FB66
:10241800FCF37344EB802D4A00293AD0374B1B68F4
:102428005B063ED5364BDFED377AB3F904300A2226
:1024380093FBF2F3344A12889B1A1BB208EE103A47
:10244800B8EEC88A28EE278AB0EE480A12F08EFC49
:10245800F0EE408AB0EE480A12F026FC07EE906AC9
:10246800B8EEE77ADDED047A60EE476AF8EEE77ACF
:10247800E7EEA86A67EE807AFDEEE66AE7EE287A6C
:1024880016EE903AFDEEE77A2B8017EE903A6B80C5
:1024980007E001885185418891858188D185138617
:1024A800BCE71A4C23885E0738D5012019F06AFB6F
:1024B800DEE000BF9853002034760020BD37863513
:1024C8006C6A0020205200209C5000204C4F0020B5
:1024D800646D00209C680020C8680020686A00209D
:1024E80000007A440000FA43A05000209A6B0020B4
:1024F800A8660208506F0020AE680020706A0020AD
:102508006C76002035FA8E3C2E3600206A76002044
:102518001C4F0020586F0020944F0020AA4A1668CC
:10252800F50707D4059A92F82920012A04BF43F039
:1025380001032380A54D2288D5F8008044F2FF03CB
:10254800134018F0080F238001BF44F2FE03134024
:102558009F4A43F4807308BF138013F09FF828B193
:10256800238823F0010343F400732380994B1B88CD
:10257800632B81BF238823F0010343F48063238006
:1025880016F4804305D0944B33401A1C18BF01221F
:1025980000E01A46914B59789A46002934D0904B5E
:1025A80090491B781BB99048C079022806D10B7A4C
:1025B80033B188F0010808F0010803E0984601E00B
:1025C8004FF001082388580706D4884B33401BB1C5
:1025D800002A08BF4FF0010891F94D37002B0ADD9A
:1025E80010A8834916F008FF10A817F063FABAF884
:1025F8000C30984202D8B8F1000F05D0238823F098
:10260800010343F4006323807A4B1A68110708D545
:102618002B68DB055FBF238823F0010343F4805355
:102628002380960708D52B6898055FBF238823F079
:10263800010343F40053238015F062FE38B9238860
:1026480023F001036FEA43436FEA5343238023884F
:1026580013F0010F684B14BF002202221A7018F001
:10266800C7FB664B1B68C01A002801DB1DF0B8F9D0
:1026780099F82030624E002B65D0624B347893F87D
:1026880000805CB910F080FC234602460121301D11
:102698009FED5D0A12F072FB0123337097ED000A7B
:1026A800574DB8EEC00A281D11F0E7FB574BBDEE99
:1026B800C00A588810EE103A90FBF3F0441CA4B2FC
:1026C8003484B8F1000F1FD0B5F8228000234C4D98
:1026D8004F4A05F12C0705F1240C32F813E037F8BE
:1026E80013203CF8131027F813E0C2EB0E0911FB76
:1026F80008F122B291FBF2F24A442CF8132001337C
:10270800042BE4D1688402E06B8C013B6B843C4A67
:10271800508C03B2002B4FF0000313DDB2F92040B8
:102728003C4931F81320083112FB00F231F813103C
:1027380092FBF4F28A1A364921F813200133042B4C
:10274800EED100E053842F4B314C93F80080204F9A
:10275800244DB8F1000F00F014823B88DFF8689030
:10276800DFF89CA013F0040F0AD12B7A002B68D055
:1027780005F58070D5F81811072217F007F860E002
:10278800D9F80030990249D59AF83430002B48D04E
:10279800214B1B6841F2100B03EA0B0BBBF1000F36
:1027A8003FD12B7A002B3CD0084BD5F818111B6869
:1027B80013F0010F05F5807014BF0522072216F0EB
:1027C800E5FF8AF834B02CE0606D0020646D0020CD
:1027D8006A7600206876002000010800F86E002064
:1027E800C6680020FC5F00209C68002000030800E9
:1027F800A86100209C5000205A7100205C710020C4
:10280800C82300207C360020F304353F804F002089
:10281800506F0020EC230020706A002001238AF802
:102828003430BC4B1B68DB070BD5BB4817F042F9AB
:10283800C5F8A401B84816F0D7FFC5F8A80116F0E6
:102848008BFFB64B3A881B68DAF83810CAF838306C
:10285800500711D55B1A07EE903AB14A9FEDB17A4D
:10286800D5ED4C6AF8EEE77A67EE877A92ED007A52
:10287800A6EEA77A82ED007A2B7A6BB1A54B1B687E
:10288800D90709D59AF83C3033B90E201BF06EFFF2
:10289800A54B012283F83C20AB7B33B1D9F800303B
:1028A8005A025EBFA14B0122DA73D9F80030C3F394
:1028B8008052C3F30063AA732B7416F00DFD17F052
:1028C800D4FA2A789A4B1C2101FB0233B3F80A90F8
:1028D80019F4006F5ED0974B1B685B055AD48D4B7B
:1028E8001B6813F0100F944B1ED093F803A0B4F993
:1028F8000200514612F046F980B2002848D08F4BAA
:1029080000B29B8A07EE10AA4042584307EE900A8D
:10291800B8EEC70A9FED8A7AF8EEE77A37EE400AF2
:10292800012087EE800A24E0864A93F803B0B2F9C2
:1029380000A0B4F906005946CAEB000012F022F9CB
:1029480083B2D3B17D4A8049928A1BB2002B02FB25
:1029580003F3CBBF4A880A88CAEB020AC2EB0A0A09
:10296800CBEB0A0B93FBFBF300EE103AB8EEC00A70
:10297800022016F01FFE40460AE06C4A107B38B170
:1029880002209FED720A049316F014FE049B184669
:10299800287301E000232B7319F4805F00F0968000
:1029A800644B1B68580500F191805A4B1B6813F063
:1029B800100F614B0BD0B4F90000997812F0E2F8CF
:1029C80000B210F1000A18BF4FF0010A5FE093F857
:1029D80002A0B4F90200514612F0D4F851461FFA89
:1029E80080FBB4F9000012F0CDF81FFA80FABBF1B1
:1029F800000F02D1BAF1000F3AD0504B9878012855
:102A080041D15A8A95ED485AD5ED475A95ED056A50
:102A18000FFA8BFB4FF4FA7102FB0BFB9BFBF1FBEC
:102A280007EE90BA0FFA8AF3B8EEE77A534393FBAE
:102A3800F1F307EE903AF8EEE77A65EEE76A67EEAB
:102A4800857AE7EE056AE7EE257A95ED067AC6EE11
:102A5800866AC7EE877A95ED406A95ED417A76EEFB
:102A6800266A77EE277AC5ED4D6AC5ED4E7A0DE0F8
:102A7800E87A58B110A80DF0A5FB10A8514601221C
:102A880016F0E2FE03E04FF0010A00E0824695ED01
:102A98004D0A1FF0F9FE47F6FF7B2D4B95ED4E0AC8
:102AA80004935845A8BF58469842B8BF1846F087BF
:102AB8001FF0EAFE049B85F80BA05845A8BF5846AE
:102AC8009842B8BF1846A6F8400001E00023EB7210
:102AD80019F4005F15493DD0164B1B6813F4806349
:102AE80038D10C4A126812F010020DD1B4F9043032
:102AF8001148002B8078B8BF5B42834206DDD1F8CD
:102B08001831C1F84C3102E0984600E0904681F84F
:102B18000D8021E0646D002080610020BC50002001
:102B2800686700206F12833AC8230020FC5F0020EA
:102B380048670208706A0020586F0020F86E00206D
:102B48000000FA43300100209A6B002000000000CA
:102B58005A80FFFF00234B732A78C94B1C2101FBC5
:102B6800023341F2B800B3F80C806FEA080318404A
:102B78001AF0A4F940461AF0B1F9C24B2A78A3F822
:102B88004420C14BDFF818A300221A70BD4B93F8FC
:102B980046809B46B8F1000F3ED1BC4B9FEDBC7AF6
:102BA800D3ED0C7A8AF8B88077EE877A0022002372
:102BB800CAE90023CAE90C23CAE9102341460023C5
:102BC8004FF496720AF1BC00CAF8A830CAF8AC30C3
:102BD800CAF86C30CAF88830CAF89430CAF870302D
:102BE800CAF88C30CAF89830CAF87430CAF89030ED
:102BF800CAF89C30CAED287ACAED297A8AF8788012
:102C08001FF0F1FB0AF5F47041464FF496721FF07D
:102C1800EAFB01238BF8463018F0EAF8804689462B
:102C28001BF0B6F968B90023CAF86030CAF86430F6
:102C3800CAF86830974B8AF878001B68CBF8483098
:102C480098E0954BDAED1B5AD3ED007A9AED1C7A91
:102C58009AED1D6A77EEE55AD3ED017A37EEC77A19
:102C6800D3ED027A8D4B37EEC66AD3ED077AD3EDF2
:102C7800066A93ED035A67EE277AE6EEA57AD3ED56
:102C8800086AE6EE867AD3ED046ACAED1A7A67EE28
:102C9800266AE5EE256A93ED055AE5EE066A93ED98
:102CA800015A27EE057A93ED005AA5EE257AD3ED61
:102CB800025A3B88A5EE867A5907F1EE666A8AEDD4
:102CC800187ACAED196A2DD4754B93F878304BBB36
:102CD800744B9FED756AD3ED016A37EEE67AE7EE3D
:102CE800066AB5EEC07AC3ED016A684B9B7806EEBA
:102CF800903AF1EE10FAF8EEE66A48BFB1EE477A7C
:102D0800B4EEE67A634BF1EE10FA1B6808D5DBF8EF
:102D180048209B1AFA2B05D901238AF8783001E05C
:102D2800CBF848309AF878305D4A3BB15D4B93ED6B
:102D3800017A77EEC77AC2ED1A7A03E000231366A8
:102D480053669366DAED187AFDEEE77A17EE903A55
:102D5800DAED197AABF84C30FDEEE77A17EE903AD7
:102D6800DAED1A7AABF84E30FDEEE77A17EE903AC4
:102D7800ABF85030404649460CF084FB4B4B9FED76
:102D88004C8AB3F9043003EB83035B0007EE903AF7
:102D9800F8EEE78ADFED477AC5F81831C8EE888A79
:102DA8004FF0000B44F61F6A68EEA78AB0EE680A77
:102DB80011F07AFF85ED470AB0EE680A11F0D6FFE8
:102DC800304985ED480AD1E91623B8EB020269EBD0
:102DD80003039B454FF0010008BF92452871364D0B
:102DE80080F0C780C1E918232D4B284A93ED287A33
:102DF800D2ED0C7AB4EEE77AF1EE10FA53BF9FEDFC
:102E08002F1A93ED220AD3ED230A93ED220A52BF1B
:102E1800D3ED230A93ED251AD3ED261AC1E91689B5
:102E280058BF00209946904658BFF0EE411A16F058
:102E380021FF99ED297AD8ED0C7A194BB4EEE77A8F
:102E4800F1EE10FA47BF93ED240AD3ED270A93ED6C
:102E5800240ADFED1A0A4CBF0120002016F0CAFE32
:102E680099ED2A7A99F8B030D9F8AC10124A85ED64
:102E7800497AC5F828111BB301215172D17021E09C
:102E880048670208C82300207C360020902E0020C6
:102E98006F12833ABC50002060680020946A0020BA
:102EA80068710020300100200AD7233B6C7600208F
:102EB8000000C84235FA8E3CFC5F0020000000008C
:102EC8005372D3703A8852071CD5F3B1D5ED496ACD
:102ED800C34BF5EEC06AF1EE10FA16DDD3ED4B7A6E
:102EE800F5EEC07AF1EE10FA09DDF4EEE67AF1EECD
:102EF80010FA58BFF0EE667AC5ED4B7A05E0C3EDDF
:102F08004B6A02E0B74BC5F82C31FDEEC77ADFF803
:102F1800D8E217EE903AA6F8683099F8B8300C2243
:102F280002FB03990EF1880207CA09F1BC0C8CE870
:102F380007000EF1940207CA09F5F47989E8070039
:102F4800A949AA4AD1ED287A0133DBB2182BFCEE45
:102F5800E77A88BF00238EF8B83017EE903AD1EDA3
:102F6800297AA2F86A30FCEEE77A17EE903AA2F8CE
:102F78006C3017F03DFF9D4B0022A3F86E20EA79D4
:102F880082468B4612B10121A3F86E10697A29B1E5
:102F9800B3F86E0040F00200A3F86E00287A28B15A
:102FA800B3F86E0040F00400A3F86E008E48007A73
:102FB80028B1B3F86E0040F01000A3F86E00A87AAC
:102FC80028B1B3F86E0040F02000A3F86E00884BDB
:102FD800D3F800C02CF080001860388800F0040096
:102FE80080B210B9687400F07ABC00202F7868713C
:102FF800A8718048DFF8E8814FF01C0E0EFB07002F
:103008001CF01003B0F80A90784F00F0018319F013
:10301800100F00F02B8197F88030774D002B7CD073
:1030280097F89130002B00F00581D7E92201BAEB1F
:1030380000006BEB01011EF0ABFC704BDFED707A0A
:103048009A78B4F90030002B07EE100AB8BF5B423B
:10305800934227EE277A07DC6A4BB3F90230002B3C
:10306800B8BF5B42934202DD012387F89030B5F880
:103078004630614A07EE903AF8EEE77AB4EEE77A1E
:10308800F1EE10FAA4BF012387F89030B5F842306A
:1030980007EE903AF8EEE77AB4EEE77AF1EE10FA36
:1030A800C0F2C880B2F844309BB377EE677A07EE77
:1030B800103AF5EEC07AF1EE10FAB8EE477A07D476
:1030C800F4EE477AF1EE10FAC8BFF0EE477A01E065
:1030D800DFED4D7AB5F84030EA8F05EE903A4B4B6C
:1030E8001B88934238BF134606EE903AF8EE655AAD
:1030F800B8EE666A35EEC66A66EE276A86EE877AA5
:1031080077EE467A77EEA57AFDEEE77A17EE903AF3
:1031180001E0B2F84030E3808EE03D4BDFED3D6AE0
:1031280093ED027A3C4BB5EEC07AF1EE10FA4CBF43
:10313800F1EE477AF0EE477AF4EEE67AF1EE10FA1D
:10314800C8BFD3ED017AD3ED006A344BD8BFDFEDA9
:103158002E7A93ED086A6B8FC8BFC7EE877A07EEA1
:10316800103AB8EEC77AF4EEC76AF1EE10FA09DD44
:103178009FED2B7AB4EEC76AF1EE10FAACBF0123CB
:10318800002300E000232A8F07EE102AB8EEC77A42
:10319800F4EEC77AF1EE10FA44DDF5EEC06AF1EE0E
:1031A80010FA3FDDD6E91C01D6E91E23121AA88FB2
:1031B80063EB010312EB0A024FF47A7143EB0B0342
:1031C800484300218B4208BF8242C6E91E23C6E954
:1031D8001CAB2FD3054B012283F880202AE000BFC7
:1031E800FC5F0020000080BF68710020C823002019
:1031F800646D002048670208F86E0020586F0020B0
:103208006F12833A506F0020000000009A6B002074
:1032180048680020F366DF3F60680020946A002059
:10322800F304353F002BBDD100220023C7E91CABB6
:10323800C7E91E230DF018FA97F8903013B9142037
:103248001BF094FA95F848206FF009035343B04AED
:1032580000EE103A12680026B8EEC00AB2F956001D
:10326800268019F01DFFA680608015E319F0080F6D
:1032780043D0A84EA64B1D68B6F90830B5F95400DE
:1032880000EE103AB8EEC00A19F00AFFB6F90A3093
:10329800208000EE103AB5F95600B8EEC00A19F0D1
:1032A800FFFE9D4B60801B689FED9C6ADB7906EEF4
:1032B800903AB6F90C30F8EEE66A07EE103AF2EEFC
:1032C800047A66EEA76AB8EEC77A37EE267A76EE03
:1032D800A66A27EE067AC7EE267A9FED917A77EEF0
:1032E800C67A77EE877AF1EE677AFDEEE77A17EE1F
:1032F800903AA3803388E380CEE219F0010528D004
:10330800D7F898308749C3EB0A038B42C7E926AB45
:1033180004DDC7E928AB0DF0E5FA1AE0BAB198F870
:10332800023083B1D7F8A0007F4BC0EB0A00984267
:10333800C7E928AB02DC0DF081FA01E00DF0D2FA02
:10334800012388F80630012387F8A83001E087F8C0
:10335800A82009F00206B6B28EB3D7F8B030714A89
:103368007249C3EB0A039342C7E92CAB04DDC1E9F8
:103378002EAB0DF043FA22E098F80830EBB16C4B15
:103388005B78B3B1D1F8B820674BC2EB0A029A4216
:10339800C1E92EAB08DC04921BF07EFC504659466E
:1033A800049A0DF07DF901E00DF028FA012388F860
:1033B8000530012387F8C03001E081F8C03019F0EA
:1033C800030F00F069825B4BDA8DB3F830C05B8E77
:1033D800C2EB0C0C9A1A97F8C0301FFA8CFC92B208
:1033E8001BB126B1B8F8629702E0994600E0B146F1
:1033F80097F8A800D0B1002D01F04482B8F864070E
:103408000A2301B291FBF3F34A4991F834104B4374
:103418001BB20FFA8CF7BB4203DB17B29F42A8BF5F
:103428001F46BFB2002E00F0A78003E0002E01F077
:103438002E8207463D49DFF8ECE0D1F8C830C3EBEF
:103448000A037345C1E932AB06DD0023C1F8D83061
:10345800C1E934AB002380E0DFF8D4E09EF80830FF
:10346800002B6FD09EF80130002B6ED0D1F8D030F1
:10347800C3EB0A082C4B9845C1E934AB3FDCDEEDC1
:103488004C7A9FED2D6A294B36EE677AF7EE086A7B
:1034980067EE266A07EE108A77EEC67AB8EEC77A24
:1034A800F5EEC07AF1EE10FA27EE099A9FED237A2D
:1034B80048BFF1EE677AF4EEC77AF1EE10FAC8BFAA
:1034C800D3ED367A26EE899AC4BF37EE899A83ED12
:1034D800369AD3ED367AF5EEC07AF1EE10FA09D4C1
:1034E8009FED0F7AF4EE477AF1EE10FAC8BFF0EECE
:1034F800477A01E0DFED127AC3ED367A02E0002365
:10350800C1F8D8300A4B4FF0010E83F805E01CE0F3
:10351800C86800209C680020686A002000007A447F
:103528000000FA43400D03003F0D0300C8230020AC
:10353800FC5F0020F86E002000002F440000484285
:10354800000000000023C1F8D830D1ED367AFDEE36
:10355800E77ACDED047ABDF810303B441BB20FFA80
:103568008CF7BB4203DB17B29F42A8BF1F4691F8F6
:10357800A830BFB2F3B1EDB1A54A92F82C1092F879
:103588002B206FF0090300B24B43984205DB02EB96
:1035980082035B008342A8BF03469E4A1BB200EE2B
:1035A800103A1268B8EEC00AB2F9560019F078FD60
:1035B80040426080984B964D93F8C030E3B1DEB13D
:1035C80095F82A106FF009020FFA89F902FB01F346
:1035D800994505DB01EB81035B004B45A8BF4B46D2
:1035E8008C4A1BB200EE103A1268B8EEC00AB2F963
:1035F800540019F055FD2080EB8D6A8E03FA87F789
:103608002B8E9F4242DB97423B46A8BF13463DE0C4
:1036180019F0080F4AD0D7F8E0102380C7E938AB73
:103628006380A380002A3CD07C4AC1EB0A03934202
:1036380004DDC7E93AAB0CF001FF2DE198F8023040
:10364800734EF3B1D7F8E830C3EB0A09744B9945C8
:10365800C7E93AAB10DCB38B00EE103AB8EEC00AFB
:103668000120B1EE400A15F0A5FF48460CF07AFF9C
:1036780048460CF01DFF01E00CF0E0FE012388F83D
:103688000630B6F92620B5F96837134465490A8823
:103698004988934203DB8B42A8BF0B461A46E28057
:1036A800FAE0614B1A88614BDA80F5E019F0010FF6
:1036B80070D0D7F8F030594AC3EB0A039342C7E9F0
:1036C8003CAB04DDC7E93EAB0CF0B8FE62E098F80D
:1036D8000230002B4AD0D7F8F860514BC6EB0A06E7
:1036E8009E42C7E93EAB3CDC98F810301BB398ED1E
:1036F800540AB5EEC00AF1EE10FA1CDBB1B107EEC0
:10370800906AB8EEE71A4A48D5ED490ADFED491A3A
:103718009FED492A21EE091A002116F025FBD5ED67
:10372800427A37EE800A85ED4F0A04E09FED430A9E
:10373800002015F03FFF95ED4F0A1FF0A5F847F65A
:10374800FF739842A8BF18463D4B9842B8BF184629
:10375800A7F8420030460CF005FF30460CF0A8FEF2
:1037680001E00CF06BFE012388F80630284B2D4948
:10377800B3F92620B5F968371A440B8849889A4264
:1037880003DB8A421346A8BF0B46234A9BB2E38059
:10379800A2F8003119F0020F73D02A4AD7F808317D
:1037A800C2E900AB1A4A9278C3EB0A0312B998F837
:1037B8000B6000E00026194A934205DD224BC3E95D
:1037C80000AB0CF019FE5CE098F808201F4BCAB15A
:1037D8005B78002B3CD01C4BD7F81001C3E900AB39
:1037E80066B90F4BC0EB0A0A9A4505DC0CF000FDE0
:1037F80050461BF033F901E00CF0FEFD012388F878
:10380800053025E0A3F86427A3F8622739E000BF54
:10381800F86E0020C8680020C8230020400D03006F
:103828003F0D03009A6B00209C680020506F002019
:103838008860002000000CC200000C42000048C252
:103848005A80FFFFD0240020D8240020FC5F0020ED
:10385800BEB9B54B1E68B5F96437B6F9560000EE27
:10386800103AB8EEC00A19F01BFCB5F9623760804F
:1038780000EE103AB6F95400B8EEC00A19F010FC80
:10388800208019F0040F1FBF6422D8F84C3193FB35
:10389800F2F3A64A18BF1380A54B5A790AB1002241
:1038A8005A709A7912B1A24A00219170DA7AA14924
:1038B8002AB1B1F86E2042F04002A1F86E201A7BBE
:1038C8002AB1B1F86E2042F08002A1F86E205B7B2D
:1038D8002BB1B1F86E3043F48073A1F86E30964B7B
:1038E8001B78BBB1954BB3F90620954B1B8B9A42BD
:1038F80010DC944B1B78012B01D0192B02D1924A72
:10390800527A3AB90E2B05D003F0EF03082B1CBFEF
:103918000023A3808D4B186810F0100050D1844B01
:103928001A788B4B1C2101FB02335B89DB0509D418
:10393800069B1B7A002B43D0864A126897073FD014
:103948009BB200E06423844E9FED847AD6ED087A1A
:10395800834DE1882A88F4EEC77AF1EE10FAF7EE83
:10396800006A00F18B87F4EE667AF1EE10FAC8BFB0
:10397800F0EE667A09B2891A07EE101AB8EEC76A2D
:1039880007EE102AF8EEC75A07EE103AC6EEA77AE5
:103998006988B8EEC77A77EEE67A87EE087AE7EEB6
:1039A800876AF0EE657AE6EE267AFDEEE77A17EE9C
:1039B800903A934203DB8B42A8BF0B461A46E2803B
:1039C8005C4DE388B5F81821664E19B291421EBFC6
:1039D800A5F81831012333703378002B00F02281C9
:1039E800614B00283FD01A68137AF7EE007A002B53
:1039F80055D010885A4A1288904250D9914222DDF7
:103A0800801A07EE100A891AF8EEC76A07EE101A2C
:103A1800B8EEC77A86EE877AF6EE006AB0EE666A86
:103A2800A7EE266AB4EEE66AF1EE10FAB0EE467A30
:103A38000CD4F0EE006AB4EE666AF1EE10FAC8BF74
:103A4800B0EE667A04E0B0EE007A01E0B0EE667A95
:103A580006EE903AF8EEE66A37EE677AC6EE886ABE
:103A6800E7EE267A1BE01B681A7ADAB11B889942BE
:103A780018DB3B4840888142BDBFC91A1B1A4A431C
:103A8800C2F16402BDBF92FBF3F3643307EE903AD0
:103A980007EE902AF8EEE77A87EE888A04E0B0EE1F
:103AA800678A01E0B7EE008A284BDFF8C0901F68EC
:103AB8004FF0000A07F010074FF0000B4FEA4A08D2
:103AC800B3EE0FAAF5EE00AA002F53D019F056FB5B
:103AD800D04410F8083007EE903AF8EEE77AC7EECF
:103AE8008A7A67EE887A49ED017A19F047FB4044F3
:103AF8004378C9F804B007EE903AF8EEE77A67EE33
:103B0800AA7A67EE887AC9ED007A19F037FB404443
:103B1800837809EE903AF8EEE97AC7EE8A9A69EE68
:103B2800889AC9ED029A71E0C8680020846A00206A
:103B3800FC5F0020C8230020EC140020944F0020D4
:103B48001C4F0020BC6B0020842E0020646D0020D8
:103B580048670208706A0020946A00209A99193F01
:103B68009A6B0020D46E0020686A0020D06800207C
:103B78000020EE44BAF1020FB7EE009A0CBFB0EE87
:103B880049BAB0EE48BA19F0F9FAD0441FED089ACC
:103B980010F8083009EE903AF8EEE99AC9EE8A9AD8
:103BA80069EE8B9A49ED019A19F0E8FA4044437896
:103BB80008EE903AB8EEE87A67EE2A8AC9ED008AEC
:103BC80019F0DCFA40448378C9F808B007EE103AD7
:103BD800B8EEC77A87EE097A27EE0B9A89ED019A33
:103BE80019F0CCFA10F8082000EB080372B15B78E2
:103BF80063B1C9EEA88A89EE299AF0EE007A78EEC8
:103C0800898AC7EEA88AC9ED038A01E0C9F80CB011
:103C18000AF1010ABAF1030F09F188097FF44CAFE0
:103C28000023337019F052FB804BDFF828E21B6841
:103C3800DFF824C213F0100F07D07D4B1B68DE0598
:103C480003D521886088A3881CE09CF80020794B64
:103C5800032A198858889B8814D9BEF80270B7F5CA
:103C6800FA7F0FD2B4F90460002EB8BF76427A42C8
:103C78000FFA83F8931B984503DBBB194345A8BF8C
:103C880043469BB29EF901209CF80070DFF8C0C142
:103C98004FF0000E1BB252425A437646F046B845E2
:103CA80036DA07EE902A03B206EE903A0BB2B8EE77
:103CB800E77A07EE903A9CED016AF8EEE77AF8EEBB
:103CC800E66A67EE867A9CED026AE6EE867A0DF180
:103CD80040090FFA86FADCED036AE7EE267AFDEE74
:103CE800E77ACDED047ABDF8103029F818300FFACC
:103CF80083F9D14504DC0FFA8EFAD14502DB33464D
:103D08001E46734608F101080CF1100C9E46C6E7E2
:103D180049484A4A0368CEEB060613F4805FB6B2F8
:103D280033D0474BDFF834C11B8813F0040F454BE1
:103D380008BFD98AB3F816E0434B08BFA5F81A1193
:103D48009B88E188C3EB0E040FFA81F8A04503DCD9
:103D5800BCF800E0138806E07344984506DBB2F827
:103D680002E0BCF80230A5F81A1112E0B5F91A31D0
:103D7800A342D5BFBCF800E0BCF802301388B2F803
:103D880002E0D4BF7146194603E0E1881388B2F80F
:103D980002E02E4AC3EB0E0424B236B207EE904A74
:103DA800A642F8EEE77A5DDD07EE106AF8EEC76A1C
:103DB8004FF0010EC7EEA66A82F800E00026BE4268
:103DC80011DA0DF1400E3EF9162007EE102AB8EE72
:103DD800C77A26EE877ABDEEC77A17EE102A2EF834
:103DE80016200136EBE79FED1E7A022294FBF2F4CF
:103DF80004FA83F327EE877A07EE903AF8EEE77A2B
:103E0800F6EE006AE7EE667AFDEEE77ACDED047A23
:103E1800BDF810300493BDF8103004FA83F307EEB0
:103E2800903AF8EEE77AE7EE267A60E0646D0020D3
:103E3800706A0020106B0020A05000209A6B0020B0
:103E48006A7600201C4F0020586F002086860020CC
:103E5800F01D0020BC6B0020486B0020946B0020F4
:103E6800C3F5A83E5FED026A4FF0000C1BB267EE87
:103E7800A67A82F800C0B6EE007A4FF0020C94FBE6
:103E8800FCF41A1967EE876A07EE102A96FBFCF60F
:103E9800334407EE903AB8EEC77AF8EEE77A37EE91
:103EA800667A0FFA8EF2F4EEC77AF1EE10FA58BF7E
:103EB800F0EE477AFDEEE77A921BCDED047ABDF875
:103EC80010300493BDF8103004FA83F407EE904ADA
:103ED800B8EEE77A07EE902A37EE267AF8EEE77A18
:103EE800F4EEC77AF1EE10FAD8BFF0EE477AB44A8A
:103EF8001288FDEEE77A02F00402CDED067A92B25E
:103F0800BDF818B0002A00F0A980059A0668AD4CE3
:103F1800AD4892F80390B5F91A210692A488C28A8E
:103F2800DFF8F4E2141B0794A84CBEF8003025888B
:103F3800BEF80280B4F802C0B4F804E0A44C0893B8
:103F480006F010030593E3790E932388A14C0F9391
:103F5800246804F08003A04C0993B4F906300A934E
:103F6800038B0B931FFA8EF30D939C4893B206F4C0
:103F7800805A0C930024BC4269DA10AA32F8143033
:103F8800974A1E460BB207EE903A02EB041292EDE6
:103F9800007ABDF91020F8EEE77A67EE877AFDEE31
:103FA800E77A17EE903A934205DB0FFA8BF29342C9
:103FB800A8BF13461A46334613449AB220F8022F74
:103FC80012B2B9F1000F0AD0724503DB6245A8BFEF
:103FD800624600E07246059B0280F3B935E0BAF10B
:103FE800000F0FD0069B1E46079B9E4206DCAA4286
:103FF8000EDB089B9A42A8BF1A460AE0424503DA3C
:10400800424606E0AA4203DB6245A8BF624600E0DA
:104018002A46059B028033B917E00E9B33B90F9BE4
:10402800AB4203D209E0099B3BB902E0B9F1000FAA
:104038000BD10A9B0B9A934207DA0D9B1A460C9BED
:10404800BAF1000F18BF1A460280013493E7654B96
:1040580004931A78002A00F040810AE01346BB4214
:10406800F5DA614A32F81310604A22F81310013366
:10407800F5E75F4B54481A68574B12F4807F08D015
:104088005C490C88ADF840404C88ADF842408988BE
:1040980013E059490C88ADF840404C88ADF84240CF
:1040A800564C89882468ADF84410E40407D5B3F960
:1040B8000650C48AA54202DA4942ADF8441012F407
:1040C800804218BF4E4A4F4D18BFD288ADF85C20C9
:1040D800B5F902204FF47A7102F5E1624A434FF4D0
:1040E800616492FBF4F2A2F5FA72ADF85820B5F9C2
:1040F800002002F5E16251433C4A91FBF4F1128839
:10410800A1F5FA71A2F2DC52ADF85A10ADF84620CA
:104118001988C28A891AADF848105988891AADF8E1
:104128004A109988891AADF84C10D988891AADF8BF
:104138004E101989891AADF850105989891AADF8A5
:1041480052109989DB89891A9A1AADF85410ADF87A
:10415800562000232C4F002227F813200133082B68
:10416800F8D12A4B2A491B782A4E4FF0060C0CFB33
:10417800031C6145DFF8A48000F0988011F802EC78
:1041880011F801BC4C7891F803900C2303FB0E83C3
:104198006420DA889B88D21A92B291F902304FEAE9
:1041A800520A53434FEA4B0593FBF0F318A8CAEBA6
:1041B80003039BB205449CBB35F8200C3DE000BFCF
:1041C8006A760020586F00201C4F00209A6B002050
:1041D8009C680020646D0020944F00207A6B0020BA
:1041E800F01D0020C91B0020A46B00207C6B002060
:1041F800706A0020506F0020106B0020A050002033
:10420800842E00206C760020E82C0020B06D002061
:10421800B56D0020E2240020946B0020746E00200D
:10422800B6F9020035F9205CA84208DA0444844251
:1042380003DBA5422846A8BF2046708008E007DDBA
:10424800041BAC4203DB8442A8BF044625467580A4
:104258000C2000FB0EF0012458F8000091F90050E2
:1042680004FA0BF4044236F8020F1BB215FB00F0F7
:1042780014BF4FF0FF340124642590FBF5F09842F9
:104288000CDB4FFA89F902FB09F292FBF5F2CAEB53
:10429800020A0FFA8AF38342A8BF034637F81EA022
:1042A80003FB04A327F81E30063162E7B74E00254A
:1042B8000C2202FB058236F8023F92F90A40E8B266
:1042C80014FB03F3642493FBF4F434801AF06AFBC0
:1042D80001352044082D3080EAD1AD4EAD4F33680A
:1042E800AD4D13F0200F44D000201AF05BFBAB4C0F
:1042F8008046208001201AF055FB3B6860801A0632
:1043080037D595F83C31A64ADFF89CE2012B1BD142
:104318009EF90A30B2F9021012885B424B434FF003
:10432800320993FBF9FC9EF916306FF0310113FB4B
:1043380002F393FBF1F16144C1EB080193FBF9F33C
:1043480063442180184413E053889EF90A104FF003
:10435800320C11FB03F393FBFCF308EB0301218000
:1043680011889EF9162012FB01F292FBFCF2104410
:1043780060803B681B0158D595F83D31012B23D04F
:1043880002D3022B68D071E0864B1B885C076DD581
:104398000223854C80490C2202FB034201F59F70E1
:1043A800128920F8132001F5A870002240F8232074
:1043B8000133062BEDD17D4BC1F874211B68C1F880
:1043C8007031012381F83D31764B1B8858073FD562
:1043D800D5F874010130C5F874010223DFF8B8E19B
:1043E8006E490EF5A87231F9134052F82310214492
:1043F80042F823100133062B1446EFD16B4BDEF83D
:1044080070211B689B1AB3F57A7F2FD9022366495E
:104418000C2202FB031254F8231091FBF0F1013334
:10442800062B1181F3D102221DE095F83D315A4A3D
:10443800022B0DD15C4BB2F842111984B2F8441129
:104448009985B2F84611B2F848211987A3F8442093
:10445800002385F83D3109E0524B1B88590705D4E4
:1044680011F055FC03224C4B83F83D21504B1B683F
:104478003BB9504B1B78002B00F0D78019F0EAFCB1
:10448800D3E04D4BB3F90420984612B946490023AE
:1044980035E095F87841DFF83C918CB9474BB8F88E
:1044A80004101A689FED460A09EB040000231C3427
:1044B80010F064FCE02CF1D1374B012283F878210D
:1044C8000024DFF8D8A03AF9143000EE103A1C2086
:1044D80000FB0490B8EEC00A0FF0CFFCFDEEC07AE6
:1044E80017EE903A2AF814300134082CE9D1CDE7B8
:1044F8000133082B20F80E2001F10C0111D02748B8
:10450800B1F9042030F91340B1F806C094424FEADB
:10451800430E8146ECDB0FFA8CF2A242A8BF22467A
:10452800E6E7284B1B78012B01D0192B0AD11D4B2C
:104538001B885A0706D498F80980B8FA88F84FEA11
:10454800581801E04FF00008049B1C78002C43D059
:104558001D4B1C78002C3FD01C4B93F800A04FF04B
:10456800000B1B4A12780BEB0A0393425C4633DCC0
:104578005FFA8BF0B8F1000F01D0002101E039F8A3
:1045880013100FF0CFF80BF1010BEAE7E62C00202F
:10459800A0500020606D0020C8230020E82C0020D7
:1045A8006C7600206A760020746E0020BC500020D3
:1045B800CC1B0020B01E0020842E0020746A00202E
:1045C800F304353FBC6B0020B06D0020B16D0020B6
:1045D800B26D00204425002033689B060DD5E0B25B
:1045E80004F10108B9F800100FF09CF85FFA88F0A0
:1045F800B9F8021002340FF095F83368D8027FF545
:1046080038AFDFF8DC92E4B24FF0000804EB0800A2
:10461800C0B239F8021F0FF085F8B8F10D0F08F194
:1046280001033FF426AF9846F0E79D4B93F800A0AE
:10463800BAF1000F40F02E813368190340F12A8146
:10464800984C16F0D5FB2378033B052B804689460A
:104658001DD8954B9B7833B1012B09D106F0AAFBE5
:10466800C0F17F0005E0D5F85C020EF0E3FF00E042
:1046780050468E4A95F8601213680B44B3F5807F54
:10468800A8BF4FF480738342D4BF136010602378AF
:10469800023B092B00F2EC80DFE813F00A0014005B
:1046A8004B0069007D009400A500B400D100DB0038
:1046B8007E4B00221A607E4B1A607E4A12685A604E
:1046C80003239DE07B4B7A4A196853686433994207
:1046D800164640F2CD80402009F0C1F8002840F08D
:1046E800C7804025744B3268DFF8C481985C1F4648
:1046F80068B106F06FFB6D4A1368013B1360D8F888
:104708000030013D03F10103C8F80030EAD13368F5
:10471800674DFE5C002E40F0AB80684B68481A6815
:10472800684909F029FA4FF0FF336B602E600423C3
:1047380066E0654B019303F10C0249200292009058
:10474800A3F10A025021023306F0BCFB002840F016
:104758008F80336813F080024FF0FF31544B03D041
:1047680083E8030005234BE01A60596028E0574AA4
:1047780002230021009301910291482002F10803CD
:1047880006F0A0FB002873D1494B4FF0FF321860A8
:104798005A60062334E00B2300934D4B019303F139
:1047A8000C0202924720A3F108020021043306F00C
:1047B80089FB00285CD13E4B4FF0FF3218605A60ED
:1047C80007231DE0434A052300210093019102912C
:1047D800532002F1080306F075FB002848D1344B3A
:1047E800186008230CE005F0AFFF002840D009F05E
:1047F80093F800283CD0384B4FF480521A800A2393
:10480800237035E03B689A0316D5B5F862329BB938
:10481800324B0E20D3F86432109310A9CDE91289D7
:1048280006F000FB2C4B4FF480521A800A232370A9
:104838004046494606F0B2FC05F054FF18E095F8EA
:104848006832002BF4D03B689B03F1D40923237012
:10485800F2E7184B1A68164B5B68C8339A4203D9BB
:1048680009F042F80123CBE709F056F80028F7D100
:1048780009F024F870B1012323700BE0F0EE477AB9
:10488800FFF778B81EB128462F46FEF7D3BD374646
:10489800FEF790BE19B0BDEC088BBDE8F08F00BFE5
:1048A8007376002034300020802E0020C0230020A2
:1048B800B8230020BC50002044430208A023002055
:1048C800B06B0208BB6B02089E430208004702084F
:1048D8001847020894470208B4230020C823002080
:1048E8009A4F00202DE9F04F2DED028B99B0CDE9BC
:1048F800020116F093FBB24B1B78002B41F03D8769
:10490800B04E33685A0541F13887AF4C2378002BF5
:1049180000F0F681AD4963680A68D31A7C2B884693
:1049280040F2EE81237AAA4D626001332372032795
:10493800C7F12700C0B20AF077FC55F8040F4FF40E
:104948007A735843A34B9B8990FBF3F000B20AF0AB
:1049580059FC013FECD1A04D30200AF065FC95EDE3
:10496800450A1DF091FF00B20AF04CFC0AF054FC15
:10497800237A9B0733D1944B5A6841F288339A4281
:104988001AD9D5ED427AFDEEE77A102017EE907A23
:104998004FF064090AF048FC97FBF9F528B20AF0D1
:1049A80031FC21200AF040FC09FB15700028B8BF33
:1049B800404200B20AF026FC14200AF035FC874B6E
:1049C800B3F904000A2390FBF3F00AF01BFC1C2047
:1049D8000AF02AFC00200AF015FC0AF01DFC237AD4
:1049E8005D0740F0698102200AF01EFC7C4BD86903
:1049F8006423323090FBF3F000B20AF003FC794BE9
:104A08000320B3F906500AF00FFC774B1B885807B0
:104A18004FF0050795FBF7F5ADB209D51CF02CFA58
:104A280020B9336813F0100F18BF002528B204E02E
:104A38006E4B9889B0FBF7F000B20AF0E3FB3368DD
:104A4800990767D56A4F65896A4E397832882D018A
:104A58006423ADB203FB02124B00B2FBF3F345EA49
:104A68000325ADB2C3F303231D4306200AF0DCFB84
:104A780028B20AF0C7FB63893A7801339BB293FBEB
:104A8800F2F102FB11336381237E012B05D139201A
:104A98000AF0CAFBB6F900001FE035886E236B43A5
:104AA800152593FBF5F5484B5B7EADB20BB195FB35
:104AB800F2F53A200AF0B8FB6427B5FBF7F630B2F6
:104AC8000AF0A0FB07FB16553B200AF0ADFBA8B285
:104AD800451D0A2095FBF0F000B20AF093FB282050
:104AE8000AF0A2FB444B0A201B6893FBF0F000B2CB
:104AF8000AF088FB04200AF097FB3C4B9B8913B112
:104B080013F022FD03E03D4B186880F3100000B25B
:104B18000AF078FB3A4B1B685A0640F1C280394FBD
:104B2800394E3B6813F0020F1DD011200AF07CFBB0
:104B3800308C364B4FF4F36510FB05F090FBF3F027
:104B480000B20AF05FFB19200AF06EFB308C10FBF4
:104B580005F5642095FBF0F595FBF0F300FB135089
:104B680000B20AF04FFB3868336910F0020518BF2D
:104B780064254FF001001CBF93FBF5F5ADB20AF0B8
:104B880053FB28B20AF03EFB09200AF04DFB002037
:104B98000AF038FB328D7579B2F5967F09D9237AF8
:104BA80003F00F03072B04D842F20F75954228BF74
:104BB800154605200AF038FBE37D5BBB28B246E0CA
:104BC80073760020A050002038260020BC5000201A
:104BD800AC5100207C510020FC5F00206C76002046
:104BE800B4520020506F00206A7600203651002011
:104BF800A015002048510020FC2C00204451002022
:104C08009C500020646D0020686D0020A086010083
:104C18006666E63FA5F1200307EE903A1FED047A99
:104C2800F8EEE77AF6EE006AC7EE877ABEEE007A0B
:104C3800F5EEC07AF1EE10FA58BFB0EE667A77EE6C
:104C4800877AFDEEE77ACDED057ABDF914000AF012
:104C5800D9FA0023089309933B689B0704D494F876
:104C68002020B44B012A08D1012384F82030B368EE
:104C78000893F368099308A81AE0DFEDAF6A93ED8B
:104C8800037AD3ED047A27EE267A67EEA67ABDEE8C
:104C9800C77AFDEEE77A8DED0E7ACDED0F7A0EA884
:104CA80006E0A64A92E803000EAB83E80300184624
:104CB80016F07AFD0AF0B0FA237A282B20D19D4B02
:104CC800D8F8000000221A723C274FF47A73B0FB20
:104CD800F3F617200AF0A8FAB6FBF7F5B5FBF7F0DC
:104CE80007FB1050000200B20AF08CFA18200AF0F4
:104CF8009BFA07FB156000B20AF084FA0AF08CFAF6
:104D080094F82130002B00F00E828A4C94F822305F
:104D18002646032B00F20782DFE813F00400100098
:104D2800BE01D401606A0EF088FC002800F0FB8107
:104D3800804B00229A62012001F03BBBD4E90C238E
:104D4800DDE90201801A61EB0301002908BFB0F513
:104D58007A6F0ED316F00AFD0020CCE1BD6A012D52
:104D68000DDC6B1C786ABB620EF061FC3D4485F873
:104D78003800706A6F4F0EF060FC0028EED1A26A0E
:104D88006C4B012A40F3CF8193F8382012F07F0151
:104D980040F07D8193F839208A2A04D08E2A00F0C9
:104DA800E98001F005BB664A1268550641F10083A7
:104DB8006449DFED657A4A7983F85420634ADFED68
:104DC800646A92ED457A77EE277AF4EEE67AF1EEA8
:104DD80010FA48BFF0EE667AFDEEE77A17EE902AF1
:104DE800F0EE087A27EE277ADFED5A7A84F8512018
:104DF80087EE277A121284F85220DFED577A77EE81
:104E0800277AF4EEE67AF1EE10FA48BFF0EE667A09
:104E1800FDEEE77A17EE902A84F853204F4A12687D
:104E2800900703D42D2283F8552079E00A79D1F828
:104E380008E0DFF83CC14A48CE68022A0CBF33229A
:104E4800322283F855209EFBF0F30CFB03E503EBBD
:104E58008303444A96FBF0F0062703EB83037D4364
:104E68009B0095FBF2F802FB185543FA88F8314B82
:104E78000CFB006C00EB8000642407FB0CF795FB2F
:104E8800F4F500EB800083F846502D1283F8475064
:104E9800800097FBF2F502FB157292FBF4F283F89F
:104EA8004B20121240FA85F083F84C20B1F92020EB
:104EB80080B283F8490002EBC202000A83F84A0074
:104EC80092004FF47A7092FBF0F283F84120C2F31B
:104ED800072283F84220244A128883F84D20120AB8
:104EE80083F84E200A6992FBF4F202F5FA7292B244
:104EF80083F84F20120A83F850201C4A1FFA88F8BA
:104F08004FEADE7E83F84480F60F4FEA18281288AD
:104F180083F843E083F8458083F8486083F8562097
:104F2800044B03F13A029A662C2283F86C2001F0B4
:104F38003DBA00BF382600208096184BBC470208AF
:104F48009C500020686D00200060EA46FC5F00204D
:104F5800000000000000C8420000F042646D00201C
:104F68008096980040420F00822D0020842D00205A
:104F7800806967FFAF4AB048128883F86F1083F8DA
:104F88007110D1B2120A83F88B1083F88C2083F841
:104F9800811083F88220D3F89C1002689D7E511AF4
:104FA8004FF47A726A4391420DD30268C3F89C2089
:104FB80093F8A020013A012A9FBF102283F86F209E
:104FC800022283F871209D4B9FED9D6A1A689FED20
:104FD8009D7ADFED9D6A9D4B0A2192FBF1F284F8E0
:104FE8008920121284F88A20994A1B68D2ED427AE5
:104FF80093FBF1F3C7EE867A84F88D301B1284F8A0
:105008008E3077EE877A92ED457AF4EEE67AF1EE15
:1050180010FA48BFF0EE667AFDEEE77A17EE903A9E
:10502800DFED8C7A84F8873077EE277A1B12F4EE5E
:10503800E67AF1EE10FA48BFF0EE667AFDEEE77A0E
:1050480084F8883017EE903AF0EE087A27EE277A3F
:10505800DFED817A84F88F3087EE067A1B1284F8A8
:10506800903077EE277AF4EEE67AF1EE10FA48BF40
:10507800F0EE667AFDEEE77A17EE903A84F8913012
:10508800764BA3662C2384F86C3001F08FB97F2A05
:105098007FF43BAE01F08CB9D4E90C23DDE90201C1
:1050A800801A61EB03010B4600210246994241F246
:1050B800873008BF904236D2694B002283F8A1207E
:1050C800032018E0DDE90223002B08BFB2F5FA6FD0
:1050D80029D396F86C50624C96F8A12096F8A23025
:1050E80075B90133606A84F8A23011460EF0A8FA47
:1050F80016F03CFB2846DDE9022316F045FB12E0DA
:10510800A16E606A097801330A4484F8A23084F8F1
:10511800A1200EF095FAA36E0133A36694F86C30C3
:10512800013B84F86C304E4C434B94F8A3201E6826
:105138009A46002A00F02A82D4F8A430002B00F006
:10514800258294F8A830013B012B00F21F82D4F885
:10515800A400434D0EF071FAE0B1D5F8A4000EF0AA
:1051680066FA95F8A930DAF800807E2B07460ED14A
:1051780002231B2885F8A83009D1D5F8A4000EF021
:105188005CFA20B90123C5F8AC8085F8B03084F802
:10519800A970DCE7D5F8AC20DAF800309B1A41F6A4
:1051A8005832934222D9032385F8A830EEE12D4ADC
:1051B80032F8135015B92B464FF403650133B5F592
:1051C800C06FDBB200F0068122D9B5F5006F00F0A0
:1051D8000C8140F28E80B5F5036F40F09B8084F817
:1051E800B130214B1B68590600F1A38094F8B01028
:1051F80094F8B130002900F0C781DAF80020921B3A
:10520800012AD4D984F8B130002384F8B030BDE144
:10521800B5F5047F00F0AB8028D8B5F5887F00F09D
:105228001D81B5F5007F00F0B780B5F5807FE1D12D
:10523800C0E000BF48510020BC500020FC2C0020DA
:105248000000C8420000FA4300000000445100205A
:10525800FC5F00200060EA460000F042A52600201E
:10526800382600206C6D02089C500020B5F5826F2E
:1052780000F01D81B5F5846F69D0B5F5806FB9D19F
:1052880084F8B130B14B1A8842F2107312F0010F52
:1052980042F2117108BF1946AD4B95071B6848BF0C
:1052A8000231500748BF0431DA0748BF0A319D0769
:1052B80048BF1431180548BF2831DA0548BF2831DE
:1052C8005D0748BF6431180748BFC8319A0648BF10
:1052D80001F5C871DD0648BF01F57A71D80448BFE9
:1052E80001F5FA615A0648BF01F57A614FF480600A
:1052F800AEE0B5F5E26F00F0CA80B5F5E46F00F0F6
:10530800CB80B5F5E06F7FF475AF924A84F8B13081
:10531800516BC5E004D8B5F5026F00F0F08069E77D
:10532800B5F5046F00F0A980B5F5116F00F0F780AE
:1053380060E7894B1B689A077FF558AF874B198C34
:105348004FF4F36311FB03F328466421F5E084F876
:10535800B130834B1B685B067FF548AF7E4B1B68FB
:1053680098077FF543AF7F4B28461988E7E084F814
:10537800B1307D4B1B6899077FF538AF7B4B5A7E60
:105388007B4B1B881AB17B4A117893FBF1F30A21F6
:105398004FF4047059435BE084F8B130724B1B68DA
:1053A8001A057FF523AF744B284619680A2391FB29
:1053B800F3F1C4E084F8B130694B1B685B077FF5F3
:1053C80015AF6E4BD3ED427AFCEEE77A284617EE1E
:1053D800901AB4E084F8B130634B1B6818057FF568
:1053E80005AF674B28461968A9E05D4A84F8B130D3
:1053F800126851067FF5FAAE574A126892077FF590
:10540800F5AE13F0010F554B11D0DA6882EAE2735A
:10541800A3EBE273002A4FF0190103EB5303B3FB2C
:10542800F1F343F0004111DA43F040410EE09B688C
:1054380083EAE371A1EBE371002B01EB51014FF01B
:105448001902B1FBF2F1B8BF41F080414FF400609E
:1054580015F086FF002384F8B030C7E684F8B13031
:105468003F4B1B685B077FF5C1AE444B93ED450A84
:105478001DF00AFA0146284661E084F8B130414B34
:10548800B3F9041001EB810128464900E0E7314AED
:1054980084F8B130916B03E02E4A84F8B130D16BB7
:1054A80064234B432846918993FBF1F1D0E784F8B4
:1054B800B1302B4B1F6817F0400713D0264B1A68E2
:1054C80012F0020F14BF4FF47A71002112F0010F8D
:1054D800224A14BF4FF4FA6300230B44517928463B
:1054E8001944B5E7204B1B681B067FF57FAE28469D
:1054F800394615F035FF1D4B83F8B07076E684F811
:10550800B130174B1B6858067FF570AE124B1B68FD
:1055180099077FF56BAE114B284619690FE084F89F
:10552800B130114B1B689A077FF560AE104B114ADA
:1055380019880A234B431178284693FBF1F115F09B
:105548000FFF0A4B002283F8B0204FE66A7600204E
:10555800706A00207C510020646D0020686D002076
:105568009C500020822D0020A050002038260020CA
:1055780048510020A0150020FC2C0020FC5F0020D2
:10558800445100206C76002084F8B13094F8B220A1
:10559800864B002A00F08781D3F8B420002A00F057
:1055A8008281DAF80060D3F8B820B21A632A40F290
:1055B8007A8193F8C020D3F8BC309D5CEB0725D5E1
:1055C8000EA815F08DFF0E9BDFF8F8815A1C0E927D
:1055D80041221A700A27B8F9021091FBF7F10EA8B8
:1055E80089B215F072FFB8F9001091FBF7F10EA817
:1055F80089B215F06AFFB8F9041091FBF7F10EA80B
:1056080089B215F062FF0EA815F028FFA80751D53A
:105618000EA815F065FF664BDFF8A0B11F6817F0FC
:1056280040071AD09BF8043043B1012B09D0022B54
:1056380014BF4FF000094FF0030904E04FF00109CF
:1056480001E04FF00209BBF92070DBF80810DBF825
:105658000C30642297FBF2F702E03B463946B94624
:10566800544A059392ED428A0E9A0DF16008501C37
:1056780048F8280D47201070404615F011FF059B8B
:1056880040461946BDEEC88A15F00AFF4046F9B2F1
:1056980015F0FAFE404618EE101A15F001FF9BF8B7
:1056A800051049EA81014046C9B215F0EDFE4046B1
:1056B80015F0D4FE290724D50EA815F011FF0E9B6E
:1056C8005A1C0E924F221A700EA8D4F8C41015F066
:1056D800E7FE0EA8D4F8C81015F0E2FE0EA8D4F81C
:1056E800CC1015F0DDFE0EA8012115F0CDFE324BD1
:1056F80019680EA801F0010115F0C6FE0EA815F0F4
:10570800ADFEAA062AD50EA815F0EAFE12F0F8FD9D
:105718000E9B5A1C0E9258221A70284B0746198D58
:105728000EA815F0D2FE87F001010EA8C9B215F037
:10573800ABFE94F8D0700EA8394615F0A5FE0EA859
:1057480094F8D11015F0A0FE0EA8002115F09CFECB
:1057580001370EA884F8D07015F080FE6B0770D55D
:105768000EA815F0BDFE164B1B68D80512D4D90437
:1057780012D4DA0612D4980612D413F0440F11D1B9
:10578800190711D4DA071FD413F0020F14BF032727
:1057980001271AE0002718E00A2716E00D2714E071
:1057A800092712E00B2710E008270EE03826002012
:1057B8009C500020FC5F0020646D0020686D002074
:1057C800706A00206C7600200227A94BB3F800808D
:1057D800A84BDB78C8F380081BB148F002085FFAD1
:1057E80088F80E9B5A1C0E9253221A70A24B1988E5
:1057F80001EB810101EB8101890089B20EA815F046
:1058080064FE9E4B196881F310010EA889B215F049
:105818005CFE9B4B1988FE2359430EA840F2FF33C8
:1058280091FBF3F1C9B215F02FFE0EA8002115F077
:105838002BFE0EA848EA870115F026FE0EA815F0E3
:105848000DFEE80623D50EA815F04AFE0E9B8D4DD9
:105858005A1C0E924E221A700EA8297815F014FEC2
:105868000EA8697815F010FE0EA8697915F00CFEDF
:105878000EA8297915F008FE0EA8A97815F004FEDF
:105888000EA8E97815F000FE0EA815F0E7FD94F8CB
:10589800C030C4F8B86001330A2193FBF1F201FB70
:1058A800123384F8C03094F8D2B0BBF1000F00F086
:1058B800F683754BD3F8D430002B00F0F083D4F87E
:1058C800D4000DF0BAFE002800F0F9806E4B6F4D41
:1058D800D3F8D4000DF0ABFEEA78002307462B700E
:1058E8000A2A7ED8DFE802F0060616261E2D344066
:1058F8004F646400FE2874D10223EB70002384F8FF
:10590800DB304FF0FF3384F8DA0084F8D83084F8BD
:10591800D93066E02B7184F8DB005D4915F090FD05
:10592800042305E084F8DC00594915F089FD0323B8
:10593800EB7056E084F8DD00554915F081FD05232C
:10594800F6E784F8DE00524915F07AFD0623EFE702
:1059580084F8DF004E4915F073FD94F8DB300BB97D
:105968000823E5E70723E3E72B7949495A1C234431
:105978002A7183F8E00015F063FD2A7994F8DB308A
:105988009A422ED1ECE794F8DF30424A404913445A
:10599800187A15F055FDB4F8D830DBB29F4214BF21
:1059A8000A230923EB702B79234483F8E07018E06D
:1059B8000A2A05D0B4F8D82083B2B3EB122F01D04D
:1059C800022300E001232B700123EB702B7932486E
:1059D8002344A0F5886183F8E1704FF488721CF0C5
:1059E800CDFD95F80080294AB8F1010F07D194F848
:1059F800DC305371138903B9538101332B816879E2
:105A0800EA7894F8DB3084F82B26013084F82D06E8
:105A180028892A79A4F830064FF00009A8781A4E88
:105A280084F81B35B8F1020F184984F82C26A4F81D
:105A3800320685F8029031D1B318FE2F93F8E12091
:105A480093F8E03081F8009043EA0223A6F818356D
:105A58004FF001038B7040F0B2844FF0FF3381F8B0
:105A6800038086F8DB9086F8D83086F8D93026E7A8
:105A78006A7600204C4F00204851002044510020F5
:105A8800F82C0020862D0020382600206E7000207B
:105A980010270020BC470208502B0020B8F1010F46
:105AA8007FF40DAF96F81F25282A00F0DF8500F255
:105AB800BB84002A3FF403AF272A00F006858249F9
:105AC80001F5C863D3E90023DDE90267B61A67EB7D
