:020000040800F2
:10000000002000100D0F0208910F020881FB01086B
:10001000910F0208910F0208910F020800000000E2
:10002000000000000000000000000000910F020826
:10003000910F020800000000910F020881A2010840
:10004000910F0208910F0208910F0208910F020808
:10005000910F0208910F020825F7000823F7000806
:1000600021F700081FF700081DF70008A5A20008E7
:1000700095A2000885A2000875A2000865A20008E4
:1000800051A200083DA20008910F0208910F02083A
:10009000910F0208910F0208910F02081BF7000848
:1000A000B5510108F5510108A55101081D5201087B
:1000B000E5510108D5510108C5510108910F020809
:1000C000910F0208910F0208910F0208910F020888
:1000D000910F020879A100086DA1000861A1000834
:1000E00019F70008910F0208910F0208910F0208FA
:1000F000910F0208910F0208910F0208910F020858
:10010000000000000000000000000000910F020845
:10011000910F0208910F0208910F0208910F020837
:1001200029A2000815A2000801A20008EDA10008FC
:10013000D7A10008910F0208000000000000000095
:10014000910F0208910F0208910F020800000000B1
:10015000000000000000000000000000000000009F
:100160000000000000000000910F0208910F02083B
:10017000910F0208000000000000000000000000D5
:0801800000000000910F0208CD
:100188002DE9F04F2DED028BAD4EAE4C0025A9B0F8
:10019800304629464FF48062257021F042F8AA4B78
:1001A800C6F80834A94BC6F800541B7886F80454DE
:1001B8007E2BC6F80C5404D011F044FC1EF0B0F9A4
:1001C80003E00FF052FC0028F6D011F039FA0020B5
:1001D80001460FF0CEF823789D4F43F001032370BA
:1001E800BB7986F810349B4B9B4C4FF47002C3F8D4
:1001F800882000230A930B93236843F480332360F9
:10020800236803F400330B930A9B01330A930B9B77
:100218001BB90A9BB3F5A04FF2D1236813F400333E
:1002280018BF01230B930B9B012B61D0DFF82482AD
:100238008A4BC8F80C30636AC6F81434636A43F012
:1002480080736362636943F4FC0328AD636103232D
:100258008DF8523041F6FF7325F8503D4FF090402D
:10026800294609F08BFF4FF6FF7329467C48ADF805
:10027800503009F083FF29467A4809F07FFF294664
:10028800794809F07BFF2946784809F077FF294625
:10029800774809F073FF28461EF0FAFC754A149B4C
:1002A8007549B3FBF1F3002582E82800734A7448C6
:1002B800D36843F08073D360724A136843F0010334
:1002C80013602946102220F0ACFF6F4B6F4A5A602A
:1002D800F02288F8232007229D601A60FB796C4A77
:1002E8005B1B18BF0123D371D3732946694A28E0E1
:1002F800694B12221A6063686360636863606368AD
:1003080043F480636360636823F47C136360636809
:1003180043F4E8136360236843F080732360226822
:100328004D4B9201FBD55A6822F003025A605A6875
:1003380042F002025A60636803F00C03082BFAD1FA
:1003480074E7564F880237F811E000F19040002317
:100358004EFA03F5ED0744BF01259D4003F1010363
:1003680042BF106095800C32102BF1D10131062963
:10037800E7D14B4B4B4D1B682B60002019F030FA2E
:100388000023494A52F8230003F1010840B117231A
:1003980083710223C37180F8088001210FF07CF873
:1003A8004346032BEDD1002019F01AFAA369DFF8B0
:1003B80090A043F00103A361002140220AF5856063
:1003C80020F02FFFFF2107220AF58D6020F029FF7A
:1003D800012000210EF0CDFF2B681B0716D5334BEB
:1003E8001A7A012A994611D893F8118009F0ACFEBF
:1003F800044658B908F1FF38B8F1090F41F22F87C0
:1004080004E09AF81230012B01F05D874FF4FA707E
:1004180019F027FF264800214FF48C7220F001FFC5
:100428000024244BE0580023234951F8332082420A
:100438004FEAC30E42D101EB0E03187942E000BF28
:10044800D8140020D48000204921010800F00308B6
:10045800C446002000ED00E0001002400005FA0547
:100468000004004800080048000C0048001000483C
:1004780000140048084D002040420F00F0ED00E055
:10048800F0180020001000E010E000E03F19010023
:1004980020120020144D00200020024048290208A4
:1004A800DC26002084450020F8570208D44B0020A1
:1004B80048190020542902080C59020801330A2B54
:1004C800B2D100200C3419F0D5F8CC2CA9D15E4C4F
:1004D80004F1CC0820790EF057FF0C3414F8041CF2
:1004E80014F8032C0EF09DFF4445F3D10022574920
:1004F800002353540132112AF9D1554AFF21995446
:100508000133072BF9D12C6852483C22002120F0F6
:1005180088FE04F0400905224FF000084E4B4D4874
:1005280018F803100C2303FB08F31954B9F1000F52
:1005380007D11E3901299FBFFF2102F1FF3219544B
:10054800D2B208F10108B8F1050FE7D1434B86F89C
:10055800A02519784248CA00BB1893F8D9E080F85A
:1005680000E093F8DAE03F4893F8AD3180F800E016
:1005780013B9C4F3401000E0012086F8A10510B9B2
:10058800C4F3005300E00123C6F8A4350023364C19
:1005980040F2DC5624F813600133082BF7D118B960
:1005A8001739022926D81AE01744304BD7F8DC400F
:1005B80097F8D8001870002CF2D000228242EFDAA7
:1005C80006235343E6182A4FD6F800C043F807C05D
:1005D80003EB070EB388AEF804300132EEE715F0EE
:1005E8001BF8224B1B782BB1224B0122C3F8A42500
:1005F80083F8A12515F02CFE00210DA81C2220F05F
:1006080010FE1D4B197801290AD11C488DF841109C
:1006180020222123027043708DF84E208DF84F3030
:10062800174B1B68C3F300168DF848600023154A62
:1006380002EBC30191F90210022925D132F83330B7
:10064800003318BF012323E054290208601A002050
:10065800711A0020486E00204F870208B44300201A
:10066800E93F0020EA3F002030260020E83F002034
:10067800EB3F0020D8140020E9470020EA4700207B
:100688009C3F00201E6E00200133052BCFD1002394
:100698008DF83B302B68C3F340028DF83D20C3F33F
:1006A80080128DF83F20C3F340328DF83520C3F314
:1006B800C0328DF8382013F4006204D0AD4A927A23
:1006C800541E62426241AC4C8DF83920C3F300429B
:1006D8008DF8402094F8A125003218BF01228DF82A
:1006E8004220C3F300528DF84320A44A1188ADF884
:1006F8004610A3495288ADF844200A7A8DF849205B
:10070800501E02288CBF002001208DF83E00C888AA
:10071800ADF84A00D80403F00109C3F3C00748BF85
:10072800984B898848BF9B88ADF84C1048BFADF8F6
:100738004C30042A8DF836908DF8377009D14FF077
:10074800000A4FF480508DF83EA00FF0F3F8ADF892
:100758004CA02B688C48C3F300728DF834208B4A68
:100768001901527A84F8A82548BF00234FF00001E8
:100778004FF0900248BF8DF8423020F052FD7300D0
:10078800B9F1000F00D107B10133814A52F8233083
:100798000393002302931D46039B33F815304FF64D
:1007A800FF72934200F020829DF83B10DAB21B0AD8
:1007B8005FFA83FA39B177480C2101FB0201097C01
:1007C8002A39012948D99DF83F1039B171480C21BF
:1007D80001FB0201C868704988423DD09DF840106D
:1007E80061B16C480C2101FB020101F10C00CE68DB
:1007F8006A498E4230D0017918292DD09DF83D10D4
:1008080031B164480C2101FB0201097C142923D071
:100818009DF8381031B15F480C2101FB0201097CB9
:10082800222919D09DF8391031B15A480C2101FB01
:100838000201097C15290FD09DF84110B1B1554826
:100848000C2101FB02019DF84E00097C884203D06F
:100858009DF84F00884209D14B4A5378127800928C
:100868000322019212200121AAB218E1022B02D11F
:100878009DF8353003E0012B04D19DF83630002B6C
:1008880000F0AE819DF8423083B19DF848306BB9D5
:10089800A2F10E03012B09D83E490C2303FB0213D6
:1008A800D9683F4B994208BF4FF0040A3D4B0C27CB
:1008B80007FB02379DF8433033B19DF848301BB928
:1008C800131F032B40F24D81BAF1010F72D1FF23A0
:1008D80084F8003684F801362E4BC4F814760C26BA
:1008E80006FB02364FF00009307C84F8089684F83D
:1008F800AC95C4F8B095C4F8B495C4F8B895C4F8E4
:10090800FC9584F8029684F8039684F804960EF011
:100918003BFD0222827180F807A080F80890317DA3
:100928000EF0BAFDF068717C4A460EF06FFC38464E
:100938004946524619F018FC1B491C4BC4F8183696
:100948001B4BC4F81C360A1D3846C4F8209619F00B
:1009580044FB0D4A937802EBC303202159721379A3
:10096800013313715378127813208DE80402494635
:10097800F2E000BFE6450020D8140020D42700206C
:10098800924300208C43002060280020C4460020A9
:10099800FC5802084829020800040040002C0140C5
:1009A8000040014054290208F01A0020D9ED00083F
:1009B80059EF0008BAF1020F60D19DF80810DFF86E
:1009C8000CC3BC48CDF81CC04FF01C0909FB01F949
:1009D8000C260CEB090306FB02064FF0010B4FF047
:1009E800000A83F8091683F80AA683F812A683F882
:1009F80008B6C3F8147606F10C02307C059304920D
:100A080006910EF0C1FC069980F806B059440172AF
:100A180080F807B0317D0EF03FFD049AF0685179F7
:100A280052460EF0F3FB5A463846514619F09CFBE5
:100A3800059BDDF81CC0A049C3F8181603F5C3626E
:100A4800E1449E4B536009F5C361C2F808A03846DB
:100A58000A1D19F0C2FA9A4A937802EBC30340219F
:100A68005972D3785B44D370029B5B4402935378EA
:100A7800127813208DE8040851466DE0BAF1030F8F
:100A88006CD18F4E96F801A0BAF10B0FB44609D974
:100A980033780093012101911220AAB253460EF037
:100AA8004FFC9DE09DF849B0BDF84AE0BDF84C30D8
:100AB8009DF834000BF1FF32032A0FD8DFE802F06B
:100AC80002060A12DFF81C9208210FE0DFF81892DC
:100AD80018210BE0DFF81492482107E0DFF81092A4
:100AE800012103E0DFF80C9218210023754A0090D9
:100AF8004A433846B2FBFEF292B2CDF810C00EF06F
:100B0800EFFC714B9DF83E2043F82A00DDF810C039
:100B1800C0F80C906A4B22B19A7803EBC2031922F1
:100B280007E09A78BBF1040F03EBC2030CBF0D2258
:100B380009225A72B278737801320CEBC20C06F8AB
:100B4800323001333278CCF80470DBB27370009223
:100B58000222019213200021AAB23BE0BAF1040F4D
:100B68003ED1574E96F800A0BAF1070F1FFA85F943
:100B780008D9022273780192CDF800A01220012131
:100B88004A468CE79DF83410BDF844204D4B00913F
:100B980093FBF2F20121BDF8463092B238460EF0CE
:100BA8009FFC4A4B03EB8A030A22C3F8E806B37892
:100BB800013306EBC30113204A70327806F833205C
:100BC8000132D2B24F6032707378009203220192E0
:100BD80000214A460EF0B4FB394A937801339370EA
:100BE8000135112D7FF4D8AD394B3A4E1A78A2F160
:100BF80017030024022B347019D8374D2B19D3ED65
:100C0800007AF5EE407AF1EE10FA04D1334F3B68E2
:100C1800DA042DD421E00FCBC035254485E80F0038
:100C2800337810340133C02C3370E6D1EEE7214B12
:100C380003EBC203D3F8A8E193F8AC713770BEF1A7
:100C4800000FE3D0BC42E1DA254D23011D44734473
:100C58000FCB013485E80F00F4E715F0DDFA9DF8B5
:100C68003E301A4D002B47D1012385F8883843E0E0
:100C780031780129F1D91A4A02F1080302EB01126D
:100C8800183210339342E8D053ED047AB6EE007A66
:100C980067EE877A43ED047A53ED057A67EE877A33
:100CA80043ED057A53ED037A67EE877A43ED037ACD
:100CB800E7E700BF4829020851F20008B1ED000833
:100CC8006028002040420F0044430020D814002030
:100CD800B443002040430020E01B0020844500204E
:100CE800A01C002079F000084DF0000815F000085D
:100CF80099EF0008A9EF0008794E022000210EF0B4
:100D080038FB33783F2043F0040333700EF03CFB8C
:100D18000122C5F88C0885F89028029640B1112266
:100D280082710222C2710022027201210EF0B4FB0C
:100D3800002019F0B9FA1DF0EDFC6A4B1B78012B65
:100D48001CD0694CDFF8CCA120790EF01DFB039074
:100D580060790EF019FB8346A07918F08BFC2068A7
:100D68006249634A90420CBF0A461022130F039B44
:100D78001BD1DAF8301021F010011AE03B685B064D
:100D8800DFD595F8A03500225A4950561F2802BFD2
:100D9800FF20505403F1FF3302F10C0208BFDBB20D
:100DA8003C2AF1D185F8A035CBE7DAF8301021F0EC
:100DB8002001CAF83010DAF830100A434FF0010960
:100DC800CAF830200D2609229E71DA7183F808903E
:100DD80018463E2104220EF024FB0A238BF80660F5
:100DE8008BF807308BF8089058463E2104220EF005
:100DF80018FB2368E07919683F4C21F0010119605C
:100E08001A683E49114019603D4A3E49002818BFFA
:100E18000A461A611A68002142EA09021A609960B2
:100E2800D96099609A6842F400429A601A681A6018
:100E38005A6822F0784222F400425A601A6822F472
:100E480000321A601A6842EA09021A602E4B83F8C7
:100E58000190197099704FF014093B68039320466C
:100E68004A4603F4004B03F4006620F0DAF9039BCA
:100E780013F0020F204618BF84F80090BBF1000F52
:100E880001D0222363710EB11523C3734FF0000BF9
:100E98001E4C5E4614F8010C00284CD00EF074FA73
:100EA800062282714FF0000906F10F02C27180F824
:100EB800089014F8010C0EF067FA13210EF0ECFA02
:100EC80014F801EC4A46124800F51E7C51001CF843
:100ED80012C0F44520D1421892F8792220E000BFD0
:100EE800D4800020E94700202012002020000010B4
:100EF80000580040486E0020FA450020FFE0CF006F
:100F08001A0310A0300E5000A04C0020FB45002012
:100F180048290208001002400132272AD3D10022B2
:100F280007212270E1700BF10102012184F801B060
:100F3800A1705FFA82FB0136042E04F10504A9D1E1
:100F4800DAF82C30724C23F4F873CAF82C30DAF83B
:100F58002C3043F4D873CAF82C303C2018F08AFBA4
:100F6800212018F087FB6A481DF0DDFD14A81DF04C
:100F7800AFFD684B1493684B1593BBF1010F4FF00D
:100F8800000394BF1A46802219924FF480721A9275
:100F98004FF480621B92202220461C9214A94FF421
:100FA8000052169318931D921E93ADF85CB01DF075
:100FB8009CFD236843F001032360584CA36823F089
:100FC8004053A360A36843F08053A3600A2019F03C
:100FD80048F9A36823F08043A360A368A360A368CB
:100FE80043F00043A360A3684C4A002BFBDB9368E3
:100FF8004B4923F040539360936843F00053936048
:101008008868484B034043F468338B60D168464B8B
:1010180046480B4043F40053D360136B23F00F0191
:101028000BF1FF330B43136300F1140E0123C27855
:10103800002A00F093805C1C042B417890F804C0CF
:10104800DFF8D890E4B20FD803EB43035A00D9F87D
:1010580030B01F2393402BEA030A01FA02F34AEA4D
:101068000303C9F8303039E0092B12D84FF0060ACB
:10107800053B0AFB03F3D9F834204FF01F0A0AFA9C
:1010880003FA22EA0A0201FA03F31343C9F83430D7
:1010980024E00E2B4FF0060A10D80A3B0AFB03F394
:1010A800D9F838204FF01F0A0AFA03FA22EA0A028E
:1010B80001FA03F31343C9F838300FE00F3B0AFB7A
:1010C80003F3D9F83C204FF01F0A0AFA03FA22EA80
:1010D8000A0201FA03F31343C9F83C300929DFF87F
:1010E8003C9025D9D9F81830A1F10A0303EB430342
:1010F800D9F8181007229A4021EA0202C9F81820E4
:10110800D9F818200CFA03F31343C9F8183024E06F
:1011180008040240400100500E4600200001005023
:1011280000030050E010FCFF07C0FFFDFA45002057
:10113800D9F814304B1E03EB4302D9F814103823A6
:10114800934021EA0303C9F81430D9F81410033284
:101158000CFA02F30B43C9F81430234605307045E6
:101168007FF465AFB04B9A6842F001029A601A4664
:101178001168AD4BCE07FBD5DA6822F00202DA60BF
:10118800DA6842F00202DA60DA6842F00102DA60F4
:101198009A6842F004029A6008F0D6FF044688B9BB
:1011A800032021460EF0E5F8204618F019FB18F048
:1011B8000AFB642019F055F8B8F10108F7D1404648
:1011C80018F00EFB15F040FA0023C5F894384FF0DC
:1011D800FF33C5F898383B689C0332D5C82019F00E
:1011E80040F8AE200CF05AFC08B10BF0A9FA85F8CB
:1011F8009C08C82019F035F88C4BC5F8A03808238E
:1012080085F8A43815230022894C85F8A5380123D0
:1012180085F8A828C5F8943885F8C02885F8C13815
:10122800C5F8AC48C5F8B04818F0C8FF7CA3D3E9A6
:10123800002312EB000843EB0109C4E90A890BF00B
:10124800EEFA3B687B4C180642BF7B4B7B4A1A6020
:1012580000215C2220461FF0E4FF232019F001F84A
:10126800752001210DF1260208F0E2F8002863D06C
:10127800734B6363734BA363432384F848300020A4
:1012880001210DF1270208F0D3F89DF8273003F06B
:101298007E038DF8273040B1682B06D1012384F8EE
:1012A8002D301D2384F8483046E09DF8263003F0A1
:1012B8007E03682B8DF8263039D10223062084F866
:1012C8002D3014AA636B014698479DF853309DF85A
:1012D800552003F001035B0002F0010243EA820299
:1012E8009DF8513003F00103134312D05AB2012A7A
:1012F80001D1002302E0022A03D1012384F82E3011
:101308001AE003F00303032BF7D0032018F0DAFFE9
:1013180012E0484B0C205B6B01210CAA98479DF802
:10132800303013F00F03F0D0042BE6D1E1E7702B37
:1013380004BF042384F82D3094F82D70636CC5F82D
:10134800D038414B3B4A2363022F4FF0000384F807
:101358002C3001BF3D4B13603D4B536001BF3D4BEB
:10136800D3603D4B936114BF1F4604234FF0000127
:1013780008BF82F82C300920009101913A460B46AB
:101388000DF0DEFF002F00F0A380344B1F70344FA8
:1013980001201AF0DFFDFA78B87984F82800BB88B4
:1013A800B9784AB100280CBF7D234FF47A734A1EDE
:1013B80084F82A204B4302E01E4981F82A20DFF8EE
:1013C8007480E3644046236898473B780BB188F8FB
:1013D8002C30244BC5F8D438C5F8D838C5F8DC38D3
:1013E800FB791BB93B89002B46D158E01E4B1F4A9D
:1013F800C3F8D4284FF000081D4BF979E26C9FED33
:101408001D0A1C2000FB0830543343F82800002331
:1014180008F1010811F04EFAB8F1030FECD1E1E739
:10142800404B4C000000000000010050102C020846
:10143800781D0020E0460020C4470020C126002077
:1014480039940008CB9500082C2C0208CD97000889
:10145800D38E0008BB8E000890C1793D98450020C6
:101468004C26002015210108D8140020CF2001089F
:10147800B81D0020F304353FBA4BC5F8D83800250D
:10148800B94BE16C3A891C2000FB0530543343F812
:1014980025007B89013511F073FA032DF0D1BB8942
:1014A8009BB1B24BAF4AC3F8DC280025B04BE16CC6
:1014B800BA891C2000FB0530543343F82500FB890A
:1014C800013511F05DFA032DF0D115F0E9F910B9E5
:1014D800012018F0F7FE042000210DF04AFF029BBE
:1014E800029A1B78002043F00203137018F078F971
:1014F8000A2518F068F9192018F0B3FE9D4B5B68AF
:10150800D90302D4012018F0CFFE192018F0A9FE43
:10151800013D002018F0C8FE15F0FF05E9D1284666
:1015280018F05EF914F03AF9934BDFED947A1B7CCE
:10153800934E00EE103AB8EEC00A002420EE270AB7
:1015480011F0B0F98F4B83ED000A8F4B1C605C6083
:101558009C601AF03BF8FF211C2230461FF061FE08
:101568008A498B4B0F683570012217F002051A70F3
:1015780008EE104A304606D072700222B270042279
:101588001A701A22F2701A787D4E541C1421E4B293
:1015980081544FF0170E911CC9B200F804E017F0FF
:1015A8000A04197011D04FF0040E06F801E0D11C9E
:1015B800C9B24FF0050E06F801E0964474490432AA
:1015C800D2B281F800E00621B154724E31688A0621
:1015D80041BF1A7802F1010E83F800E04FF0070EC0
:1015E80048BF00F802E017F0040F01F0800E6A4FC0
:1015F80005D13A68D20611D5BEF1000F13D01A787A
:101608004FF0030C00F802C002F1020C0132D2B212
:1016180083F800C04FF0180C00F802C0BEF1000FAC
:1016280001D00A2C06D03A68D20618D5BDB1BEF151
:10163800000F14D01A7809248454541CE4B20825E5
:101648000555941CE4B213250555D41CE4B21525A0
:101658000555541D0432D2B21C70162484543D68BA
:10166800EC060ED51A780A248454541CE4B24FF0C0
:101678000E0E00F804E0D41C0232D2B21C701B24F7
:1016880084546A0641BF1A78541C1C70192448BF38
:1016980084541A780B258554CD0348BF3C4D02F17C
:1016A8000104E4B248BF02321C7041BF2A70344AB8
:1016B8000C2515551A780F25541CE4B285544D0590
:1016C8001C7008D5354D2D7A2DB1314D02322A7056
:1016D8002B4A102515550C0348BF1A78234D304C5A
:1016E800DFF8D4A041BF511C1970112181541A7818
:1016F800511C19701223835400214FF41972294880
:101708001FF08FFD17F032FD274BC5F8003A002374
:1017180085F8083A0D2385F8043A1E2385F8053A1A
:10172800D5F894382149DFF894E0C4F804A0042BD4
:101738001FBF5A1C05EB8303C5F8942805F52062E2
:1017480018BFC3F8B0281A4BC4F808E000221A8062
:101758009A70184BC5F8103ACB8A85F80C2A98B2BB
:101768002EE000BFCF200108181E0020D81400204A
:10177800781E0020903F00204064002035FA8E3CFF
:10178800A42600206C6400202864002080450020E6
:10179800C0260020844500209C3F0020AC1F00206C
:1017A8002C410020184F0020302C0208D44B002078
:1017B8002C4C0020A0860100998701089587010814
:1017C8008846CDF808E0DFF84C93B149D9F800E035
:1017D800DFF844C321F812000EF5967E4CF822E09B
:1017E8000132122AEFD1D6F800E01EF4805F08BF5C
:1017F800B8F81C00C880A74901F1500C11F8022C58
:10180800AAB90A784878824211D20AB1013A00E0AE
:10181800421C02EB820211F8010CDFF874B202EBF1
:10182800820202F56172043092B22BF81020043162
:101838006145E3D11EF0080F00F0D28198F8082026
:10184800092A00F2C681DFE812F00A000A006800DF
:101858009200AA00C800C80005016D0199018E49CF
:101868008E4B0C60012ADFF8B4E28D488D490DD10A
:101878004FF0030C8EF800C00A704FF0070E0C22D0
:101888001A7080F800E042F6F8220AE002228EF888
:1018980000200322027000220A7007221A7045F203
:1018A800F0525A80804B63604020804BA36013F055
:1018B800A7FD002800F08D81028802F0400B1FFA76
:1018C8008BF33BB112F0140F14BF4FF0010B4FF024
:1018D800000B00E09B46BBF1000F14BF032301235C
:1018E80090F902000093002301934021704A4FF4BD
:1018F800E13313F02BFDBBF1000F01D0C5F85C0AF2
:1019080098F8133021786B4A013BDBB29942137087
:1019180000F25B810023137057E10A221B0193FB3D
:10192800F2F30022A3F5B063634941F82230013293
:10193800122AF9D142F6F8236380604B6360402095
:101948005F4B2270A36013F05BFD002800F041811B
:1019580098F8093090F90200002B14BF07230623DA
:1019680001228DE80C004021564A574B8CE0102389
:10197800237042F6F8236380544B63604020544B35
:10198800A36013F03DFD002800F02381012100230E
:1019980090F902004F4A8DE80A00402172E00823BE
:1019A800237042F6F82363804B4B636040204B4B17
:1019B800A36013F025FD002800F00B81012200230D
:1019C80090F9020040218DE80C00454A4FF4E133BC
:1019D80013F0BCFCC5F8600AF7E04248424900230E
:1019E8004FF00C0E062A84F800E003700B700DD03F
:1019F8003E4A13703E4B1B221A703E4B83F800E0A0
:101A08003D4B05221A704FF4E1380BE03749DFF8F7
:101A180010810B70364B21211970364B83F800E08A
:101A2800354B1A7042F6F8236380344B63604020CC
:101A3800334BA36013F0E4FC002800F0CA800123B4
:101A48004FF0000B90F902002E4A8DE8080840215B
:101A5800434619E00A23237044F6206363802A4B27
:101A680063604020294BA36013F0CAFC002800F0F3
:101A7800B08001234FF0000C90F90200244A8DE851
:101A8800081040214FF4E13313F060FC9DE000BFE3
:101A9800F84B00202A700020A84900202C41002083
:101AA800AC49002057490020C1840108E984010895
:101AB800998A0108A6490020B0490020C18501087B
:101AC800F5850108ED8A0108A0860100298401082E
:101AD80039840108E9890108A5830108B983010847
:101AE8009D89010848450020594500205845002097
:101AF8007B450020D24B00207C4500203D63010837
:101B0800556301086D630108A9880108B9880108AF
:101B1800A18C01089C490020EC1E0020A749002048
:101B280090D003001023237041F27C5363806A4BEA
:101B380063606A4BA3606A4B4FF0000883F800802B
:101B4800684B282240201A7013F05AFC002840D015
:101B5800032390F90200644A8DE808014021634B91
:101B680013F0F4FB0121C5F8640A18F08BFDD5F8D1
:101B7800640AB0EB080018BF012029E00A221B0103
:101B880093FBF2F30022A3F5B063594941F82230E0
:101B98000132112AF9D142F6F8236380554B63606C
:101BA8004020554B2270A36013F02AFC88B1032310
:101BB8004FF0000E90F90200504A8DE8084040218D
:101BC8004F4B13F0C3FB4F4B1860003018BF012078
:101BD80030B908200DF0AEFE029BC4F804A0A36043
:101BE800326850040BD51223237044F620636380B7
:101BF800454B6360454BA360454BC5F8103A42F22C
:101C08000103134002F4005173B144F62060414BC4
:101C1800608019B1082119703F4904E0D10703D544
:101C2800102119703D495960120640F18B803C4CD7
:101C38003C4B63603C4B23603C4B4FF00008C3F8BF
:101C48000480C3F8088084F8118009F0E7FED9F809
:101C5800003084F813804046236209F031FF22687F
:101C6800334B11780C224A4398469A5C022A03D1D6
:101C7800012009F025FF61E0012A5FD1022013F05D
:101C8800BFFB18B980200DF055FE57E00179637C41
:101C9800284A12F803E08E4504D00133DBB2042B46
:101CA800F6D900236374637C90F9020012F803E00C
:101CB80023681A780C2303FB028300225B780093C5
:101CC8001D4B0192022153F82E3013F03FFBA06008
:101CD8000028CDD1D6E700BFFD8701081588010887
:101CE800AC4B0020AD4B0020B18B010848E8010047
:101CF800144A002075870108298D0108458B0108C1
:101D0800A068060088200020ED870108D587010813
:101D1800400D03002C410020C5870108B587010844
:101D2800C44700201E6E0020C126002088450020E0
:101D3800B0550208D5130020C45702080520002119
:101D48000DF017FBBC4B012200241A70BB4A83F824
:101D58004D4783F8604783F84C475C709C70DC7093
:101D68001C71DC711C725C729C725C74C3F8242157
:101D780083ED4A8AC3F82C2103F26C7383ED008A41
:101D88001AF086FFAE4B1C703368DB0305D512F0E2
:101D980059F8062021460DF0ECFA3368580540F151
:101DA8008E80042013F02CFB0421C5F8680A13F078
:101DB8001DFB85F86C0A082013F022FB0821C5F8E2
:101DC800700A13F013FB9F4C85F8740A0021204613
:101DD8002C221FF026FA8E2363704FF07C09E02333
:101DE8004FF07D08E37084F8009084F82B80964CBF
:101DF8002C22002120461FF014FA8A236370202029
:101E0800A023E37084F8009084F82B8013F0F8FA8C
:101E18002021C5F8780A13F0E9FA85F87C0A102021
:101E280013F0EEFA1021C5F8800A13F0DFFA85F8EE
:101E3800840A4FF4807013F0E3FA4FF48071C5F808
:101E4800880A13F0D3FA85F88C0A4FF4007013F05F
:101E5800D7FA7E4BC5F8900A1A7C531E012B08D876
:101E68007B4B022A4FF07E0108BFF922D97308BFC5
:101E78009A724FF4007113F0B9FA764B764A1B68E0
:101E8800316885F8940A003318BF01231370734A28
:101E98000123090613704FF00203537048BF08214D
:101EA8004FF00403937048BFD1706D4A58BF0323A5
:101EB800137010F0C5FD072000210DF05AFA694C87
:101EC800B4F80090B9F1000F7BD12C200DF05CFA2A
:101ED8000F2383710E230D218046C37180F808906B
:101EE800C5F8980A0DF0D8FA40460DF078FA5E4A1F
:101EF800138823F040031B041B0C1380138823F062
:101F080038031B041B0C138013889BB243F0400357
:101F1800138032209F238DF830308DF831908DF862
:101F280032908DF8339018F09CF940468DF8519016
:101F38000DF050FA04220CA914A817F079FC4046B9
:101F48000DF04DFA9DF852309DF851201B0243EADE
:101F580002429DF853301343444A934217D00CD899
:101F6800434A934215D00132934217D0A2F51A4240
:101F7800033A934220D120230CE03E4A934208D0F2
:101F8800013293420AD03C4A934215D101E04023E2
:101F980000E0802323804FF4807302E04FF48073C5
:101FA80023806380A38822881B02A3605343E360D5
:101FB800012385F89C3A04E0002323806380A36012
:101FC800E360E46834B3E40AA1464FF0000BA3458C
:101FD8000DDA0BEB04084FEA68080DF1500A4FEAD6
:101FE800C8205146102207F0CFFE0F2806DC07F064
:101FF8006FFE4FEAC923C5F8A03A0BE000235AF850
:102008002320013240F027810133042BF7D1C14648
:102018004446DCE73168194B11F4002218BF01224D
:102028001A70174B5B78202B01D820232FE0402B08
:1020380028D840232BE000BF7C510020000080BF3F
:10204800496F0020C81F0020F91F0020AC1F002086
:10205800010000208820002079200020B5200020E1
:10206800DF2000201C000020003800401620C2009D
:1020780017BA20001740EF001720C200CD29002012
:10208800D0270020802B94BF80234FF48073C5F89D
:10209800A43A924B4FF47A72A3F84820C823A5F8C3
:1020A800A83A3B688E4A43F008033B60138823F044
:1020B8000203138040F602030B4053B1894B0322FD
:1020C8001A70894B01221A70884A00231380884AA3
:1020D80013800A010CD5874B1B6898473B6885F825
:1020E800AA0A10B143F4806301E023F480633B60E3
:1020F800814B82481B683360002101274C2285F8F8
:1021080088781FF08EF80023C5F8AC3A7C4D7D4ADC
:102118002846136014F080FF0FF096FF6428B8BFBC
:10212800642068653946384614F0ACFF764B5A7916
:102138001C4652B1754BDB6C642BB8BF6423C5F8E1
:102148009C300220394614F09DFF6379DFF8B8818E
:102158006F4F022B27D13B689B0724D5B8F8003076
:102168006C4C94FBF3F39BB2642BB8BF6423C5F8A3
:10217800E4300320012114F085FF98F80530022B84
:1021880005D1B8F8020094FBF0F4A0B202E00FF019
:102198005BFF80B26428B8BF6420C5F82C01012118
:1021A800042014F06FFF0620012114F06BFF0820B3
:1021B800012114F067FF336840F60201194000312D
:1021C80018BF0121072014F05DFF0520012114F03C
:1021D80059FF31680920C1F3C01114F053FF396861
:1021E8000A20C1F3C00114F04DFF39680B20C1F378
:1021F800800114F047FF39680C20C1F3001114F076
:1022080041FF31680D20C1F3404114F03BFF3168B4
:102218000E20C1F3802114F035FF71880F2001F0E2
:10222800010114F02FFF31681020C1F3C06114F0D0
:1022380029FF1120012114F025FF082000210DF0AD
:1022480098F8354A137863F07F03137029B0BDEC12
:10225800028BBDE8F08F08F1010BA046D8E62B20D1
:102268000DF092F8182383710223C371804604721B
:102278000121CAF8B00A0DF00FF9404601210DF00E
:10228800B3F83C2017F0EDFF99F81130DFF88CA077
:102298009C42BEF6B6A8002017F0A2FA40460021DC
:1022A8000DF0A2F80021782017F0CAFF012017F0DE
:1022B80097FA404601210DF097F87820002117F091
:1022C800BFFF0134E0E707F03FFF00287EF49EA837
:1022D8008AF811001CF013FAFEF798B8BC430020E6
:1022E800BA700020F81F002054140020286F002026
:1022F8002A6F00205C140020DC26002020480020E3
:10230800080D00201C480020C4460020E04600209C
:102318008045002040420F00D4800020D44B00208C
:102328002DE9F04F2DED028B8DB006460F4610F0CB
:1023380087FBBF4B1B78002B41F0BC85BD4B1A684F
:1023480012F4806F984601F0B585BB4CDFF820A3E6
:102358002378002B00F01082DAF800206368D31A83
:102368007C2B40F20982237AB44D626001332372D8
:102378004FF00309C9F12700C0B214F04BFF55F81C
:10238800040F4FF47A735843AD4B1B8990FBF3F05D
:1023980000B214F02DFFB9F10109EBD1A94D30209D
:1023A80014F038FF95ED450A1FF08CF900B214F0CF
:1023B8001FFF14F027FF237A9B0734D19E4B5A68DE
:1023C80041F288339A421BD9D5ED427AFDEEE77A7D
:1023D800102017EE909A4FF0640B14F01BFF99FB36
:1023E800FBF528B214F004FF212014F013FF0BFBB7
:1023F800159383EAE370A0EBE37000B214F0F8FEE3
:10240800142014F007FF904BB3F904000A2390FB43
:10241800F3F014F0EDFE1C2014F0FCFE002014F084
:10242800E7FE14F0EFFE237A5D0740F0808102207A
:1024380014F0F0FE854BD8696423323090FBF3F03A
:1024480000B214F0D5FE824B0320B3F9065014F005
:10245800E1FE804B1B8858074FF0050995FBF9F5FD
:10246800ADB20AD51DF026FC28B9D8F8003013F013
:10247800100F18BF002528B204E0774B9889B0FBED
:10248800F9F000B214F0B4FED8F80030990770D50E
:10249800DFF8E0916589DFF8E08199F80010B8F875
:1024A80000202D016423ADB203FB02124B00B2FBE6
:1024B800F3F345EA0325ADB2C3F303231D43062016
:1024C80014F0A8FE28B214F093FE638999F800204E
:1024D80001339BB293FBF2F102FB11336381237E3C
:1024E800012B05D1392014F095FEB8F9000023E03E
:1024F800B8F800506E235D434F4B5B7E4FF01508D4
:1025080095FBF8F51FFA85F80BB198FBF2F83A201D
:1025180014F080FE4FF06409B8FBF9F528B214F006
:1025280067FE09FB15853B2014F074FEA8B2451D13
:102538000A2095FBF0F000B214F05AFE282014F09F
:1025480069FE464B0A201B6893FBF0F000B214F0BA
:102558004FFE042014F05EFE3F4B9B8913B114F02C
:1025680001F903E03E4B186880F3100000B214F044
:102578003FFE3C4B1B685A0640F1CE803A4BDFF8D1
:10258800FC801A6812F0020F99461FD0112014F02F
:1025980041FEB8F82000354B4FF4F36510FB05F009
:1025A80090FBF3F000B214F023FE192014F032FE71
:1025B800B8F8200010FB05F5642095FBF0F595FBB5
:1025C800F0F300FB135000B214F012FED9F800002B
:1025D800D8F8103010F0020518BF64254FF001003C
:1025E8001CBF93FBF5F5ADB214F014FE28B214F03D
:1025F800FFFD092014F00EFE002014F0F9FDB8F8D4
:10260800282098F80550B2F5967F09D9237A03F067
:102618000F03072B04D842F20F75954228BF1546C1
:10262800052014F0F7FDE37D63BB28B247E000BF47
:10263800BE70002084450020A01F002050460020C6
:10264800244600207C510020B470002064470020FC
:10265800E4420020BA700020E6450020442600200D
:10266800F4450020804500209C3F0020A086010002
:102678009C49002054140020F8450020A03F002069
:102688006666E63FA5F1200307EE903A1FED047A4F
:10269800F8EEE77AF6EE006AC7EE877ABEEE007AC1
:1026A800F5EEC07AF1EE10FA58BFB0EE667A77EE22
:1026B800877AFDEEE77ACDED007ABDF9000014F0D7
:1026C80097FD002302930393D9F800309B0704D4A5
:1026D80094F82020D24B012A0AD1012384F8203013
:1026E800D8F808300293D8F80C30039302A81AE0FF
:1026F800DFEDCC6A93ED037AD3ED047A27EE267AE0
:1027080067EEA67ABDEEC77AFDEEE77A8DED047A1C
:10271800CDED057A04A806E0C34A92E8030004ABAD
:1027280083E80300184610F0E7FB14F06BFD237AEA
:10273800282B21D1BA4BDAF8000000221A724FF088
:102748003C094FF47A73B0FBF3F8172014F062FDDC
:10275800B8FBF9F5B5FBF9F009FB1050000200B21F
:1027680014F046FD182014F055FD09FB158000B241
:1027780014F03EFD14F046FD94F82120A84B002AE1
:1027880000F0BB815A6AA949B21A8A4240F21981FB
:10279800002283F82A2083F82C20A54A987E1288E4
:1027A800D1B2120A83F8461083F8472083F83C1008
:1027B80083F83D20596DDAF80020511A4FF47A72E7
:1027C800424391420DD39B4A12685A6593F85820A8
:1027D800013A012A9FBF102283F82A20022283F897
:1027E8002C20954B9FED956A1A689FED957ADFED41
:1027F800956A954B95481B68457984F873500A216A
:1028080092FBF1F284F84420121284F84520904A91
:1028180093FBF1F3D2ED427A84F84830C7EE867A1A
:102828001B1284F8493077EE877A92ED457AF4EEF8
:10283800E67AF1EE10FA48BFF0EE667AFDEEE77A36
:1028480017EE903ADFED837A84F8423077EE277AF4
:102858001B12F4EEE67AF1EE10FA48BFF0EE667A53
:10286800FDEEE77A84F8433017EE903AF0EE087AF6
:1028780027EE277ADFED787A84F84A3087EE067AF1
:10288800191284F8703084F84B1084F87110644B76
:1028980077EE277AF4EEE67AF1EE10FA48BFF0EE1A
:1028A800667AFDEEE77A17EE902A84F84C2084F8D1
:1028B80072206A4A1268950703D42D2283F874207F
:1028C8007DE00279D0F80880DFF8A8916449D0F853
:1028D8000CE0022A0CBF3322322283F8742098FBC2
:1028E800F1F309FB038503EB83035E4A9EFBF1F1D9
:1028F8004FF0060C03EB83030CFB05F59B0095FBDF
:10290800F2FA02FB1A5543FA8AFA454B09FB01E928
:1029180001EB810164240CFB09FC95FBF4F501EB48
:10292800810183F865502D1283F8665089009CFB5D
:10293800F2F502FB15C292FBF4F283F86A20121238
:1029480041FA85F183F86B20B0F9202089B283F829
:10295800681002EBC202090A83F8691092004FF46A
:102968007A7192FBF1F283F86020C2F3072283F8B0
:1029780061203D4A128883F86C20120A83F86D2082
:10298800026992FBF4F202F5FA7292B283F86E20B1
:10299800120A83F86F20354A1FFA8AFA4FEAD87864
:1029A80083F863A04FEADE7E4FEA1A2A128883F87A
:1029B800628083F864A083F867E083F87520184B79
:1029C8005E62174D95F88580B8F1000F0ED1D5F8E5
:1029D8008C0017F063FEC0B2012807D90228244CE6
:1029E80001F0C38010F07AFA01232370D5F8900023
:1029F8000B4C002800F0818094F88580B8F1000F16
:102A08003AD0D4E92623B6EB020A67EB030B4FF062
:102A1800000940F6B738D94508BFD04538D36CE02F
:102A2800A01F00208096184B843102083F0D030038
:102A3800F84500209C490020442600200000C84298
:102A48000000FA4300000000F4450020A03F0020E9
:102A58007C5100200060EA460000F0429C3F0020C4
:102A68008096980040420F00C8260020CA26002001
:102A780000000020806967FFD4F88C00012304302F
:102A8800022184F8853010F006FA84F8A08032E03C
:102A980094F8943063B9D4F88C00C4F890300430BA
:102AA800012184F8853010F0F6F910F017FA22E0C9
:102AB800013BDBB284F8943094F8A01094F8A1207C
:102AC80043B94B1C013284F8A03084F8A120D4F813
:102AD8008C000EE00346013213F801EBC4F8903085
:102AE8000EEB010084F8A000D4F88C0084F8A12033
:102AF80071460CF06BFBC5E92667BD4CBD4D94F8DB
:102B0800A230D5F80090002B00F0F381D4F8A4305F
:102B1800002B00F0EE8194F8A830013B012B00F265
:102B2800E881D4F8A400DFF8C88217F0B7FDE0B157
:102B3800D8F8A40017F0ACFD98F8A930D5F800B083
:102B48007E2B82460ED102231B2888F8A83009D193
:102B5800D8F8A40017F0A2FD20B90123C8F8ACB03A
:102B680088F8B03084F8A9A0DBE7D8F8AC202B6847
:102B78009B1A41F65832934229D9032388F8A83082
:102B8800B7E19D4A32F81380B8F1000F02D14346ED
:102B98004FF403680133B8F5E06FDBB200F0488109
:102BA80027D9B8F5026F00F07B8175D9B8F5046FA5
:102BB80000F01481B8F5116F00F08281B8F5036F49
:102BC80009D184F8B1308D4B1B685A0673D494F838
:102BD800B01094F8B130002900F089812A68C9EB57
:102BE8000202012ACDD984F8B130002384F8B0302C
:102BF8007FE1B8F5047F6BD00AD8B8F5887F00F07C
:102C0800DE80B8F5007F78D0B8F5807FE3D182E028
:102C1800B8F5826F00F01C81B8F5C06F00F08B80AA
:102C2800B8F5806FD7D184F8B130754B1A8842F265
:102C3800107312F0010F42F2117108BF1946930781
:102C4800704B1B6848BF0231500748BF0431DA0790
:102C580048BF0A31980748BF14311A0548BF2831C0
:102C6800D80548BF28315A0748BF6431180748BFFC
:102C7800C8319A0648BF01F5C871D80648BF01F5A2
:102C88007A71DA0448BF01F5FA61580648BF01F5C0
:102C98007A614FF480608CE0B8F5E46F00F0CD8085
:102CA800B8F5006F52D0B8F5E26F94D1564A84F85F
:102CB800B130516BC5E0554B1B689B0787D5544B0A
:102CC800198C4FF4F36311FB03F34046642105E1CB
:102CD80084F8B1304F4B1B6898077FF578AF444BA9
:102CE8005A7E4D4B1B881AB14C4A117893FBF1F36D
:102CF8000A214FF4047059435BE084F8B130454B26
:102D08001B6819057FF563AF454B404619680A23D0
:102D180091FBF3F1E4E084F8B130384B1B685A07B3
:102D28007FF555AF3F4BD3ED427AFCEEE77A40464C
:102D380017EE901AD4E084F8B130364B1B681B05A7
:102D48007FF545AF384B40461968C9E02B4A84F8EF
:102D5800B130126850067FF53AAF2C4A12689107D5
:102D68007FF535AF13F0010F294B11D0DB6883EAEB
:102D7800E371002BA1EBE37101EB51014FF0190254
:102D8800B1FBF2F1ACBF41F0004141F040410EE02F
:102D98009B6883EAE371A1EBE371002B01EB51011E
:102DA8004FF01902B1FBF2F1B8BF41F080414FF486
:102DB80000600FF085FF002384F8B03007E784F83F
:102DC800B1300E4B1B685A077FF501AF154B93EDD9
:102DD800450A1EF077FC0146404681E084F8B13090
:102DE800124BB3F9041001EB810140464900E0E7BA
:102DF800A01F00209C4900205C5902088045002043
:102E0800BA700020F4420020244600209C3F002095
:102E1800A03F002084450020F845002054140020DD
:102E2800442600207C510020F4450020B470002086
:102E3800BA4A84F8B130116B03E0B84A84F8B1306B
:102E4800916B64234B434046118993FBF1F1B0E742
:102E580084F8B130B24B1B6813F0400A13D0B14B61
:102E68001A6812F0020F14BF4FF47A71002112F0A1
:102E7800010FAD4A14BF4FF4FA6300230B44517994
:102E88004046194495E7A94B1B6819067FF59FAE84
:102E9800404651460FF014FFA54B83F8B0A096E6C4
:102EA80084F8B1309E4B1B685A067FF590AE9D4B57
:102EB8001B689B077FF58BAE9B4B404619690FE05B
:102EC80084F8B130994B1B6898077FF580AE994B11
:102ED800994A19880A234B431178404693FBF1F12C
:102EE8000FF0EEFE924B002283F8B0206FE684F8D4
:102EF800B13094F8B2208E4B002A00F0A581D3F8A7
:102F0800B420002A00F0A081D5F80090D3F8B820AA
:102F1800C2EB0902632A40F2978193F8BC30874AD2
:102F2800134493F8088018F0010F26D004A80FF076
:102F380065FF049BDFF810B25A1C049241221A70F4
:102F48004FF00A0ABBF9021091FBFAF104A889B202
:102F58000FF049FFBBF9001091FBFAF104A889B200
:102F68000FF041FFBBF9041091FBFAF104A889B2F4
:102F78000FF039FF04A80FF0FFFE18F0020F50D031
:102F880004A80FF03BFF664B1B6813F0400A664B22
:102F980017D01A7942B1012A09D0022A14BF4FF07A
:102FA800000B4FF0030B04E04FF0010B01E04FF072
:102FB800020BB3F920A09968DA6864209AFBF0FA4A
:102FC80002E052465146D3465D4890ED428A049845
:102FD80000F1010ECDF810E04FF0470E80F800E048
:102FE80004A88DE80C000FF0E9FE009A04A8114629
:102FF800BDEEC88A0FF0E2FE04A85FFA8AF10FF06E
:10300800D1FE04A818EE101A0FF0D8FE019B5979CA
:103018004BEA810104A8C9B20FF0C4FE04A80FF05E
:10302800ABFE18F0080F24D004A80FF0E7FE049BAD
:103038005A1C04924F221A7004A8D4F8C0100FF03A
:10304800BDFE04A8D4F8C4100FF0B8FE04A8D4F844
:10305800C8100FF0B3FE04A801210FF0A3FE314BF6
:10306800196804A801F001010FF09CFE04A80FF0F4
:1030780083FE18F0200F24D004A80FF0BFFE13F031
:103088004DFA049B5A1C049258221A70264B824609
:10309800198D04A80FF0A7FE8AF0010104A8C9B28F
:1030A8000FF080FE04A800210FF07CFE04A8002188
:1030B8000FF078FE04A800210FF074FE04A80FF0AA
:1030C8005BFE18F0040F00F0858004A80FF096FE50
:1030D8001C4B1B68D90514D4DA0415D4D80616D4A9
:1030E800990617D413F0440F30D11A0731D4D807F2
:1030F80032D413F0020F14BF4FF0030A4FF0010A45
:103108002CE04FF0000A29E04FF00A0A26E04FF0C1
:103118000D0A23E04FF0090A20E000BF24460020F2
:10312800804500209C3F0020A03F002084450020CF
:10313800A01F0020F8450020541400208431020804
:103148007C510020F4420020B47000204FF00B0A9C
:1031580004E04FF0080A01E04FF0020AC44BB3F84C
:1031680000B0C44BDB78CBF3800B1BB14BF0020BE8
:103178005FFA8BFB049B5A1C049253221A70BE4BB5
:10318800198801EB810101EB8101890089B204A84A
:103198000FF029FEB94B196881F3100104A889B210
:1031A8000FF021FEB64B1988FE23594304A840F2BC
:1031B800FF3391FBF3F1C9B20FF0F4FD04A800212D
:1031C8000FF0F0FD04A84BEA8A010FF0EBFD04A80C
:1031D8000FF0D2FD18F0100F2AD004A80FF00EFE41
:1031E800049BDFF8C8825A1C04924E221A7004A865
:1031F80098F800100FF0D6FD04A898F801100FF009
:10320800D1FD04A898F805100FF0CCFD04A898F893
:1032180004100FF0C7FD04A898F802100FF0C2FDC3
:1032280004A898F803100FF0BDFD04A80FF0A4FD42
:1032380094F8BC30C4F8B89001330A2193FBF1F23A
:1032480001FB123384F8BC3094F8CC30002B00F02A
:1032580012838C4B1B68002B00F00D838A4BD3E93B
:103268003423B6EB020867EB0309002144F61F601C
:10327800494508BF404580F0FE8202200FF054FD0A
:1032880000286ED0814B1B6849F6074213F0080FDF
:1032980048F6034A18BF9246590744BF4AF4005AF1
:1032A8004AF0080A5A067A4B1B6844BF4AF4804A17
:1032B8004AF0200A13F00208CAF3090911D06E4B2C
:1032C800B3F80080734B08EB8808B3F800B013F02C
:1032D8006FFA08EB88084FEA88081FFA88F8C0B226
:1032E80002E04FF6FF7B64200023ADF81C30ADF8F8
:1032F8002230ADF82430ADF82630ADF82830ADF8DE
:103308002A30ADF82C30644BCDF810A0CDF814A0BD
:10331800CDF81890ADF81E80ADF820B08DF82E00CD
:1033280004AA0DF1280C9646BEE80300E64518608D
:103338005960724603F10803F5D1DEF80000186001
:10334800BEF804109EF806209A719980534B01220A
:103358007C211F20DA7116F097FC16F0EDFC16F0B0
:1033680003FD03200FF0E0FC002868D02B680093D1
:103378004B4B1B78002B00F05B844A4A012BB2F8B8
:10338800009040F25684022BB2F8028000F0538479
:10339800032BB2F804C000F05084042BB2F806E006
:1033A80000F04D84052BB2F808A000F04A84062BE3
:1033B800B2F80AB000F04784072B918914BFD2896C
:1033C80000222F4BADF822201B88ADF818C040F220
:1033D800FF300022C3EB032393FBF0F300988DF832
:1033E80025302D4B8DF824200490ADF81490ADF8BD
:1033F8001680ADF81AE0ADF81CA0ADF81EB0ADF817
:10340800201004AA0DF1200C9646BEE80300E645FC
:1034180018605960724603F10803F5D1DEF8000020
:103428001860BEF804209A801C4B2322F421162031
:10343800DA7116F029FC16F07FFC16F095FC0620D0
:103448000FF072FC002800F0E180104B1B685B064F
:1034580040F1DC80144A1379904633B1012B27D010
:10346800022B14BF0020032023E0012021E000BF2D
:10347800BA7000202C4C0020F8450020F4450020AC
:1034880040260020345B0020A01F0020804500203B
:103498008445002044260020F4580020EC580020E1
:1034A8002C410020F84B0020A03F0020CC26002013
:1034B8000220D8F81030D8F80810B8F824A0B8F8C6
:1034C8002690B8F820C098F805B006914FF00A0E7B
:1034D8000EFB03F2B8F82230D8F80C10089203EB70
:1034E80083035B00ADF82A30CDE90467BE4BADF825
:1034F80024A004AAADF82690ADF828C007918DF84D
:103508002C008DF82DB00DF1280C91469A46964660
:10351800BEE80300E64518605960724603F10803E7
:10352800F5D1CDF800C0DEF800001860BEF8042020
:10353800DFF8C4B29A8018211E208BF8071016F005
:10354800A3FB16F0F9FB16F00FFCA849D8F81000F9
:10355800D1ED427AD8F80C30A549D8F8082006935E
:10356800B2EE047A67EE877A4FF00A0EFDEEE77A3C
:1035780000230EFB00F0DDF800C0B1F90410ADF82F
:10358800243091FBFEF1ADF82630ADF828300496D2
:1035980005920790CDED087AADF82A10CE460BF1CA
:1035A8000803724603CA624518605960964603F1DB
:1035B8000803F6D110681860682121231C208BF8B5
:1035C800073016F061FB16F0B7FB16F0CDFBD4F808
:1035D800C820D4F8C43005930A215143D4F8C02038
:1035E800049206914B4603CBCBF808001868CAF83A
:1035F800041031232721CAF808000C208BF8073063
:1036080016F042FB16F098FB16F0AEFB0A200FF0FE
:103618008BFB002849D0764ADFED765AB2F90030A4
:103628002968049106EE103AB2F902305B4207EEBF
:10363800903AB2F9043007EE103AB8EEC66AF8EEDE
:10364800E77AF8EEC76AB2EE045A86EE056A0023F6
:10365800089309930A93644B04AD0DF1280EC7EE45
:10366800857A86EE857A26EE256A67EEA57A27EEB4
:10367800257A8DED056ACDED067A8DED077A2A4615
:1036880003CA724518605960154603F10803F6D15C
:1036980010681860584B1E2227211C20DA7116F07A
:1036A800F3FA16F049FB16F05FFB0B200FF03CFB1A
:1036B800002800F0DE80514B9FED516A1B68DFED5A
:1036C800515A13F0400F1EBF4F4BB3F9203007EE8D
:1036D800903A464BD3ED426A93ED457A444B4FF00E
:1036E8000A02B3F9043093FBF2F2484B18BFF8EE24
:1036F800E77AB3F9063018BFC7EE867A92B208BFE8
:10370800F0EE657AB3F57A7FC6EE866A87EE067ABA
:1037180005DBB3F5FA6FA8BF4FF4FA6301E04FF485
:103728007A73ADF82020A3F57A73642253434FF4DB
:103738007A7293FBF2F3ADF822302B4BCDED045A9D
:1037480004AACDED057ACDED066A8DED077A0DF167
:10375800200E90469A46154603CD75451860596067
:103768002A4603F10803F6D128681860224D142070
:1037780001464A23EB7116F087FA16F0DDFA16F0C7
:10378800F3FA234B1A88234B1B7802F0040292B2F7
:10379800013BDBB2002A0CBF4FF0400B4FF0C00BCF
:1037A800172B9BBF1C495B180021997C1B4B1B687E
:1037B8009807A9461ABF4BF0100B0025012513F0F6
:1037C800080F18BF022513F0100F18BF062513F0B5
:1037D800200F18BF10252AB3114BDB78002B14BF1C
:1037E8000522042226E000BFF45800207C51002066
:1037F800B470002035FA8E3CEC580020804500203B
:103808000000C84200000000A03F0020F84B002044
:10381800BA700020B443002084310208F44200202A
:103828002C4C002000911AF03FFE0099002814BF8C
:103838000222032200238DF8172003228DF8153069
:103848008DF8182004958DF814108DF816B0B8E886
:1038580003008AF80820CAF80000CAF804100920F2
:10386800322189F8073016F00FFA16F065FA16F0CB
:103878007BFAC4E9346794F8D8300BBB94F8D93094
:10388800D24D002B00F0168326E0D5F8DC0016F0A8
:10389800FFFE95F8E13095F8E22085F8E03083F4F2
:1038A8007F4383F0FF039B1A9BB295F8E31085F8DA
:1038B800E120B0EB132F85F8E21085F8E30007D07C
:1038C800D4F8DC00C14D16F0E9FE0028DDD1D5E7BB
:1038D800DBB28B42F4D1BAE195F8E62042B1D5F8D3
:1038E800E80005F1EC010BF074FC002385F8E630E4
:1038F800D4F81001B54B00F5C3300021A0308F4239
:1039080008BF8642C0F0D68293F81451C3F81061FC
:103918005A1992F81571FA0755D50CAE002283F89A
:103928001A2183F81B2103F21D1246F8202D03F2F9
:103938003F110822DFF8D88283F81C210591304610
:103948001E2113F095FCB8F90230DFEDA18A9FED36
:10395800A18A07EE903AF8EEE77A304667EEA87A41
:1039680067EE887AFDEEE77ACDED007ABDF80010B3
:1039780013F0A1FCB8F9003007EE903AF8EEE77AB8
:10398800304667EEA87A67EE887AFDEEE77ACDEDE5
:10399800007ABDF8001013F08EFCB8F9043007EE79
:1039A800903AF8EEE77A304667EEA87A67EE887ABA
:1039B800FDEEE77ACDED007ABDF8001013F07BFC40
:1039C800304613F037FCBE073BD5834B05930CAE4E
:1039D800223B46F8203D4FF000084FF00A0984F8D2
:1039E8001C913046082184F81B8184F81A8113F051
:1039F8003FFC7A4B3046198813F05DFC784B304613
:103A0800196891FBF9F189B213F055FC754BB3F8BD
:103A18000C9012F0CDFE41468246304613F028FC49
:103A280030464FEA192113F023FC30465FFA89F13A
:103A380013F01EFC3046514613F01AFC304613F0C2
:103A4800F9FB78073BD5644B05930DF13008223B11
:103A580048F8203D0022212184F81B2184F81C21EC
:103A6800404684F81A2113F003FC5F4B1B68590584
:103A780008D4DA0708D413F0020F5C4B5C4E08BF79
:103A88001E4602E05B4E00E05B4E30461DF00DFC2A
:103A9800B1468246C6EB09035345404604DA19F895
:103AA800011B13F0E5FBF5E7002113F0E1FB049B94
:103AB800524A9B1A84F81C31404613F0BBFB3B0763
:103AC80049D5454B05930CAE223B46F8203D0022D4
:103AD80011234B4F84F81B2184F81C3130460221F6
:103AE80084F81A2113F0C4FB3046B96813F0CEFBF2
:103AF8003046F96813F0CAFB3B8C3222242113FBB1
:103B080001213046642391FBF3F189B213F0D3FB12
:103B1800798C01EB8101490089B2304613F0CBFB67
:103B2800384B9FED397AD3ED427AC7EE877A304623
:103B38009FED277A77EE877AFCEEE77ACDED007A6B
:103B4800BDF8001013F0B7FB3046797913F090FBFD
:103B5800304613F06FFB94F83F21013595FBF2F3E3
:103B680002FB135584F81451A4E123782BB1C5F84E
:103B7800886084F80080FEF739BFD5F88830F31ADA
:103B8800B3F57A6FFEF432AF0123D5F88C002370B9
:103B980016F07EFD0446D5F88C0016F079FD640613
:103BA8007EF424AF8A2803D08E2833D0FEF71EBFB8
:103BB800164B1B6859067EF519AF95F88530002B12
:103BC8007EF414AF05F159032BE000BFA01F0020BD
:103BD80000007A4435FA8E3CDF200020F8450020AA
:103BE80044260020E6450020F442002089590208B6
:103BF8008E5902088059020884590208BC20002006
:103C0800A03F00207C5100200000C84280450020D1
:103C1800B470002095F88530002B7EF4E7AE05F1EE
:103C28002803C5F890302D2385F89430FEF7DEBEC2
:103C380099464FF000084FF0000C4FF0000E4FF07F
:103C4800000A4FF0000B00210A46FFF7BABB02F04A
:103C58000F0002F0F002802A0CD10023042160F04A
:103C68007F008DF810108DF811008DF812308DF846
:103C7800133015E0902A17D160F06F038DF81130DA
:103C88008F4B1844062143788DF8123002238DF8A3
:103C9800133000238DF810108DF814308DF815307E
:103CA80004A80FF0BFF80BE6A02A7FF409AE01289C
:103CB80005D1844B198801EB81014900F6E00228FF
:103CC8000FD1814B1B685B0749BF804BB5F8E410E7
:103CD800D969323144BF0A2391FBF3F101F5C87168
:103CE800E4E0032853D17A4B7A4A19887A4BD27880
:103CF8001B6813F0020FC1F3800118BF022113F0F3
:103D0800010F18BF032113F0440F18BF042113F04B
:103D1800080F18BF052113F0200F18BF062113F054
:103D2800100318BF07211AB1002B14BF082109215D
:103D3800654B1B68580628D5684A5379C3EB43106E
:103D480003EB800301EBC30311799BB209B9643318
:103D580007E0012901D1C83303E0022908BF03F5B0
:103D680096735F49128D09689BB2C90744BF03F572
:103D7800FA739BB24FF47A71B2FBF1F20A2A28BFA8
:103D880009220A2101FB023189B203208FE00428AD
:103D980003D1544BB3F9043030E0052807D1524B16
:103DA800196811F4006100F08280504B1AE006286F
:103DB80007D1454B196811F0040178D0434B198B92
:103DC80075E0072806D1404B196811F040016ED004
:103DD800474B07E0082807D13B4B196811F0400111
:103DE80065D0444B198862E0092809D1364B196817
:103DF80011F040015BD0394BB3F922300A213FE082
:103E08000A280DD1304B1B685B0607D5344B1B685D
:103E18009D0703D5314B64211B6931E00A2023E05B
:103E28000B2807D1284B196811F040013FD02B4BC4
:103E3800996808E00C280DD1234B196811F040014E
:103E480035D0264BD9682C4A91FBF2F302FB1311AB
:103E58000A2329E00D2809D11B4B1B68590602D5F6
:103E68001E4B9B680BE00D20002120E00E280CD192
:103E7800154B196811F0400105D0184BDB681E4935
:103E880093FBF1F112E00E2011E00F287FF418AD3A
:103E98000D4B196811F0400109D0104B198C4FF4E3
:103EA800F363594342F2107391FBF3F189B20EF0B8
:103EB800D9FF05E50DB0BDEC028BBDE8F08F00BF62
:103EC80000000020F84500208045002064470020BD
:103ED800BA7000202C4C0020F4420020A03F0020A3
:103EE8009C3F0020B4700020844500204426002018
:103EF800CA260020C8260020A0860100BA4B1B68ED
:103F08002DE9F04F9B6AB94F07EE903A2DED088BDB
:103F1800F8EEE77ADFEDB68A3B6067EEA87AB54B34
:103F2800C3ED007AB44B95B05A79039304460D4615
:103F38000AB919F003FF039B5B79022B09D0AF4B39
:103F48001B689A0705D517F015F92046294617F07A
:103F58009DFBAB4B0193DA78DFF8EC92002A68D02E
:103F6800A84BA94C1B6813F0100304D1ADF83430EA
:103F7800ADF8363028E0A54B1D68B4F90A30B5F91C
:103F8800540000EE103AB8EEC00A11F0BDFBB4F9C7
:103F98000C30ADF8340000EE103AB5F95600B8EE22
:103FA800C00A11F0B1FBB4F90E30ADF8360000EEDE
:103FB800103A974B1B68B8EEC00AD87911F082FB0B
:103FC800FDEEC07A17EE903AADF838302388ADF898
:103FD8003A30904BB9F8160019688F4B1D88237A30
:103FE80001F4805103EB830400238C4A1E193244E8
:103FF8005278012A0BD005D3022A16D10DAA32F81D
:1040080013600FE0019A02EB4302D68C0AE0032BFF
:10401800834A01D0002606E000290CBF2E4606463A
:10402800D68002E07E4A22F813600133042BDCD1EB
:1040380097E0774BDFF814A2D3F800B0DFF81082CE
:104048009BF802409AF80060B8F90000744D3246B7
:1040580021461AF0EBF90290BDF80830B8F90200D1
:104068002B80324621461AF0E1F968809BF8091046
:104078009AF801200646B8F904001AF0D7F9B8F9F9
:104088000610B9F8183040429942A880284605DB46
:10409800B1F5FA6FA8BF4FF4FA6100E01946C91AE2
:1040A8004FF47A7251435F4A5D4DC3F5FA63B1FB31
:1040B800F3F16FF063034FF0640C91FBFCF803FB22
:1040C800081332F818E008F1010832F918100FFA4D
:1040D8008EF28A1A01995A4392FBFCF37344C38007
:1040E8008B85514B02881B68CA8442880A855B0607
:1040F80082884A8535D54D4BDFED4D7AB3F90430CA
:104108000A2293FBF2F34B4A12889B1A1BB208EE61
:10411800103AB8EEC88A28EE278AB0EE480A0EF0A0
:10412800C1FBB0EE409AB0EE480A0EF059FB07EE1C
:10413800906AB8EEE77ADDED027A60EE476AF8EE4B
:10414800E77AE7EE896A67EE807AFDEEE66AE7EEDF
:10415800097A16EE903AFDEEE77A2B8017EE903A40
:104168006B80354C23885E0703D5012015F038FB9A
:10417800EAE0324A1668F50707D4019A92F8252032
:10418800012A04BF43F0010323801E4D2288D5F87D
:10419800008044F2FF03134018F0080F238001BF8A
:1041A80044F2FE031340244A43F4807308BF13808B
:1041B8001AF07AF928B1238823F0010343F4007335
:1041C80023801F4B1B88632B81BF238823F00103A7
:1041D80043F48063238016F480433BD0194B33406B
:1041E800191C18BF012136E06C480020807000209F
:1041F800BD378635F0420020C446002080450020A7
:104208002C4C00209C3F002070640020E0420020DD
:10421800EC4200208445002092430020DB3E020847
:10422800E442002084640020F4420020B47000209E
:1042380035FA8E3C82330020BA700020983F002067
:10424800BC70002000010800D44B002078700020CA
:10425800F84B00201946954B5A789A46002A3FD0C9
:10426800934B944A1B781BB99348007A022806D1CD
:10427800137A33B188F0010808F0010803E0984682
:1042880001E04FF001082388580706D48B4B3340D0
:104298001BB1002908BF4FF0010892F94D27854B43
:1042A800002A14DDD3F8B0210D92D3F8B4210E9270
:1042B800D3F8B8310F930DA80AA9012215F0F4FB21
:1042C8000AA819F08DFABAF80C30984202D8B8F159
:1042D800000F05D0238823F0010343F400632380F3
:1042E800774B1A68110708D52B68DB055FBF238851
:1042F80023F0010343F480532380960708D52B68E5
:104308009D055FBF238823F0010343F400532380F6
:1043180012F004F938B9238823F001036FEA434304
:104328006FEA53432380238813F0010F654B14BFB2
:10433800002202221A7015F041FF634B1B68C01A55
:10434800002801DB14F062FF604883680BB1604904
:10435800984799F820305F4D002B65D05E4B2C783C
:1043680093F800805CB90DF06FFE234602460121E8
:10437800281D9FED5A0A0EF09DFA01232B7097ED28
:10438800000A544EB8EEC00A301D0DF09CFE544B86
:10439800BDEEC00A588810EE103A90FBF3F0441CAA
:1043A800A4B22C84B8F1000F1FD0B6F822800023E5
:1043B800484E4C4A06F12C0706F1240C32F813E05B
:1043C80037F813203CF8131027F813E0C2EB0E0956
:1043D80011FB08F122B291FBF2F24A442CF81320A7
:1043E8000133042BE4D1708402E0738C013B7384A5
:1043F800384A508C03B2002B4FF0000313DDB2F99A
:104408002040394931F81320083112FB00F231F805
:10441800131092FBF4F28A1A324921F8132001335F
:10442800042BEED100E053842B4B304E93F80080E0
:104438002C4C0293B8F1000F00F0EB812C4BDFF805
:10444800B8901B881B4FDFF88CA013F0040F0AD11B
:104458003B7A002B64D007F58070D7F81811072233
:1044680019F06AF85CE0D9F80030980246D59AF855
:104478003430002B45D01F4B1B6841F2100B03EA68
:104488000B0BBBF1000F3CD13B7A002B39D03368C2
:10449800D7F8181113F0010F07F5807014BF052223
:1044A800072219F049F88AF834B02AE0DE270020FC
:1044B8009C6400207C5100207064002000030800E8
:1044C800804500205D4C0020604C0020E046002024
:1044D80084200020E020002084330020F304353FAE
:1044E8002C410020E4420020042100209C3F0020B1
:1044F800BA700020F4420020983F002001238AF877
:1045080034303368D9070BD5A84819F069F9C7F8CA
:10451800A401A64819F03EF8C7F8A80118F0F2FF60
:10452800A34AA44B12881B68DAF83810CAF8383046
:10453800520711D55B1A07EE903A9F4A9FED9F7A72
:10454800D7ED4C6AF8EEE77A67EE877A92ED007A53
:10455800A6EEA77A82ED007A3B7A63B13368D80772
:1045680009D59AF83C3033B90E2010F075FF944BFA
:10457800012283F83C20BB7B33B1D9F800305902C3
:104588005EBF904B0122DA73D9F80030C3F3805232
:10459800C3F30063BA733B7418F080FC19F02FFB67
:1045A8003A78894B03EB4213B3F80A9019F4006F79
:1045B8005ED0864B1B685A055AD4336813F0100F27
:1045C800834B1ED093F803A0B4F9020051460EF0B5
:1045D80075F880B2002848D07E4B00B29B8A07EE5F
:1045E80010AA4042584307EE900AB8EEC70A9FED5A
:1045F8007A7AF8EEE77A37EE400A012087EE800AE9
:1046080024E0764A93F803B0B2F900A0B4F90600A2
:104618005946CAEB00000EF051F883B2D3B1704A84
:104628006C491BB2002BCCBF52881288898ACCBF38
:10463800CAEB020AC2EB0A0A4B43CBEB0A0B93FB09
:10464800FBF300EE103AB8EEC00A022018F08FFE15
:1046580040460AE05B4A107B38B102209FED610AB0
:10466800049318F084FE049B1846564B187301E017
:1046780000233B7319F4805F74D0544B1B685B05AF
:1046880070D4336813F0100F514B09D0B4F90000FF
:1046980099780EF013F800B2003018BF01205EE0E0
:1046A80093F802A0B4F9020051460EF007F85146FB
:1046B8001FFA80FBB4F900000EF000F81FFA80FA28
:1046C800BBF1000F02D1BAF1000F3AD0414B9A78F2
:1046D800012A43D15B8A97ED485AD7ED475A97ED9F
:1046E800056A0FFA8BFB4FF4FA7203FB0BFB9BFB7B
:1046F800F2FB07EE90BA0FFA8AF1B8EEE77A59435F
:1047080091FBF2F107EE901AF8EEE77A65EEE76AA8
:1047180067EE857AE7EE056AE7EE257A97ED067A81
:10472800C6EE866AC7EE877A97ED406A97ED417ABA
:1047380076EE266A77EE277AC7ED4D6AC7ED4E7A90
:104748000CE0204BD87A50B10DA813F0C5FC0DA889
:104758005146012218F04EFF504600E04046194BE2
:10476800D87202E0174B0022DA7219F4005F154A7A
:104778003AD0164B1B6813F4806335D1316811F0B9
:1047880010010DD1B4F904301148002B8078B8BF5E
:104798005B42834206DDD2F81831C2F84C3102E0A0
:1047A800984600E0884682F80D801FE000530020FC
:1047B800BA7000209C490020E85800206F12833A04
:1047C800E02000207C51002004510208F44200201F
:1047D80078700020DE2700200000FA431400002033
:1047E8009243002000000000002353733A78914B55
:1047F80003EB421341F2B800B3F80C806FEA0803E8
:10480800184017F0AFFB404617F0BCFB8A4B3A78CC
:10481800DA87894F029A97F8408000231370B8F11D
:10482800000F3CD1854B9FED867AD3ED0C7A87F843
:10483800F08077EE877A00220023C7E91223C7E9C0
:104848001E23C7E92223414600234FF4967207F13D
:10485800F400C7F8E030C7F8E430C7F8B430C7F858
:10486800C830C7F8D430C7F8B830C7F8CC30C7F864
:10487800D830C7F8BC30C7F8D030C7F8DC30C7ED3F
:104888003A7AC7ED3B7A1CF0CCFC07F50870414634
:104898004FF496721CF0C5FC012387F84030DFF80E
:1048A80098A115F08BFCD646FEE9D823821A61EB55
:1048B800030389460021804699424CF24F3008BFD5
:1048C800904229D2CEE90223CEE9008912F042FDB6
:1048D80007EE900AB8EEE78A13F0ECF808B18AED13
:1048E800DC8A584B1B6858070FD5574B1B8863B990
:1048F800D7EDDC7A514B38EE678A5B6B87ED208AFF
:10490800C7F88430C7E91E8906E00023C7F880305D
:1049180000220023C7E91E23DFF81CE14B4AF446B6
:10492800FCE9DE01B8EB000069EB010100238B42D2
:1049380008BF8242F24672D2424B1B6813F0100F36
:10494800CCE90201CCE900894FF000035FD012F0F6
:10495800BDFC3F4BD3ED086A3E4BD3ED067AF4EE2F
:10496800E76AF1EE10FA07EE100A07D4B8EEC77A34
:10497800FDEEC77A17EE902A013203D14FF0FF32CD
:104988001A6207E0F8EEE77A67EEA67AFDEEE77AB4
:10499800C3ED087A93ED088AB8EEC88AB5EEC08AE6
:1049A800F1EE10FA3BDDDFED2C7AB4EEE78AF1EE9A
:1049B80010FA34D8D5E92201B8EB000069EB0101FF
:1049C8001BF004FF07EE900A67EEA86AF5EE007A7E
:1049D800F4EEE76AF1EE10FA4ABF174B9FED1F7A23
:1049E80093ED257AD7ED247AE7EE267AC5E9228970
:1049F80038EE678ADFED1A6AE8EE267AC7ED247A80
:104A0800DFED187AA8EE277A87ED257A07E0CEF849
:104A18009030CEF8943000220023CEE9222311F002
:104A280051FC08BB0023CAF8A830CAF8AC30CAF851
:104A3800B03082E004510208E0200020282800203D
:104A48006F12833A80450020801F0020690401000E
:104A5800CC630020F847002000005C420000000002
:104A6800029A583F4182C640CA4BD5ED2D5AD3ED24
:104A7800007A95ED2E7A95ED2F6A77EEE55AD3ED0B
:104A8800017A77EEC77A93ED027AC34BD3ED016AC8
:104A980093ED065A37EE466A67EEA66A93ED007AFA
:104AA800E7EE256A93ED027AE7EE066A93ED077A58
:104AB800C5ED2A6A27EE877AA5EE257A93ED085A7E
:104AC800A5EE067A93ED045A67EE857A93ED035ABC
:104AD800E5EE257AD3ED055AB04BE5EE867A1B88CC
:104AE80013F0040FF1EE677AC5ED2B7AAC4B0CD1BD
:104AF800AC4A92784AB193ED016ADFEDAB5A37EED2
:104B0800465AA5EE256A83ED016A93ED016AFDEE2A
:104B1800E66A37EE467A16EE903AFDEEE77AAAF89C
:104B2800883317EE903AFDEEC77AAAF88A3317EE63
:104B3800903A8AED2C7AAAF88C334046494612F00E
:104B48006BFC9A4B9FED9A9AB3F90430DFED999A72
:104B5800994F03EB83035B0007EE903AB8EEE78AC0
:104B6800C7F8183188EE098A28EE298AB0EE480A73
:104B78000DF036FE87ED470AB0EE480A0DF092FEBA
:104B88008E4B87ED480A1A46F2E9E4ABB8EB0A0AFD
:104B980069EB0B0B59464FF0000B50468B4544F61A
:104BA8001F6A4FF0010E08BF824587F804E09A4655
:104BB80080F0B1807B4B9AED3A7AD3ED0C7AB4EE63
:104BC800E77AF1EE10FA53BF9FED7D1A9AED320A9B
:104BD800DAED330A9AED320A52BFDAED330A9AED6A
:104BE800351ADAED361AC2E90201C2E900894CBF6A
:104BF80070460020984658BFF0EE411A18F0CEFED5
:104C0800D8ED0C7A9AED3B7A6C4BB4EEE77AF1EE7C
:104C180010FA43BF012093ED340AD3ED370A93ED20
:104C2800340A5CBFDFED660A002018F079FEDAED81
:104C3800387AF5EEC07AF1EE10FA2ADD5F4BC7ED4F
:104C4800497AD3F8E420C7F82821544A5A4B1288E5
:104C5800510713D593ED4B7AB5EEC07AF1EE10FA01
:104C680009DDB4EEE77AF1EE10FA58BFB0EE677AD4
:104C780087ED4B7A05E0C3ED4B7A02E0514AC3F861
:104C88002C21FDEEE77A01237B72FB7017EE903A38
:104C980011E00022C7F82821404A4A4B1288C7F879
:104CA800243152075CBF444AC2F82C3100237B727E
:104CB800FB704FF6FF73DFF804C1AAF8A03395F82C
:104CC800F0304FF00C0E0EFB035E0CF1C8020133FE
:104CD800DBB207CA182B88BF00230EF1F4088CF842
:104CE800F030364B88E807000CF1D40207CAD3ED40
:104CF8003A7AFCEEE77A0EF5087E8EE8070017EEA2
:104D0800902AD3ED3B7AA3F8A223FCEEE77A17EEBC
:104D1800902AA3F8A42315F051FA284B97F807E036
:104D2800002283468846A3F8A623BEF1000F02D0CE
:104D38000122A3F8A623797A29B1B3F8A62342F071
:104D48000202A3F8A6233A7A2AB1B3F8A62342F0BE
:104D58000402A3F8A62393F8502018482AB1B0F803
:104D6800A62342F01002A0F8A623BA7A2AB1B3F813
:104D7800A62342F02002A3F8A623326822F080037B
:104D88003360064B1B8803F004039BB2E3B97B74C2
:104D98009AE300BF28640020CC630020BA7000208A
:104DA80014000020282800200AD7233BB4700020D4
:104DB8000000C84235FA8E3C7C510020E0200020DB
:104DC80000000000000080BF00237B71BB7197F8D2
:104DD80000C0834B834803EB4C1312F01002B3F866
:104DE8000AA005D050465A46434617F0BFF948E393
:104DF8001AF0080F7C4B50D0D3F8A813C3F8AC8333
:104E0800C3F8A8B322806280A280BEF1000F3FD011
:104E1800C1EB0B0275498A4206DDC3F8B0B3C3F88B
:104E2800B48313F091F92CE38278714D0746FAB1F7
:104E3800D3F8B023C3F8B483C3F8B0B36D4BC2EB57
:104E48000B09994510DCAB8B00EE103AB8EEC00A9E
:104E58000120B1EE400A18F08AFA484613F008FA21
:104E6800484613F0ABF901E013F06EF90123BB716A
:104E7800B5F926206049B7F9683713440A88498884
:104E8800934203DB8B42A8BF0B461A46E280F8E246
:104E98005A4B1A885A4BDA80F3E21AF0010F7ED087
:104EA800D3F8B823DFF844E1C3F8B8B3C2EB0B0278
:104EB8007245C3F8BC8306DDC3F8C0B3C3F8C48326
:104EC80013F042F96BE08278002A53D0D3F8C0235C
:104ED800C3F8C483C3F8C0B3464BC2EB0B029A4273
:104EE800029242DC027C814642B390ED540AB5EE50
:104EF800C00AF1EE10FA21DBD0ED490AF5EEC00A3E
:104F0800F1EE10FA15DBA1B1DDED027A9FED3D2A35
:104F1800B8EEE71A8C3021EE281AF9EE041A0021AF
:104F280018F0ECFDD9ED427A37EE800A89ED4F0A88
:104F380004E0BBEE040A002018F019FA99ED4F0AB4
:104F48001CF0C0FB47F6FF739842A8BF18462E4BCB
:104F58009842B8BF1846244BA3F8CC03029813F024
:104F680087F9029813F02AF901E013F0EDF81D4BC8
:104F780001229A711E4B2049B3F92620194BB3F927
:104F880068371A440B8849889A4203DB8A421346D9
:104F9800A8BF0B46144A9BB2E380A2F8CE331AF09E
:104FA800020F00F062821049114AD1F8D03390788C
:104FB800C1F8D0B3C3EB0B03C1F8D483094A10B9C5
:104FC80092F80B9001E04FF00009084883421FDD7A
:104FD8000E4BC1F8D8B3C3F8048013F093F844E239
:104FE800045102087C510020E0200020400D0300FD
:104FF800DE2700203F0D030092430020706400204C
:10500800E442002000000C425A80FFFFB824002030
:10501800127AAE4B002A00F007825A78002A00F074
:105028000882D1F8D823C1F8D8B3A949C1F80480B7
:10503800B9F1000F40F0F481C2EB0B020BEE902A9D
:10504800A44A1BEE901A914200F3E881A24AD3EDDC
:10505800408AD3ED4D7AA148D1891A7893ED417AE7
:1050680077EEE87AD3ED058A00EB421267EEA88A5C
:10507800D3ED4E7A528977EEC77A93ED067A12F419
:10508800806F27EE87BA804613D093F94D27002A00
:105098000FDD93F96027182000FB023393F8AC2149
:1050A800012A06D1B3F8BC31312B02D9994228BF65
:1050B80019462BEE0B0A07EE901AA8EEA80AF8EE8E
:1050C80067AA1CF0CDFDB4EEEA0AF1EE10FAC8BFEB
:1050D800C8EE808A7D4A137808EB431390465B89B3
:1050E800C8BF8BEE007AB0EE408AC2BF6AEEA88ACB
:1050F8002AEE87BAB0EE6A8A13F4806FB7EE00AA78
:105108002AD0D2F81831D2F84C01C01A0DF0E5FABD
:1051180042F228339842A8BF1846714B9842B8BF4C
:10512800184607EE900AB8EEE70A80EE090A20EE64
:10513800290A0DF0B7FB9FED6B7A60EE007AF4EE6A
:10514800C77AF1EE10FA0AD4F4EE4A7AF1EE10FAC0
:10515800C8BFF0EE4A7A04E0F0EE4A7A01E0F0EED9
:10516800477A88EE2A7ADFED606AB4EEE67AF1EEE5
:1051780010FA09D4B4EE4A7AF1EE10FAF7EE006AA2
:10518800C8BFB0EE667A01E0B0EE667AB0EE4A6A61
:10519800A7EE476ADFF86CB1D8ED3F6AA6EEC6AA5B
:1051A80068EEA78A2BEE278A28EE8A0A28EE0A7A62
:1051B80088ED500A88ED517A1CF084FA47F6FF72A0
:1051C8009042A8BF10465845B8BF584698ED510AB6
:1051D8000292A5F8E0031CF075FAD8ED517AD8EDE3
:1051E800448A029A98ED507A98ED438A9FED3FAA37
:1051F80077EEE88A904237EE488AA8BF104628EE34
:10520800A80A5845B8BF5846A8EE080AA5F8E20308
:105218001CF026FDDFED367A364DB4EEE70AF1EEE6
:1052280010FACABF9FED347A9FED340A87EE000A60
:10523800F8EEEB7AC8BFB0EEC87A27EE8AAADFED9F
:10524800307A6AEE276AD5EDFA7ACCBF20EE077A73
:10525800B0EE407A77EEE61AB1EE472AC8BFF0EE14
:10526800E88AF4EEC21AC8BF20EE280AF1EE10FA56
:1052780007D4F4EE471AF1EE10FAC8BFF0EE471A59
:1052880001E0F0EE421A77EEA67AF4EEC27AF1EE79
:1052980010FA08D4F4EEC77AF1EE10FAD4BFB0EEE3
:1052A800672AB0EE472AD5EDFB7A37EEE68AF1EEAB
:1052B800408AB4EEE88AF1EE10FA25D4B4EE408ABA
:1052C800F1EE10FAC8BFB0EE408A1FE07C51002012
:1052D800B82400203F0D0300DE27002004510208F7
:1052E800D8DCFFFFCDCC4C3D0AD7233CBD378635F3
:1052F800CDCCCC3DE020002000007544C23D2D44BB
:105308000080D4445A80FFFFB0EE688A77EEA67A10
:10531800F4EEE87AF1EE10FA08D4F4EEC07AF1EE81
:1053280010FAD4BFF0EE678AF0EE408AC048D7ED95
:10533800430A97ED500AB0EE4A1A002118F0DEFB36
:10534800F0EE481AB0EE682AB0EE4A1AF0EE40AA1B
:10535800B848D7ED440A97ED510A002118F0CEFB62
:10536800B54885EDFB0AF0EE408A0221F0EE4A0AC4
:10537800B0EE6A0AC5EDFAAA0DF037FB0221B0EECD
:10538800408AAE48B0EE680AF0EE4A0A0DF02DFBEE
:10539800D7ED487A97ED477ADFEDA90A60EE278ABC
:1053A80020EE070AE8EE478AA8EE270A0DF0A6F9CC
:1053B800B0EE408A0DF076FADFEDA10A28EE800AF9
:1053C8000DF09CF9F2EE047A20EE270A9D4A80EE51
:1053D800290A92F8242002EB820252005142BDEEC3
:1053E800C07A17EE103A8B4203DB9342A8BF1346EC
:1053F80000E00B4628EE278A9348C8EE299AA0F8C1
:105408006237FDEEE97A17EE903A8B4203DB93425E
:10541800A8BF13461946A0F8641701E012F072FEFF
:10542800894B01225A7104E0A3F86427A3F8622784
:105438001BE0B9F1000F18D1844B834F1D68B7F9F1
:105448006437B5F9560000EE103AB8EEC00A10F00D
:105458005BF9B7F96237608000EE103AB5F954008D
:10546800B8EEC00A10F050F920801AF0040F1FBFE0
:10547800754B6422D3F84C3193FBF2F31CBF744A8A
:105488001380714B5A790AB100225A709A7912B175
:105498006D4A00219170DA7A6E492AB1B1F8A623D3
:1054A80042F04002A1F8A6231A7B2AB1B1F8A6233C
:1054B80042F08002A1F8A6235B7B2BB1B1F8A6339A
:1054C80043F48073A1F8A633634B1B78BBB1634BDD
:1054D800B3F90620624B1B8B9A4210DC614B1B7898
:1054E800012B01D0192B02D15F4A527A3AB90E2BFF
:1054F80005D003F0EF03082B1CBF0023A3803068FE
:1055080010F010004FD1504B1A78584B03EB421350
:105518005B89DB0509D4039B1B7A002B43D0544AD3
:10552800126897073FD09BB200E06423514FDFED2C
:10553800527A97ED087A514DE1882A88B4EEE77AD5
:10554800F1EE10FAF7EE006A00F13B86B4EE667AE7
:10555800F1EE10FAC8BFB0EE667A09B2891A07EE02
:10556800901AB8EEE76A07EE902AF8EEE75A07EEC7
:10557800903A86EE877A6988F8EEE77A37EE667AA7
:10558800C7EE897AE7EE276AF0EE657AE6EE267AC4
:10559800FDEEE77A17EE903A934203DB8B42A8BF01
:1055A8000B461A46E2802B4BE288B3F8085411B236
:1055B800A942334D1EBFA3F8082401232B702B7872
:1055C800002B00F028812F4B00286DD01A68137A21
:1055D800F7EE007A002B00F083801088274A1288A3
:1055E80090427DD991424FDD801A07EE100A891A40
:1055F800F8EEC76A07EE101AB8EEC77A86EE877A11
:10560800F6EE006AB0EE666AA7EE266AB4EEE66ABF
:10561800F1EE10FAB0EE467A39D4F0EE006AB4EE44
:10562800666AF1EE10FAC8BFB0EE667A31E000BFE4
:105638009C510020C0510020D0240020DC240020F0
:105648008F2A7544DE2700207C510020E04200208C
:10565800F8420020E0200020A0130020F84B002092
:10566800D44B0020B4430020D42700200451020862
:10567800F4420020CC6300209A99193F92430020FD
:10568800CC290020EC420020B0EE007A01E0B0EE18
:10569800667A06EE903AF8EEE66A37EE677AC6EE74
:1056A800896AE7EE267A1BE01B681A7ADAB11B884A
:1056B800994218DBC24840888142BDBFC91A1B1AEB
:1056C8004A43C2F16402BDBF92FBF3F3643307EEB1
:1056D800903A07EE902AF8EEE77A87EE899A04E086
:1056E800B0EE679A01E0B7EE009A3768DFF8F892F3
:1056F80007F010074FF0000A4FF0000BF5EE00AA74
:105708004FEA4A08B3EE0FAA6FB310F071F8D0440D
:1057180010F8083007EE903AF8EEE77AC7EE8A7A82
:1057280067EE897A49ED017A10F062F840444378CF
:10573800C9F804B007EE903AF8EEE77A67EEAA7A6D
:1057480067EE897AC9ED007A10F052F84044837800
:1057580009EE903AF8EEE97AC7EE8A9A69EE899AE4
:10576800C9ED029A4BE0BAF1020FF7EE008A0CBFBE
:10577800B0EE68BAB0EE49BA10F03AF8D044DFEDAE
:10578800918A10F8083009EE903AF8EEE99AC9EED5
:105798008A9A69EE8B9A49ED019A10F029F84044EB
:1057A800437808EE103AB8EEC87A27EE2A8A89EDCF
:1057B800008A10F01DF840448378C9F808B007EE55
:1057C800103AB8EEC77A87EE287A67EE0B8AC9EDE9
:1057D800018A10F00DF810F8082000EB080372B1E8
:1057E8005B7863B189EE888AC8EEA98AF0EE007A00
:1057F80038EE288A87EE888A89ED038A01E0C9F89D
:105808000CB00AF1010ABAF1030F09F18C097FF40F
:1058180073AF00232B7010F091F833686A4FDFF8EC
:10582800CCE113F0100F07D0684B1B68DE0503D5D9
:1058380021886088A3881BE09EF80020644B032A17
:10584800198858889B8813D97E88B6F5FA7F0FD2B5
:10585800B4F90450002DB8BF6D4272420FFA83FCB0
:10586800531B9C4503DB73196345A8BF63469BB272
:1058780097F901209EF80060DFF874E100271BB259
:1058880052425A433D46BC46B44536DA07EE902AA2
:1058980003B206EE903A0BB2B8EEE77A07EE903A0A
:1058A8009EED016AF8EEE77AF8EEE66A67EE867A28
:1058B8009EED026AE6EE867A0DF134080FFA85F954
:1058C800DEED036AE7EE267AFDEEE77ACDED027AA1
:1058D800BDF8083028F81C300FFA83F8C84504DCF6
:1058E8000FFA87F9C84502DB2B461D463B460CF1EB
:1058F800010C0EF1100E1F46C6E73649304A0B68F8
:10590800ED1B13F4805FADB230D0334BDFF8E4E029
:105918001B88DFF8E4C013F0040F304B04BFD88AAB
:10592800AEF80A04E088DC8A2D4B9B8807B2C3EBEB
:105938000408474503DCBCF80070138805E02344DD
:105948009F4205DB5788BCF80230AEF80A0410E025
:10595800BEF90A344345D5BFBCF80070BCF8023024
:1059680013885788D4BF3846184602E0E088138861
:1059780057881C4CFA1A12B22DB207EE902A95429B
:10598800F8EEE77A5CDD07EE105AF8EEC76A0127F1
:10599800C7EEA66A27700025B54231DA0DAF37F990
:1059A800154007EE104AB8EEC77A26EE877ABDEEA4
:1059B800C77A17EE104A27F815400135ECE700BF03
:1059C800924300200020EE44B4430020F44200201B
:1059D8000843002084450020BA700020D44B0020E2
:1059E80078700020D18000203C41002040430020F6
:1059F800A01C0020E02000208C430020C3F5A83E16
:105A08001FED027A022492FBF4F404FA83F327EEE2
:105A1800877A07EE903AF8EEE77AF6EE006AE7EE54
:105A2800667AFDEEE77ACDED027ABDF8082004FA31
:105A380082F307EE903AF8EEE77AE7EE267A3FE04F
:105A48005FED126A1BB267EEA67A4FF0000EB6EE53
:105A5800007A84F800E0022495FBF4F592FBF4F454
:105A68001A1967EE876A07EE102A2B4407EE903A58
:105A7800B8EEC77AF8EEE77A37EE667AF4EEC77AC8
:105A8800F1EE10FA58BFF0EE477AFDEEE77ACDED69
:105A9800027ABDF8082004FA82F307EE103A3BB206
:105AA8005B1BB8EEC77A07EE903A37EE267AF8EE27
:105AB800E77AF4EEC77AF1EE10FAD8BFF0EE477A3B
:105AC800AD4CFDEEE77A2488CDED027A04F00404AB
