:020000040800F2
:1000000000200010F1350208B1CF010839220208A2
:10001000AFCF0108ADCF0108ABCF01080000000051
:10002000000000000000000000000000A9CF01084F
:10003000A7CF010800000000A5CF01081113010897
:1000400075360208753602087536020875360208DC
:100050007536020875360208691C0108651C01081E
:10006000611C01085D1C0108591C0108A925000834
:1000700099250008892500087925000869250008C8
:100080005525000841250008753602087536020816
:1000900071C801087536020875360208551C01083A
:1000A000493101089931010875360208A931010862
:1000B0008931010879310108753602087536020860
:1000C000753602087536020875360208753602085C
:1000D000753602087D240008712400086524000894
:1000E000511C01087536020861C8010875360208FE
:1000F0005931010875360208693101087536020860
:10010000000000000000000000000000753602083A
:10011000753602087536020875360208753602080B
:100120002D2500081925000805250008F1240008E0
:10013000DB24000875360208000000000000000003
:100140007536020875360208753602080000000090
:10015000000000000000000000000000000000009F
:100160000000000000000000753602087536020825
:1001700075360208000000000000000000000000CA
:080180000000000075360208C2
:10018800426A806A131A5842584170474171704751
:1001980043799B070AD5436A8269D154436A016946
:1001A8000133B3FBF1F201FB12334362704742792A
:1001B80002F0020202F0FF0342B10369426A806A58
:1001C800013B101A1840C0B2181A704718467047F9
:1001D800437913F001031FBFC36803F1FF32C369FA
:1001E800006A1ABF181A104018467047437913F06E
:1001F800010310B504460DD0FFF7EAFF58B1236A92
:100208006269E168D05C0133B3FBF1F201FB1233A0
:10021800236210BD184610BD90F8433210B57BB963
:1002280090F8423290F84142A34209D2B0F84812FD
:1002380001229A400A430133A0F84822DBB2F3E7CF
:1002480010BDFF207047012380F845307047014BEF
:1002580018687047888100200120704770477047F0
:100268006C4B6D4A2DE9F04F5E8914684FEA062AF7
:10027800B4EB0A0A9C884FEA04481C894FF0000531
:100288004FF0000B65EB0B0BA4FB0A6704FB0B7725
:10029800F40944EA476418EB04065C884FF0000947
:1002A8004FEAE7154FEAC438DC8849EB050787B001
:1002B800CDE90467A4FB0A6704FB0B77340A44EA18
:1002C800076418EB04064FEA27259C894FF00009BC
:1002D80049EB0507CDE90067AAFB046704FB0B7728
:1002E800F40D44EA472414F5FA664FEAE75545F158
:1002F8000007B6F5FA6F77F10003CDE90267964675
:1003080067DAA4FB046704FB05F34FF0050C07EB61
:100318004307DDE90489A6FB0C230CFB07335F10B8
:100328004FEA3206B8EB06084FEA920669EB07096E
:1003380046EA83769F10DDE90023921B63EB0703EF
:10034800DDE90267CDE90023344A4FF0FF339642D6
:1003580077EB0303CDE9048928DA40F6AC52A418F8
:100368004FF000035D4104FB05F3A4FB044505EBD6
:1003780043056FF00602664202FB0566A4FB0223F2
:10038800334418EB020649EB0307CDE904670B2653
:10039800A4FB062306FB0533DDE900455B104FEAA5
:1003A8003202A41A65EB0305CDE900450AFB0BF3FD
:1003B800DDE90245AAFB0AAB0BEB430B4FEADA7205
:1003C80042EA4B02A41A4FEAEB7365EB0305CDE949
:1003D8000245DEF80440009B019DA4FB032304FBB7
:1003E80005334FEA52584FEA635948EAC328DDE912
:1003F8000423B8EB020269EB03039946D30B43EAE3
:10040800494300B1036009B1029B0B6007B0BDE826
:10041800F08F00BF10510020901C002024FAFFFF2D
:100428002DE9F04F6D4B6E4C9E682288B4F810E0B1
:10043800B4F80CC0C2EB26135200C2EBE602B4F9C2
:1004480002605B435643B4F904201B1353439B13C8
:1004580003EBE62606EB860387B080331B12049372
:10046800604BB4F908201B680393B6F5FA384FEAD5
:10047800E67747F1FF39A8FB08AB08FB09F30BEB5C
:10048800430BE3890593D31705460291B4F90A0093
:10049800A66108FB03F102FB0911A8FB02230B4428
:1004A800C1171F030AFB01F300FB0B33AAFB000172
:1004B8001603194447EA1257020A42EA01629219DE
:1004C8004FEA2123E6887B41003243F50043A2FB33
:1004D800060106FB03114B100093CB170193DDE9CE
:1004E800002313436DD00FFA8EF0BDF91460C117C5
:1004F8000AFB01F1AAFB002300FB0B11F7170B44C1
:1005080008FB07F106FB0911A8FB06670F447904ED
:100518007004801841EAD6315941039BC3F5801E07
:100528007246D3170FFA8CF8002212184FEACE76CB
:100538004FEAC3774FEAC8034B4147EA5E07B61A4A
:1005480067EB030740F63543A6FB030103FB0711DE
:10055800DDE9002322F0F2FCB4F916204E13470B14
:1005680047EAC14702FB06FED31707FB03EEA2FBCF
:1005780007237344564307FB0366A2FB0723334450
:10058800560E46EAC3168219B4F914604FEA636737
:1005980041EB07037143F71700FB0717A6FB0001A0
:1005A8003944C60C46EA413692194FEAE1474FEA08
:1005B8001221B4F912207B4141EA036113010B4473
:1005C80000E000230DB11B0A2B60029B13B11A46F1
:1005D800049B136007B0BDE8F08F00BF901C00209B
:1005E800245100204C890020704770474FF48053F5
:1005F800838170474FF480538381704703460122FB
:10060800DA7653F8043C143803B11847704790F869
:100618002F2002F0FF0322B1002380F82F300120A1
:1006280070471846704737B50446856B94F84C10E8
:10063800183006226B46A847A8B19DF800209DF8FF
:10064800013043EA022323849DF802209DF80330F9
:1006580043EA022363849DF804209DF8053043EAA9
:100668000223A384012003B030BD37B50446856951
:100678003B21083006226B46A847A8B19DF8002008
:100688009DF8013043EA0223E3819DF802209DF89A
:10069800033043EA022323829DF804209DF80530A5
:1006A80043EA02236382012003B030BD026D036B6D
:1006B80070B50446D5699BB9A90611D5C36A1BB1A3
:1006C800908C80B298470BE0E169928C40694E1C8F
:1006D800D2B2E6614254E169E268914228BFE3611F
:1006E800616BA1B92A0612D5636AA26A9A42236D80
:1006F80009D0501CA669A062B25C1A852369984289
:1007080005D3A16203E01A6822F080021A602B0761
:1007180042BF236D08221A6270BD016830B5047BA0
:100728000A68022303FA04F414420BD0064A002490
:100738001470446825684FF6FE722A402260027BD6
:1007480093404B6030BD00BF968A00202DE9F843E6
:100758000E4B93E8800305460E460024B44213DA94
:100768007B1933F9140008EB050333F9142009EB5E
:10077800050333F914301344022293FBF2F3C01A31
:1007880007F0BBF80134E9E7BDE8F883A831002099
:1007980010B5084C482006F0D7FF206807F0ADF8E0
:1007A800606807F0AAF8044B22681A6062685A6009
:1007B80010BD00BF5C2200209431002038B50446EB
:1007C800472006F0C1FF1D4B1B68DB0205D51C4BFB
:1007D8005B681868201A07F081F81A4C1A4D2079BE
:1007E80007F07CF8607907F079F82B68A068C01AE0
:1007F80007F083F86B68E068C01A07F07EF8642396
:10080800206990FBF3F007F069F8B4F9200007F0CD
:1008180065F8B4F9220007F061F8208D07F05EF85A
:10082800A08C07F05BF8E08C07F058F863792B741C
:10083800A368AB60E368EB6038BD00BF34340020C8
:10084800A83100200C5A002094310020F8B5664BDE
:10085800664D1C68664B20601A68A2625A689B68DD
:100868002363644BE2621A6862605A689B68E360BB
:10087800614BA2601A6822615A689B68A3615F4B4A
:1008880062611A68E2615A689B6863625C4B226223
:100898001A88A2865A88E28626469A882287DB88A2
:1008A80026F83A3F05F10C07B5EC010A25F024FBC0
:1008B800BD4226F8020FF7D1524B5A6BA4F84220DA
:1008C8009A6BDB6BA4F846304F4BA4F844201A8887
:1008D800A4F848205A889B88A4F84C304B4BA4F8BD
:1008E8004A201A88A4F84E205A88A4F850209A88DA
:1008F800A4F852202246DB8822F8543F444B19784A
:1009080000238B4206DA434830F8130022F8020F1E
:100918000133F6E7404B1B88A4F87E303F4B1B8819
:10092800A4F880303E4B9A69A4F88820DA691B6ADB
:10093800A4F88C303B4BA4F88A209B69C4F8843017
:100948000CF092FB384BC4F890001B88A4F8943044
:10095800364B5B89A4F87830354B1B88A4F8963061
:10096800344B1B88A4F89830334B1B88A4F89A3072
:10097800324B21461B8821F89C3F224600233048F1
:1009880050F8230041F8040F2E4830F81300A2F85D
:10099800AC002D4830F81300A2F8B2002B4830F80C
:1009A8001300A2F8B8002A4830F81300A2F8BE00D5
:1009B8000133032B02F10202E1D1264B1B88A4F874
:1009C800C830254B1B88A4F8CA30244B1A88A4F8D1
:1009D800CC205A88A4F8CE209A88DB88A4F8D020A6
:1009E800A4F8D230F8BD00BFA8310020287D00202F
:1009F800EC7D0020C87D0020D47D0020E07D002013
:100A08004C8200206850002088890020687D0020E2
:100A1800F87D00202C7E00203A4E00205C880020C3
:100A28006451002040510020402C0020302C002030
:100A38008C280020B6280020B2280020B4280020E6
:100A4800705900207C5900209428002090530020E1
:100A580086280020B02800204A590020602F002056
:100A68007FB5274C274E284D2849294A294B20B1C4
:100A780029480088B0F5805F33D23068204E91F85D
:100A880028101278ADF8040028688DF8060006F1E1
:100A98000C058DF807108DF808201B788DF80930A3
:100AA80001A82946062224F091FF30B30198BDF829
:100AB8000830F060AB80532006F046FEA08906F0AF
:100AC8000DFFA07B06F00AFFE37B0193237C0293D2
:100AD80001A8637C039306F071FE0F4B00221A8075
:100AE8000BE03088A08191F82810286812781B78CC
:100AF800A073E17322746374DDE704B070BD00BFB6
:100B0800901C0020207D0020085A0020244F00203F
:100B18004C4A0020D04A0020E83900201FB50123A4
:100B2800ADF80830ADF80410002301A9ADF80A307B
:100B3800ADF80C30ADF8062015F0BAF805B05DF840
:100B480004FB38B5A0F515746379A579DB0744D59E
:100B580094F8403205F00105EBB1A26B1068C36A46
:100B68005B08436294F8443223B1B4F84A32013343
:100B7800A4F84A3251796A00FFF7D0FF012384F8BC
:100B88004332002384F8413284F8423284F84032F8
:100B9800A4F8483238BD94F84332012B04BF94F8C6
:100BA800413284F842322046FFF736FB94F843225C
:100BB800A36B3AB9012284F843221868597905FAD7
:100BC80002F207E0002284F8432295421868597916
:100BD80008BF0222BDE83840A0E738BD8379406BE2
:100BE800DB0744BFB1FA81F1490909B110F07DBEB4
:100BF80010F076BE10B5A0F5147494F84422BAB972
:100C0800A36A616A994228D0591CA069A162C35C91
:100C18002069DBB25B0043F400738142A4F84632DA
:100C28004FF00A0384F8453228BFA262012312E07C
:100C380094F945327BB1B4F846124B08A4F8463211
:100C4800204601F00101FFF7C9FF94F84532013B46
:100C580084F8453201E084F8443294F84032002B9D
:100C68004FD194F841320133DBB2092B84F8413279
:100C780004D12046BDE81040FFF7CEBA0A2B40D178
:100C880094F843322BB9B4F8483243F00103A4F87E
:100C980048326379D9071CD5B4F84802820501D4D3
:100CA800C30705D4B4F84C320133A4F84C3210E031
:100CB800E36AC0F347000BB198470AE0E369626949
:100CC800D054E369E1680133B3FBF1F201FB12335D
:100CD800E361012284F8402294F843220023012A88
:100CE80084F841320DD1A27984F84332A36B12F013
:100CF800010F186859790CBF02220022BDE8104084
:100D08000CE710BDF8B590F84450002380F8443043
:100D180005B313490A68FAB10A68052A1ED1114BAE
:100D28001F6800F130041E460F4B1B6823B920468C
:100D380029461CF03AF900E000203368DB1B322B0F
:100D4800A5EB0005044401D8002DEDD1B5FA85F0D6
:100D58004009F8BD0120F8BD1046F8BD1846F8BD99
:100D6800548900207C5B0020CC810020002280F880
:100D78004520C7E790F84420531C0244DBB280F8B2
:100D8800443082F8301090F845200AB1132B00D96E
:100D9800B8E77047F8B50F4B14461A680E46BAB153
:100DA8001B68052B14D10C4B1F681D46002C0FDD4A
:100DB8000A4B1B6823B9304621461CF0F6F800E0C0
:100DC80000202B68DB1B322BA4EB00040644EDD972
:100DD800F8BD00BF548900207C5B0020CC81002036
:100DE800F7B51C4B1A680AB91C6800E001241A49B7
:100DF8008E7C0022D0B2A04202F1010207D202ADDD
:100E08002F18164D3544285C07F8040CF2E71A68C9
:100E1800121B1A608A7C1D6822448A749DB90320BB
:100E280040211BF0B1FC0E4A136823F4804323F0E1
:100E380070039BB283F4405343F4004343F08003B0
:100E48001360054B9D74002CCBD09DF8040003B0B3
:100E5800F0BD00BF88810020901C00208C810020FC
:100E68000C5C00407720482101221CF089BC7720C7
:100E7800582101221CF084BC7620F42131221CF078
:100E88007FBC68201CF07CBC13B5062204460321F5
:100E98001E206B461CF08EFC18B9E081208260820F
:100EA8003DE09DF800209DF801309DF8021043EACE
:100EB80002231BB21B4A07EE903A92ED007AF8EE35
:100EC800E77A012067EE877A92ED027AFDEEE77AFB
:100ED80017EE903AE3819DF8033043EA01231BB2F1
:100EE80007EE903AF8EEE77A9DF8041067EE877AF5
:100EF80092ED017AFDEEE77A17EE903A63829DF85B
:100F0800053043EA01231BB207EE903AF8EEE77A80
:100F180067EE877AFDEEE77A17EE903A238202B001
:100F280010BD00BF100000202DE9F04F054687B026
:100F3800322012F080FA002119221E201CF020FC19
:100F4800012180221E201CF01BFC642012F073FA81
:100F58002846FFF799FF002427462646A246A146C1
:100F6800A346022101221E201CF00AFC462012F092
:100F780062FA2846FFF788FFC0B1B5F91220B5F923
:100F88001010B5F90E008A421346A8BF0B468342DB
:100F9800A8BF034613F5805F02DC0AF1010A05E0E9
:100FA8000BF1010B04440F44164401E009F1010957
:100FB800BBF1090F08DD1E2000211A221CF0E0FBFE
:100FC800002398469C460FE0B9F1040FC9DDF2E70B
:100FD8000CF1010CCEEB04043F1A761ABCF1090F90
:100FE80028DCB8F1040F28DC022101221E2001931D
:100FF800CDF800C01CF0C4FB462012F01CFA2846AD
:10100800FFF742FFDDF800C0019B80B1B5F912106F
:10101800B5F91000B5F90EE081420A46A8BF0246AC
:101028007245A8BF724612F5805FD1DC013308F122
:101038000108D3E7B9F1040F1FDD0F22ADF80C202A
:1010480002A84FF400420093ADF80E20CDF814C06A
:10105800CDF810B010F050FA1022ADF80C2002A80C
:1010680048F20102ADF80E20CDF81090CDF81480AA
:10107800002510F041FA009B03E0B8F1040FDCDC16
:101088000125BAF1000F00D163B11122ADF80C208F
:1010980002A848F20102ADF80E20CDF810A0059381
:1010A80010F02AFA1F4B15B307EE904A9FED1E7AEF
:1010B800F8EEE77AC7EE277AF0EEE77AC3ED007A22
:1010C80007EE907AF8EEE77AC7EE277A9FED177A5F
:1010D800F0EEE77AC3ED017A07EE906AF8EEE77A68
:1010E800C7EE277AF0EEE77AC3ED027A04E04FF014
:1010F8007E521A605A609A60002178221E201CF0E5
:101108003FFB012120221E201CF03AFB0221002275
:101118001E201CF035FB642012F08DF9284607B01C
:10112800BDE8F08F1000002000801F4600801446A4
:1011380007B5002101AB032277201CF03BFB9DF88B
:1011480005309DF804001B0243EA00439DF80600A1
:10115800184303B05DF804FB08B5FFF7E9FF014B3E
:10116800586008BD901C002008B5FFF7E1FF014B4F
:10117800186008BD901C002007B5F7216B460622B1
:1011880076201CF017FB9DF800309DF801201B030A
:1011980043EA02139DF8022043EA1213084A136037
:1011A8009DF803309DF804201B0343EA02139DF8C1
:1011B800052043EA1213034A936003B05DF804FB69
:1011C8004C890020901C002068201CF0F3BA13B54D
:1011D800002104461CF0F8FB142012F02CF90F2112
:1011E80020461CF0F1FB0A2012F025F901AB102172
:1011F800032220461CF002FC0A2012F01CF99DF97B
:1012080004209FED285ADFED285A284B06EE902A35
:10121800F8EEE66AF7EE007A76EEC56A9DF90520E3
:10122800B0EE677AA6EEA57A0021204606EE902A4F
:10123800B3EE0E6AF8EEE66A27EE067A76EEC56A2F
:1012480083ED037AB0EE677AA6EEA57A9DF90620BB
:1012580027EE067A83ED047A07EE102AB8EEC77AED
:1012680037EE457AE7EE257A67EE867AC3ED057A9A
:101278001CF0AAFB0A2012F0DEF80DF10303204649
:10128800022101221CF0BAFB01220DF103032046C2
:1012980009211CF0B3FB204602211CF095FB01201C
:1012A80002B010BD000000430000803B1000002089
:1012B8002DE9F0410C4D04468846006816461F4645
:1012C80010F00EFB48F08001284610F078FD3946F2
:1012D80000223346284610F044FD206810F005FB34
:1012E8000120BDE8F08100BF00300140F8B5044698
:1012F8000D4D006816460F4610F0F2FA0120002145
:1013080012F088F83946284610F059FD314628462B
:1013180010F055FD206810F0E8FA0120002112F0C5
:1013280079F80120F8BD00BF0030014010B5064C27
:10133800207838B112F02AF8A368C01AC0F5FA501C
:1013480020EAE07010BD00BFE85D0020F8B5044653
:101358000F46FFF7EBFF002802DDC11712F05AF81D
:101368000A4BA0685E7800251D7010F0B9FAC921F3
:10137800074810F024FD39462A463346044810F041
:10138800F0FCA06810F0B1FA0120F8BDE85D00207B
:10139800003001402DE9F7434C4D2B68C0F80E3062
:1013A80000F10E06AB88B38007464FF00109002014
:1013B800DFF8248198F81A30012B44460DD002D367
:1013C800022B1ED024E0424B1B7823B93846022159
:1013D80001221CF047FB012328E0FFF7A7FF40BBD1
:1013E80038466946FFF7B2FF9DF8003008B19B0701
:1013F80013D1002388F81A30B9F1000F0BD09946A1
:10140800D6E7FFF793FFA0B938466946FFF79EFF76
:101418009DF8062080B9002054E02D4B1B7823B995
:101428003846032107221CF01DFB0223A376E07E29
:1014380049E098F81B0046E012F00302EBD19DF852
:1014480001109DF800309DF80300A27643EA0123BD
:101458001BB2204907EE903A91ED037AF8EEE77A4D
:1014680067EE877A91ED047AFDEEE77A17EE903A07
:10147800FB819DF8023043EA00231BB207EE903A45
:10148800F8EEE77A9DF8050067EE877A91ED057A20
:10149800FDEEE77A17EE903A3B829DF8043043EA76
:1014A80000231BB207EE903AF8EEE77A012067EEC8
:1014B800877AFDEEE77A17EE903A7B8233686361AC
:1014C800B388AB80E07603B0BDE8F083A41C0020AD
:1014D800E85D002010000020901C0020436B70B5D0
:1014E8000446DBB1187810F055F8054610F018FAE4
:1014F800014698B914230826AB712872EE71284664
:1015080010F066FA2146334B41F8143F2846F02282
:10151800334610F0A7FB28461CF0D8F904F118054B
:10152800E36B6B21802228469847642011F083FFE3
:10153800E36B6821072228469847642011F07BFF57
:10154800E36B6B21002228469847642011F073FF53
:101558000122E36B6B21284698470F2011F06BFF9F
:1015680094F82D30012B8CBF1A221822E36B1B2113
:10157800284698470F2011F05EFFE36B1C211022CC
:10158800284698470F2011F056FFE36B94F82C205B
:101598001A21284698470F2011F04DFFE36B94F865
:1015A8002E20192128469847642011F044FFE36B48
:1015B80037211222284698470F2011F03CFFE36B91
:1015C80028463821012298470F20BDE8704011F0C5
:1015D80032BF00BF0506000838B51E4C238823F02B
:1015E80040031B041B0C2380238823F038031B04AF
:1015F8001B0C43F03003238023889BB243F0400345
:10160800238005460021012011F004FF2846FFF73A
:1016180065FF6A2105F118001022FFF767FE6420B4
:1016280011F009FF238823F040031B041B0C2380BF
:10163800238823F038031B041B0C238023889BB2C8
:1016480043F04003238001200021BDE8384011F019
:10165800E1BE00BF0030014010B5047B016843695A
:101668000222A2404A60416808684FF6FE720240B2
:101678000A60596A9A6A914204D01846BDE8104037
:101688000FF05ABE012283F8442010BD0C4A0D49C0
:1016980013880968013313800B4A136801331360F8
:1016A8000A4A138801339BB28B42138001BF00237F
:1016B8001380074A138804BF01331380704700BFA3
:1016C800E8390020781C00203C34002040340020F9
:1016D8004234002038B5254B1B78093B012B0546C1
:1016E8000C4641D8452006F02FF8284606F02CF87D
:1016F8000E2D27D003D83DB10D2D07D038BD282D8C
:101708002DD0FF2D26D038BD20681FE063782078C3
:101718008BB180F0800006F017F8A468E0B206F0FC
:1017280013F8C4F3072006F00FF8C4F3074006F0D7
:101738000BF8200E14E006F007F86068BDE83840A2
:1017480006F0DBB8206806F0C9F8A068BDE83840A4
:1017580006F0C4B8064B0748197805F0E3FF0020E7
:10176800BDE8384005F0F0BF38BD00BF542F002059
:1017780069220020B8A202082DE9F04F954B964C3B
:101788008DB0CDE9000118880393002840F03A8114
:101798002378012B05D1914A637810681C1A60429E
:1017A800604100F001008E4DFFF75AF9DDE90001B4
:1017B800FFF74CF82C68492005F0C6FF894B2646F0
:1017C800186806F08BF856F8280B06F087F83046AC
:1017D8001CF0B0F9201D1CF0ADF904F110001CF04C
:1017E800A9F904F11C0811277F4E01233268BB4078
:1017F800134203D0D8F8000006F07FF80137142F01
:1018080008F10408F0D1794F04F13400032106F0FF
:1018180078F83B88B4F93A00C01A06F05FF83368E4
:1018280013F4005FB84608D0714BB4F87E001B88EB
:10183800181AC0F30D0006F051F83368590403D59F
:10184800B4F8800006F04AF833685A0504D504F164
:101858008800032106F055F833681B0503D5D4F832
:10186800840006F04AF833681F0403D5D4F89000C2
:1018780006F043F83368D80303D5B4F8940006F0AB
:101888002DF804F13C00032106F03BF804F1420076
:10189800032106F036F8274604F14800032106F034
:1018A80030F804F14E00042106F02BF8B8F80030A7
:1018B80037F9560FC01A06F011F84FF001084D4BD2
:1018C8001B78984509DA37F9020FB4F95630C01A6F
:1018D80006F013F808F10108F1E73368990505D512
:1018E800B4F97800A0F2DC5006F007F8B4F99600D5
:1018F80006F003F8B4F8980005F0FFFFB4F89A0072
:1019080005F0FBFFB4F89C0005F0F7FFD4F8A00041
:1019180005F0F3FFD4F8A40005F0EFFFD4F8A80011
:1019280005F0EBFFB4F9AC0005F0E7FFB4F9AE0041
:1019380005F0E3FFB4F9B00005F0DFFFB4F9B20039
:1019480005F0DBFFB4F9B40005F0D7FFB4F9B60031
:1019580005F0D3FFB4F9B80005F0CFFFB4F9BA0029
:1019680005F0CBFFB4F9BC0005F0C7FFB4F9BE0021
:1019780005F0C3FFB4F9C00005F0BFFF2646B4F96F
:10198800C20005F0BAFFB4F9C80005F0B6FF36F991
:10199800CA0F05F0B2FFD23436F9020F05F0ADFFD9
:1019A800A642F9D12A6814486A60AA60121A9110EE
:1019B800124A4A43531C032293FBF2F202EB4202FF
:1019C8009A1AD42303FB02032B600D4B01221A70D1
:1019D8008EE200BF40340020C82D0020781C002073
:1019E800A83100203C340020343400204A7E0020F6
:1019F80030340020F87D0020B43100201D52138CB3
:101A080048340020A24BA34A1B6811688B4206D0B9
:101A18000CA9002041F8203D1360FFF75BFE039BF3
:101A280021781B8860780B44013BB3FBF0F200FB84
:101A380012338B4280F02C820120974EFFF710F86A
:101A4800DDE90001FEF702FF50203568746805F0F3
:101A58007BFEB268336810681B68726803441068BC
:101A6800A3EB400005F049FF05F1280104F1280225
:101A780004A81CF06CF804A81CF05CF8291D221DB1
:101A880004A81CF064F804A81CF054F804A805F194
:101A9800100104F110021CF05AF804A805F08EFE9B
:101AA80005F11C0B04F11C0A11277C4901220B6863
:101AB800BA401A42894606D0DBF80000DAF800304E
:101AC800C01A05F01AFF0137142F0BF1040B0AF1A5
:101AD800040AEAD105F1320004F13201002331F998
:101AE800027F30F9022FD21B04AF47F823200133BD
:101AF800042BF4D103214FF000084FEA88035FFA62
:101B080083F804AB53F821206AB102F108000F28CA
:101B180002D848F0010806E08032FF2A94BF48F056
:101B2800020848F0030811F1FF31E6D2404605F0FB
:101B38000BFE4FF0000B0DF1100A5F4608F0030092
:101B4800022815D003281BD0012836D137B9DAF876
:101B5800001009015FFA81FB07462EE0DAF8000061
:101B680000F00F0040EA0B0005F0EEFD002724E02E
:101B78005FB1DAF80000C0F3031040EA0B0015E08B
:101B880047B99AF8010005F0DFFD9AF8000005F062
:101B9800DBFD12E0DAF80000C0F3033040EA0B0086
:101BA80005F0D2FDDAF80000C0F3071005F0CCFD0F
:101BB800DAF8001009015FFA81FB0AF1040A08ABA0
:101BC8009A454FEA9808B9D1012F02D1584605F035
:101BD800BBFDD9F8001011F400571FBFB5F87E30CF
:101BE800B4F87E209B1A049318BF01274A040AD52B
:101BF8000CAB03EB8702B4F88000B5F880301B1AF1
:101C080042F8203C01374B0513D504AB03EB870A98
:101C180005F1860E04F1860000233EF9022F30F903
:101C280002CFCCEB02024AF823200133032BF4D174
:101C3800033708050AD50CAB03EB8700D4F88420DA
:101C4800D5F884309B1A40F8203C01370A040AD59D
:101C58000CAB03EB8700D4F89020D5F890309B1A92
:101C680040F8203C0137CB030BD50CAB03EB8702C4
:101C7800B4F89410B5F894305B1A42F8203C013758
:101C880000E03FB3012F0BD1049805F036FE21E0A8
:101C9800505A002044340020A83100203434002059
:101CA8007A1E002004AB400053F82230C0B20BB1BA
:101CB80040F00100013AF5D505F046FD4FF0000A65
:101CC80004AB53F82A0008B105F017FE0AF1010A1F
:101CD800BA45F5DB3C200321FEF738FD42200321FD
:101CE800FEF734FD48200321FEF730FD4E20042185
:101CF800FEF72CFD804B56201978FEF727FDD9F802
:101D08000030980506D5B5F97800B4F97830C01ACE
:101D180005F0F3FDB4F99630B5F99600C01A05F050
:101D2800ECFDB4F89830B5F89800C01A05F0E5FD58
:101D3800B4F89A30B5F89A002F46A146C01A05F0B3
:101D4800DCFD37F89C0F39F89C3FC01A05F0D5FD2B
:101D580005F1A80A57F8040F59F8043FC01A05F00E
:101D6800CCFD5745F6D10027326807F154035B00D4
:101D78001A440137B2F9040072681A44B2F904101F
:101D8800B2681A44B2F9043002220B4493FBF2F30E
:101D9800C01A05F0B2FD032FE6D10027326807F11B
:101DA80058035B001A440137B2F9020072681A44FA
:101DB800B2F90210B2681A44B2F9023002220B4496
:101DC80093FBF2F3C01A05F098FD032FE6D1002724
:101DD80007F15C023368B16833F91200736833F9AC
:101DE80012E031F9123001377344022293FBF2F307
:101DF800C01A05F082FD032FEAD10027326807F1E7
:101E08005C035B001A440137B2F9060072681A4491
:101E1800B2F90610B2681A44B2F9063002220B442D
:101E280093FBF2F3C01A05F068FD032FE6D1B5F96C
:101E3800C800B4F9C8302E46C01A05F05EFD36F960
:101E4800CA0F34F9CA3FC01A05F057FDD23536F922
:101E5800020F34F9023FC01A05F04FFDAE42F6D129
:101E68002648274C026843684260121B9110254A95
:101E780083604A43531C032293FBF2F202EB4202B3
:101E88009A1AD42303FB024303601F4B01221A70E2
:101E98001E4B1B6819062BD51D4A1E4B1068196866
:101EA80088420ED151685A6891420AD1039A1A4958
:101EB80012880968B2EB510F08D1184A12885206E5
:101EC80004D1DDE90001FEF763FC0DE0144A1B7C38
:101ED80050791049984207D190688B68984203D18D
:101EE800D268CB689A4203D0DDE90001FEF766FCB0
:101EF8000DB0BDE8F08F00BFF87D0020A8310020AC
:101F0800B43100201D52138C483400209851002011
:101F18005C22002094310020781C002042340020EC
:101F28000C5A00202DE9F74F0E9F4D4CC2EB030BC6
:101F38000D9BFF1A6368002914BF4FF006094FF084
:101F4800040901338246164634D123684B4580F094
:101F58008280444A019152F823800093404623F03E
:101F6800A4FD0B3005F092FB009B0199054608B1D2
:101F7800012071E0032B98BF514642463A4805F0CC
:101F8800D1FB3A4A1368181A63681060013363601A
:101F9800374B1D770EE00D9A92B103FB07F20D99AE
:101FA800895C01228A40334909680A4208D163687A
:101FB8000133636063680C9A294D9342EBDB32E08E
:101FC80003FB0BF5236806EB050A2BB9705923F0C0
:101FD8006CFD00F1050801E04FF00308404605F0EC
:101FE80055FB0028C4D1214A214B1068C8EB0000DA
:101FF80010601A7F1AB12C2005F0A6FB01E001221F
:102008001A77236843B9705905F060FB9AF90410F0
:102018004B1CCCD0184803E09A4418489AF804108E
:1020280005F080FBC3E710D1012005F02FFB60B954
:102038000E4A13680A20013B136005F085FB2B68E4
:1020480001332B604FF0FF336B60206848452CBF8D
:102058000020012000E0002003B0BDE8F08F00BFA1
:102068004C340020D8720208D6A20208EC390020AD
:10207800901C002034340020E5A20208B8CC0208E5
:10208800044B1B6813F0100F034B186808BF1E3071
:10209800704700BF085A0020787B00202DE9F04FD8
:1020A8005C4D85B01E464FF4167305F1200443437A
:1020B80080460092E718A24610B92B44564A03E01E
:1020C800012805D1554A2B449A650C32C3F85C2186
:1020D8004FF4167303FB08F3EC18514820620AEB1F
:1020E80003020098D4F85CB1A0623C3203F5A073F7
:1020F80053444FF00109E16462634FF48071002298
:102108000320A363E1622264E2632163A264626440
:1021180084F8642284F86122A4F86A22A4F86C2264
:1021280084F8250084F8266084F8609284F86E822A
:1021380004F5AC7C9BF80400CDF80CC00FF02AFA2B
:1021480060659BF804000FF025FA08EB090B0522DF
:102158005FFA8BFB8271C27180F808B0494602921F
:102168000FF036FCA16D019108790FF013FA01996F
:10217800206508790FF00EFA029A82710622C27160
:1021880080F808B022210FF023FC38464946FEF7B4
:1021980025FD322011F04FF9DDF80CC0214BDCF899
:1021A80004B0009AB3FBF2F1B1F5803F03D3012BE1
:1021B800F7D95B08F5E74FF4167404FB08F805EB4C
:1021C8000809584689B2482208F5147811F0B4F87D
:1021D8000AEB0804144BC9F870320022584621460D
:1021E80010F0E6FFD9F8585016F0010F0CBF022284
:1021F800002228686979FEF791FC0C4BC9F8743203
:102208002846211D002210F0D3FF384605B0BDE84E
:10221800F08F00BF901C0020B4710208CC71020836
:10222800F072020800A24A04FD0B00084B0B0008DC
:1022380003460A4690F84E02D96A9B792EE72DE9A3
:10224800F0476A4A1378964603F0FF06002B40F0E1
:10225800CB80674D95F8D42495F8D51495F8D6C455
:10226800D5F8D83437463CB2202C00F09B80DFF8F4
:10227800948108EB840338F82480D8789B78C3F1DC
:10228800FF039BB2002B65D0C3F1FF0343433C24FB
:102298001B12B8FBF4F9B9F1050F5ED8DFE809F0B5
:1022A800030E1F2E3D4A5FFA83FCC11A08FB01F199
:1022B800B1FBF4F16144C9B202464EE0B8FBF4F256
:1022C80004FB128292B25FFA83FCC2F13C02C31A89
:1022D8005A43B2FBF4F26244D2B201463DE0B8FB85
:1022E800F4F104FB1188DAB21FFA88F8C31A08FB64
:1022F80003F30146B3FBF4F4144429E0B8FBF4FCFF
:1023080004FB1C8189B2DAB2C1F13C01C31A5943FA
:10231800B1FBF4F11144C9B220E0B8FBF4F204FBBC
:102328001282D9B292B2C31A5A43B2FBF4F20A44E7
:10233800D2B213E0B8FBF4FC04FB1C8292B2D9B20F
:10234800C2F13C02C31A53430246B3FBF4F40C44F3
:10235800E0B203E00146024600E060464FEA022C84
:102368004CEA014C4CEA000C172306F117044FF015
:10237800010808FA03F8E41A18EA0C0FA4B2DFF807
:10238800888014BF4FF011094FF0090913F1FF338A
:1023980008F80490E9D218360137B6B2BFB2154B27
:1023A800844660E7C5F8D83401238EF80030124B14
:1023B800A5F8D0641B7885F8D42485F8D51485F859
:1023C800D6C4A5F8D2447BB10C4A0D4940F22A3351
:1023D800536000234B620B889BB243F001030B80D0
:1023E800136843F001031360BDE8F087968A002064
:1023F800901C0020642100208E8900201C000240CF
:10240800002C01406A88002018190020F8B50446FD
:102418000D4D006816460F460FF062FA01200021A4
:1024280010F0F8FF394628460FF0C9FC3146284617
:102438000FF0C5FC20680FF058FA0120002110F0B9
:10244800E9FF0120F8BD00BF00300140024B1868C9
:10245800C0F30070704700BFC81600200148FEF79F
:1024680025B900BFD03C00200148FEF71FB900BFC6
:102478007C3C00200148FEF719B900BF283C002029
:1024880073B506460D46002401232A88A34013424B
:102498001AD0AA78009302F003038DF80430EB7881
:1024A800022B03D0032B0CBF032301238DF8053027
:1024B8003046C2F301136946C2F381028DF8063033
:1024C8008DF8072013F06EFD0134102CDCD102B01A
:1024D80070BD0448D0F8103113B100F58470184766
:1024E800704700BF340C00200348D0F8F8300BB117
:1024F800F0301847704700BF340C00200348D0F86C
:10250800E0300BB1D8301847704700BF340C0020BA
:102518000348D0F8C8300BB1C0301847704700BF27
:10252800340C00200348D0F8B0300BB1A83018475D
:10253800704700BF340C00200348D0F898300BB126
:1025480090301847704700BF340C00200348D0F87B
:1025580080300BB178301847704700BF340C00202A
:102568000248836E0BB1603018477047340C002066
:102578000248036D0BB1483018477047340C0020EF
:102588000248836B0BB1303018477047340C002079
:102598000248036A0BB1183018477047340C002002
:1025A8000248836803B11847704700BF340C002005
:1025B8001549D1F8883043F47003C1F88830134BBB
:1025C8001A6842F001021A605868114A02405A60BB
:1025D8001A6822F0847222F480321A601A6822F48F
:1025E80080221A605A6822F4FE025A60DA6A22F0DF
:1025F8000F02DA62186B074A02401A6300229A60D7
:102608004FF000638B60704700ED00E0001002405F
:102618000CC07FF8CCFC00FF2DE9F04F2DED028BAC
:1026280099B0CDE902010AF0B0F8B24B1B78002B43
:1026380041F03D87B04E33685A0541F13887AF4CB9
:102648002378002B00F0F681AD4963680A68D31A35
:102658007C2B884640F2EE81237AAA4D62600133D2
:1026680023720327C7F12700C0B20AF065FC55F8AA
:10267800040F4FF47A735843A34B9B8990FBF3F0F4
:1026880000B20AF047FC013FECD1A04D30200AF01F
:1026980053FC95ED450A23F02FFC00B20AF03AFCF2
:1026A8000AF042FC237A9B0733D1944B5A6841F2D3
:1026B80088339A421AD9D5ED427AFDEEE77A10208E
:1026C80017EE907A4FF064090AF036FC97FBF9F59B
:1026D80028B20AF01FFC21200AF02EFC09FB157015
:1026E8000028B8BF404200B20AF014FC14200AF0D7
:1026F80023FC874BB3F904000A2390FBF3F00AF09C
:1027080009FC1C200AF018FC00200AF003FC0AF05F
:102718000BFC237A5D0740F0698102200AF00CFC6B
:102728007C4BD8696423323090FBF3F000B20AF096
:10273800F1FB794B0320B3F906500AF0FDFB774B08
:102748001B8858074FF0050795FBF7F5ADB209D57B
:102758001FF022FE20B9336813F0100F18BF0025B0
:1027680028B204E06E4B9889B0FBF7F000B20AF08B
:10277800D1FB3368990767D56A4F65896A4E3978FE
:1027880032882D016423ADB203FB02124B00B2FB69
:10279800F3F345EA0325ADB2C3F303231D43062033
:1027A8000AF0CAFB28B20AF0B5FB63893A7801330C
:1027B8009BB293FBF2F102FB11336381237E012B61
:1027C80005D139200AF0B8FBB6F900001FE03588BA
:1027D8006E236B43152593FBF5F5484B5B7EADB235
:1027E8000BB195FBF2F53A200AF0A6FB6427B5FB7E
:1027F800F7F630B20AF08EFB07FB16553B200AF0BD
:102808009BFBA8B2451D0A2095FBF0F000B20AF028
:1028180081FB28200AF090FB444B0A201B6893FB9D
:10282800F0F000B20AF076FB04200AF085FB3C4B7E
:102838009B8913B112F0FEFC03E03D4B186880F34E
:10284800100000B20AF066FB3A4B1B685A0640F1CA
:10285800C280394F394E3B6813F0020F1DD011204A
:102868000AF06AFB308C364B4FF4F36510FB05F029
:1028780090FBF3F000B20AF04DFB19200AF05CFB64
:10288800308C10FB05F5642095FBF0F595FBF0F313
:1028980000FB135000B20AF03DFB3868336910F0B2
:1028A800020518BF64254FF001001CBF93FBF5F526
:1028B800ADB20AF041FB28B20AF02CFB09200AF05D
:1028C8003BFB00200AF026FB328D7579B2F5967F26
:1028D80009D9237A03F00F03072B04D842F20F75A6
:1028E800954228BF154605200AF026FBE37D5BBB11
:1028F80028B246E08F8900209851002098210020B6
:102908007C5B00209850002068500020B0720020A6
:1029180088890020405100204C82002086890020B0
:10292800024E002044160020144E0020442C0020A3
:10293800104E002060510020085A00200C5A002038
:10294800A08601006666E63FA5F1200307EE903AEF
:102958001FED047AF8EEE77AF6EE006AC7EE877A9A
:10296800BEEE007AF5EEC07AF1EE10FA58BFB0EE7E
:10297800667A77EE877AFDEEE77ACDED057ABDF9CE
:1029880014000AF0C7FA0023089309933B689B07D1
:1029980004D494F82020B44B012A08D1012384F8E8
:1029A8002030B3680893F368099308A81AE0DFEDAC
:1029B800AF6A93ED037AD3ED047A27EE267A67EEB1
:1029C800A67ABDEEC77AFDEEE77A8DED0E7ACDEDEB
:1029D8000F7A0EA806E0A64A92E803000EAB83E839
:1029E800030018460AF0B8FA0AF09EFA237A282B50
:1029F80020D19D4BD8F8000000221A723C274FF4D2
:102A08007A73B0FBF3F617200AF096FAB6FBF7F5DF
:102A1800B5FBF7F007FB1050000200B20AF07AFA93
:102A280018200AF089FA07FB156000B20AF072FA5A
:102A38000AF07AFA94F82130002B00F00E828A4CC2
:102A480094F822302646032B00F20782DFE813F0C1
:102A580004001000BE01D401606A0EF0B4FC002826
:102A680000F0FB81804B00229A62012001F03BBB01
:102A7800D4E90C23DDE90201801A61EB0301002986
:102A880008BFB0F57A6F0ED30AF026FA0020CCE121
:102A9800BD6A012D0DDC6B1C786ABB620EF08DFCE3
:102AA8003D4485F83800706A6F4F0EF08CFC0028A2
:102AB800EED1A26A6C4B012A40F3CF8193F83820FB
:102AC80012F07F0140F07D8193F839208A2A04D0E2
:102AD8008E2A00F0E98001F005BB664A12685506A7
:102AE80041F100836449DFED657A4A7983F854201F
:102AF800634ADFED646A92ED457A77EE277AF4EE61
:102B0800E67AF1EE10FA48BFF0EE667AFDEEE77A63
:102B180017EE902AF0EE087A27EE277ADFED5A7A38
:102B280084F8512087EE277A121284F85220DFEDBC
:102B3800577A77EE277AF4EEE67AF1EE10FA48BF84
:102B4800F0EE667AFDEEE77A17EE902A84F85320C5
:102B58004F4A1268900703D42D2283F8552079E054
:102B68000A79D1F808E0DFF83CC14A48CE68022A61
:102B78000CBF3322322283F855209EFBF0F30CFB66
:102B880003E503EB8303444A96FBF0F0062703EBC7
:102B980083037D439B0095FBF2F802FB185543FA2B
:102BA80088F8314B0CFB006C00EB8000642407FBB9
:102BB8000CF795FBF4F500EB800083F846502D12D6
:102BC80083F84750800097FBF2F502FB157292FBE1
:102BD800F4F283F84B20121240FA85F083F84C2067
:102BE800B1F9202080B283F8490002EBC202000A42
:102BF80083F84A0092004FF47A7092FBF0F283F85F
:102C08004120C2F3072283F84220244A128883F81D
:102C18004D20120A83F84E200A6992FBF4F202F55D
:102C2800FA7292B283F84F20120A83F850201C4A95
:102C38001FFA88F84FEADE7E83F84480F60F4FEAE1
:102C48001828128883F843E083F8458083F84860A1
:102C580083F85620044B03F13A029A662C2283F833
:102C68006C2001F03DBA00BF982100208096184BD7
:102C780018730208605100200C5A00200060EA46D0
:102C8800B0720020000000000000C8420000F042BE
:102C9800085A00208096980040420F00CA2C002055
:102CA800CC2C0020806967FFAF4AB048128883F8AF
:102CB8006F1083F87110D1B2120A83F88B1083F861
:102CC8008C2083F8811083F88220D3F89C10026846
:102CD8009D7E511A4FF47A726A4391420DD302686D
:102CE800C3F89C2093F8A020013A012A9FBF102224
:102CF80083F86F20022283F871209D4B9FED9D6A17
:102D08001A689FED9D7ADFED9D6A9D4B0A2192FB23
:102D1800F1F284F88920121284F88A20994A1B68F3
:102D2800D2ED427A93FBF1F3C7EE867A84F88D30C0
:102D38001B1284F88E3077EE877A92ED457AF4EE9E
:102D4800E67AF1EE10FA48BFF0EE667AFDEEE77A21
:102D580017EE903ADFED8C7A84F8873077EE277A91
:102D68001B12F4EEE67AF1EE10FA48BFF0EE667A3E
:102D7800FDEEE77A84F8883017EE903AF0EE087A9C
:102D880027EE277ADFED817A84F88F3087EE067A8E
:102D98001B1284F8903077EE277AF4EEE67AF1EE9B
:102DA80010FA48BFF0EE667AFDEEE77A17EE903A31
:102DB80084F89130764BA3662C2384F86C3001F0AC
:102DC8008FB97F2A7FF43BAE01F08CB9D4E90C238C
:102DD800DDE90201801A61EB03010B46002102467E
:102DE800994241F2873008BF904236D2694B00229F
:102DF80083F8A120032018E0DDE90223002B08BF97
:102E0800B2F5FA6F29D396F86C50624C96F8A12067
:102E180096F8A23075B90133606A84F8A230114679
:102E28000EF0D4FA0AF058F82846DDE902230AF031
:102E380061F812E0A16E606A097801330A4484F8E7
:102E4800A23084F8A1200EF0C1FAA36E0133A36664
:102E580094F86C30013B84F86C304E4C434B94F83A
:102E6800A3201E689A46002A00F02A82D4F8A430CB
:102E7800002B00F0258294F8A830013B012B00F2CA
:102E88001F82D4F8A400434D0EF09DFAE0B1D5F8A6
:102E9800A4000EF092FA95F8A930DAF800807E2B9B
:102EA80007460ED102231B2885F8A83009D1D5F88A
:102EB800A4000EF088FA20B90123C5F8AC8085F883
:102EC800B03084F8A970DCE7D5F8AC20DAF8003027
:102ED8009B1A41F65832934222D9032385F8A83029
:102EE800EEE12D4A32F8135015B92B464FF403651D
:102EF8000133B5F5C06FDBB200F0068122D9B5F514
:102F0800006F00F00C8140F28E80B5F5036F40F041
:102F18009B8084F8B130214B1B68590600F1A380CF
:102F280094F8B01094F8B130002900F0C781DAF8AD
:102F38000020921B012AD4D984F8B130002384F8E8
:102F4800B030BDE1B5F5047F00F0AB8028D8B5F509
:102F5800887F00F01D81B5F5007F00F0B780B5F5DA
:102F6800807FE1D1C0E000BF144E00207C5B0020D0
:102F7800442C00200000C8420000FA430000000072
:102F8800104E0020B07200200060EA460000F042B7
:102F980005220020982100200AA302086051002081
:102FA800B5F5826F00F01D81B5F5846F69D0B5F570
:102FB800806FB9D184F8B130B14B1A8842F21073DE
:102FC80012F0010F42F2117108BF1946AD4B950777
:102FD8001B6848BF0231500748BF0431DA0748BFB1
:102FE8000A319D0748BF1431180548BF2831DA0552
:102FF80048BF28315D0748BF6431180748BFC8314A
:103008009A0648BF01F5C871DD0648BF01F57A7117
:10301800D80448BF01F5FA615A0648BF01F57A613C
:103028004FF48060AEE0B5F5E26F00F0CA80B5F508
:10303800E46F00F0CB80B5F5E06F7FF475AF924A8E
:1030480084F8B130516BC5E004D8B5F5026F00F0D3
:10305800F08069E7B5F5046F00F0A980B5F5116F48
:1030680000F0F78060E7894B1B689A077FF558AF37
:10307800874B198C4FF4F36311FB03F32846642143
:10308800F5E084F8B130834B1B685B067FF548AFE9
:103098007E4B1B6898077FF543AF7F4B28461988FE
:1030A800E7E084F8B1307D4B1B6899077FF538AFAE
:1030B8007B4B5A7E7B4B1B881AB17B4A117893FB5A
:1030C800F1F30A214FF4047059435BE084F8B130FE
:1030D800724B1B681A057FF523AF744B2846196895
:1030E8000A2391FBF3F1C4E084F8B130694B1B6803
:1030F8005B077FF515AF6E4BD3ED427AFCEEE77AAE
:10310800284617EE901AB4E084F8B130634B1B6878
:1031180018057FF505AF674B28461968A9E05D4A91
:1031280084F8B130126851067FF5FAAE574A126832
:1031380092077FF5F5AE13F0010F554B11D0DA6801
:1031480082EAE273A3EBE273002A4FF0190103EB62
:103158005303B3FBF1F343F0004111DA43F040416C
:103168000EE09B6883EAE371A1EBE371002B01EBAE
:1031780051014FF01902B1FBF2F1B8BF41F08041A3
:103188004FF4006009F0A2FC002384F8B030C7E6D1
:1031980084F8B1303F4B1B685B077FF5C1AE444BE9
:1031A80093ED450A22F0A8FE0146284661E084F81E
:1031B800B130414BB3F9041001EB810128464900B5
:1031C800E0E7314A84F8B130916B03E02E4A84F885
:1031D800B130D16B64234B432846918993FBF1F1BD
:1031E800D0E784F8B1302B4B1F6817F0400713D095
:1031F800264B1A6812F0020F14BF4FF47A7100219F
:1032080012F0010F224A14BF4FF4FA6300230B4453
:10321800517928461944B5E7204B1B681B067FF5F2
:103228007FAE2846394609F051FC1D4B83F8B07033
:1032380076E684F8B130174B1B6858067FF570AEF8
:10324800124B1B6899077FF56BAE114B284619691D
:103258000FE084F8B130114B1B689A077FF560AE18
:10326800104B114A19880A234B431178284693FBBF
:10327800F1F109F02BFC0A4B002283F8B0204FE64D
:1032880086890020207D002068500020085A0020F0
:103298000C5A002060510020CA2C002098510020B0
:1032A80098210020144E002044160020442C0020B1
:1032B800B0720020104E00208889002084F8B130B8
:1032C80094F8B220864B002A00F08781D3F8B42006
:1032D800002A00F08281DAF80060D3F8B820B21A28
:1032E800632A40F27A8193F8C020D3F8BC309D5C01
:1032F800EB0725D50EA809F0A9FC0E9BDFF8F8818D
:103308005A1C0E9241221A700A27B8F9021091FB32
:10331800F7F10EA889B209F08EFCB8F9001091FBFC
:10332800F7F10EA889B209F086FCB8F9041091FBF0
:10333800F7F10EA889B209F07EFC0EA809F044FC4A
:10334800A80751D50EA809F081FC664BDFF8A0B19B
:103358001F6817F040071AD09BF8043043B1012BBF
:1033680009D0022B14BF4FF000094FF0030904E005
:103378004FF0010901E04FF00209BBF92070DBF8BA
:103388000810DBF80C30642297FBF2F702E03B46AA
:103398003946B946544A059392ED428A0E9A0DF180
:1033A8006008501C48F8280D47201070404609F066
:1033B8002DFC059B40461946BDEEC88A09F026FC3F
:1033C8004046F9B209F016FC404618EE101A09F00A
:1033D8001DFC9BF8051049EA81014046C9B209F075
:1033E80009FC404609F0F0FB290724D50EA809F08E
:1033F8002DFC0E9B5A1C0E924F221A700EA8D4F860
:10340800C41009F003FC0EA8D4F8C81009F0FEFB9C
:103418000EA8D4F8CC1009F0F9FB0EA8012109F088
:10342800E9FB324B19680EA801F0010109F0E2FB33
:103438000EA809F0C9FBAA062AD50EA809F006FCB1
:1034480011F0D4FD0E9B5A1C0E9258221A70284B6C
:103458000746198D0EA809F0EEFB87F001010EA8AA
:10346800C9B209F0C7FB94F8D0700EA8394609F024
:10347800C1FB0EA894F8D11009F0BCFB0EA80021DE
:1034880009F0B8FB01370EA884F8D07009F09CFB4E
:103498006B0770D50EA809F0D9FB164B1B68D80529
:1034A80012D4D90412D4DA0612D4980612D413F01E
:1034B800440F11D1190711D4DA071FD413F0020FE2
:1034C80014BF032701271AE0002718E00A2716E08F
:1034D8000D2714E0092712E00B2710E008270EE05B
:1034E8009821002060510020B0720020085A002066
:1034F8000C5A0020207D0020888900200227A94B33
:10350800B3F80080A84BDB78C8F380081BB148F0FB
:1035180002085FFA88F80E9B5A1C0E9253221A7002
:10352800A24B198801EB810101EB8101890089B265
:103538000EA809F080FB9E4B196881F310010EA8B4
:1035480089B209F078FB9B4B1988FE2359430EA8D2
:1035580040F2FF3391FBF3F1C9B209F04BFB0EA81F
:10356800002109F047FB0EA848EA870109F042FB51
:103578000EA809F029FBE80623D50EA809F066FB7A
:103588000E9B8D4D5A1C0E924E221A700EA8297849
:1035980009F030FB0EA8697809F02CFB0EA86979B0
:1035A80009F028FB0EA8297909F024FB0EA8A978B0
:1035B80009F020FB0EA8E97809F01CFB0EA809F019
:1035C80003FB94F8C030C4F8B86001330A2193FBB8
:1035D800F1F201FB123384F8C03094F8D2B0BBF199
:1035E800000F00F0F683754BD3F8D430002B00F0B1
:1035F800F083D4F8D4000DF0E6FE002800F0F9803E
:103608006E4B6F4DD3F8D4000DF0D7FEEA78002347
:1036180007462B700A2A7ED8DFE802F0060616262F
:103628001E2D34404F646400FE2874D10223EB70D1
:10363800002384F8DB304FF0FF3384F8DA0084F895
:10364800D83084F8D93066E02B7184F8DB005D4906
:1036580009F0ACFA042305E084F8DC00594909F0C4
:10366800A5FA0323EB7056E084F8DD00554909F00C
:103678009DFA0523F6E784F8DE00524909F096FA28
:103688000623EFE784F8DF004E4909F08FFA94F833
:10369800DB300BB90823E5E70723E3E72B79494932
:1036A8005A1C23442A7183F8E00009F07FFA2A792A
:1036B80094F8DB309A422ED1ECE794F8DF30424A96
:1036C80040491344187A09F071FAB4F8D830DBB2DB
:1036D8009F4214BF0A230923EB702B79234483F8F4
:1036E800E07018E00A2A05D0B4F8D82083B2B3EB0A
:1036F800122F01D0022300E001232B700123EB706D
:103708002B7932482344A0F5886183F8E1704FF49F
:10371800887222F06BFA95F80080294AB8F1010FF7
:1037280007D194F8DC305371138903B953810133FD
:103738002B816879EA7894F8DB3084F82B260130FD
:1037480084F82D0628892A79A4F830064FF0000954
:10375800A8781A4E84F81B35B8F1020F184984F876
:103768002C26A4F8320685F8029031D1B318FE2F22
:1037780093F8E12093F8E03081F8009043EA0223BF
:10378800A6F818354FF001038B7040F0B2844FF063
:10379800FF3381F8038086F8DB9086F8D83086F806
:1037A800D93026E786890020244F0020144E0020B7
:1037B800104E0020402C0020CE2C00209821002004
:1037C8006A8300207022002018730208B0260020A7
:1037D800B8F1010F7FF40DAF96F81F25282A00F0E5
:1037E800DF8500F2BB84002A3FF403AF272A00F0EC
:1037F8000685824901F5C863D3E90023DDE902673C
:10380800B61A67EB03073B46002732469F4244F649
:103818001F6608BF964280F0DC8291F83C36002B88
:1038280040F0CF82022009F0A7F9002868D0744B35
:103838001B6849F6074213F0080F48F6034518BFFE
:1038480015465F0744BF45F4005545F008055E0678
:103858006C4B1B6844BF45F4804545F0200513F0C8
:1038680002021FBF68490E8806EB860606EB86062D
:103878001ABFB600B6B21646180548BF634BC5F363
:1038880009074CBFB3F800804FF6FF781AB111F062
:10389800F7FCC0B200E064200023ADF84430ADF876
:1038A8004A30ADF84C30ADF84E30ADF85030ADF888
:1038B8005230ADF85430564BADF846600E950F9522
:1038C8001097ADF848808DF856000EAA14AE15462C
:1038D80003CDB542186059602A4603F10803F6D1B2
:1038E80028681860A988AA799A719980494B01209B
:1038F800D871FA211F227C231DF0D4FC09F01AF993
:10390800032009F039F9002861D0434BDAF8009018
:103918001B78002B00F0F083404A012B158840F2F9
:10392800EC83022BB2F802C000F0E983032B9788DE
:1039380000F0E683042BB2F806E000F0E383052BE1
:10394800B2F8088000F0E083062B568900F0DD838A
:10395800072B918914BFD2890022314BADF84A2038
:103968001B88ADF846600022C3EB032340F2FF300A
:1039780093FBF0F38DF84D30254B8DF84C20CDF8A6
:103988003890ADF83C50ADF83EC0ADF84070ADF899
:1039980042E0ADF84480ADF848100EAA12AE1546C4
:1039A80003CDB542186059602A4603F10803F6D1E1
:1039B80028681860AA889A80164B2322DA71FA219F
:1039C8001622F42301201DF06DFC09F0B3F806203F
:1039D80009F0D2F8002800F0C480094B1B6859068A
:1039E80040F1BF800F4D2B7933B1012B1CD0022B36
:1039F80014BF0020032018E0012016E098210020C1
:103A08006051002098510020144E0020442C0020C2
:103A1800628200205A820020584F00206C4F0020FC
:103A2800402C00200C5A0020022005F108010EC984
:103A38000A265E436B8C2F8CB5F824C0B5F826E0B7
:103A480095F805B0119203EB83035B00DDE9028969
:103A5800ADF85230BB4B12960EAACDE90E89ADF8DF
:103A680050701091ADF84CC0ADF84EE08DF8540090
:103A78008DF855B00DF1500816461F469646BEE81B
:103A88000300C64518605960724603F10803F5D172
:103A9800DEF800001860BEF80420DFF8B8929A80BB
:103AA800FA2118231E22012089F807301DF0FAFB9D
:103AB80009F040F8A44B2869D3ED427AA34BEA6891
:103AC800A968B3F904301092B2EE047A67EE877AE7
:103AD8000A25FDEEE77A93FBF5F300226843029D81
:103AE8000E95ADF852300F911190CDED127AADF8D8
:103AF8004C20ADF84E20ADF85020B64609F1080329
:103B08004D46724603CA424518605960964603F10D
:103B18000803F6D1106818602123FA211C22EB71E2
:103B2800012068231DF0BEFB09F004F8D4F8CC107E
:103B3800D4F8C8200F920A234B43D4F8C41010932A
:103B48000E91334603CBA860186879603123B860BA
:103B5800EB71FA210C22272301201DF0A3FB08F0AA
:103B6800E9FF0A2009F008F8002849D0774ADFED74
:103B7800785AB2F90030DAF800100E9106EE103AD1
:103B8800B2F902305B4207EE903AB2F9043007EE20
:103B9800103AB8EEC66AF8EEE77AF8EEC76AB2EEFF
:103BA800045A86EE056A0023129313931493654B07
:103BB8000EAD14AEC7EE857A86EE857A26EE256AB6
:103BC80067EEA57A27EE257A8DED0F6ACDED107A8E
:103BD8008DED117A2A4603CAB2421860596015461B
:103BE80003F10803F6D1106818605A4B1E22DA71E7
:103BF800FA211C22272301201DF054FB08F09AFF0C
:103C08000B2008F0B9FF002800F0DB80524B9FED35
:103C1800536A1B68DFED525A13F0400F1EBF514B19
:103C2800B3F9203007EE903A474BD3ED426A93ED53
:103C3800457A464B4FF00A02B3F9043093FBF2F28F
:103C4800494B18BFF8EEE77AB3F9063018BFC7EE4C
:103C5800867A92B208BFF0EE657AB3F57A7FC6EE3F
:103C6800866A87EE067A05DBB3F5FA6FA8BF4FF4CC
:103C7800FA6301E04FF47A73ADF84820A3F57A733C
:103C8800642253434FF47A7293FBF2F3ADF84A304F
:103C98002C4BCDED0E5A0EAACDED0F7ACDED106A54
:103CA8008DED117A0DF1480E15461F46164603CEC6
:103CB800764518605960324603F10803F6D130683A
:103CC800244E186014224A23FA21F3710120134666
:103CD8001DF0E8FA08F02EFF244BDFF8A0B0B3F887
:103CE8000080234B1B7808F004081FFA88F8013B72
:103CF800DBB2B8F1000F0CBF4FF0410A4FF0C10A18
:103D0800172B96BF5B444FF0000993F808911AF0FF
:103D1800F5FF184B1B6813F0100F0BEB000314BFD3
:103D280093F820B193F82AB108B14AF0100AB8F113
:103D3800000F25D0104BDB78002B14BF052204227E
:103D480024E000BF62820020B07200208889002031
:103D580035FA8E3C5A820020605100200000C8428B
:103D6800000000000C5A00206C4F002086890020BB
:103D78006C7E0020085A0020244F00201873020887
:103D88000CF06CF9002814BF0222032200238DF8DE
:103D98003F2003228DF83D308DF84020CDF838B013
:103DA8008DF83C908DF83EA003CD3A72386079606A
:103DB800F371FA210922322301201DF073FA08F069
:103DC800B9FEDDE90201D24BC3E90001002384F802
:103DD8003C3694F8483683B994F84936CD4D002BD3
:103DE80000F0658330E0D5F84C060DF0E6FA95F85A
:103DF800503653B1013B85F85036D4F84C06C54DC2
:103E08000DF0E1FA0028EED1E6E795F8523685F88C
:103E1800513695F8533685F8523695F8543685F864
:103E2800533685F85406042105F251601CF0F2F966
:103E38000028E2D005F2516008F01CFF95F85036D2
:103E4800184485F85006D8E795F8552642B1B24B84
:103E580005F2566118680DF0BCFA002385F855364E
:103E6800DDE90267D4F87C06AA4B00F5C3300021CF
:103E7800A0308F4208BF8642C0F0198393F880565D
:103E8800029AC3F87C265A1992F88176FA0755D512
:103E980018AE002283F8862683F8872603F2896203
:103EA80046F8282D03F2AB610822DFF8AC8283F8CC
:103EB80088260F9130461E2109F0A8F8B8F902307B
:103EC800DFED968A9FED968A07EE903AF8EEE77A4C
:103ED800304667EEA87A67EE887AFDEEE77ACDED90
:103EE800027ABDF8081009F0B4F8B8F9003007EE06
:103EF800903AF8EEE77A304667EEA87A67EE887A65
:103F0800FDEEE77ACDED027ABDF8081009F0A1F8C8
:103F1800B8F9043007EE903AF8EEE77A304667EEE3
:103F2800A87A67EE887AFDEEE77ACDED027ABDF8D9
:103F3800081009F08EF8304609F04AF8BE073BD55C
:103F4800784B0F9318AE223B46F8283D4FF00008F7
:103F58004FF00A0984F888963046082184F8878645
:103F680084F8868609F052F86F4B3046198809F0B4
:103F780070F86E4B3046196891FBF9F189B209F077
:103F880068F86B4BB3F80C9011F07AF94146824609
:103F9800304609F03BF830464FEA192109F036F867
:103FA80030465FFA89F109F031F83046514609F098
:103FB8002DF8304609F00CF878073BD5594B0F938C
:103FC8000DF16008223B48F8283D0022212184F8A1
:103FD800872684F88826404684F8862609F016F84D
:103FE800544B1B68590508D4DA0708D413F0020F9C
:103FF800514B524E08BF1E4602E0514E00E0514E52
:10400800304621F052FDB1468246C6EB09035345BE
:10401800404604DA19F8011B08F0F8FFF5E700211B
:1040280008F0F4FF0E9B484A9B1A84F888364046ED
:1040380008F0CEFF3B0749D53A4B0F9318AE223B09
:1040480046F8283D00221123404F84F8872684F83B
:1040580088363046022184F8862608F0D7FF304695
:10406800B96808F0E1FF3046F96808F0DDFF3B8CDD
:104078003222242113FB01213046642391FBF3F102
:1040880089B208F0E6FF798C01EB8101490089B219
:10409800304608F0DEFF2E4B9FED2E7AD3ED427AA4
:1040A800C7EE877A30469FED1D7A77EE877AFCEE69
:1040B800E77ACDED027ABDF8081008F0CAFF30465D
:1040C800797908F0A3FF304608F082FF94F8AB2610
:1040D800013595FBF2F302FB135584F88056E6E1AF
:1040E800022000E00020DDE9022308F003FFFEF7CC
:1040F800A6BCCB70FFF77DBA1D464FF0000C002719
:104108004FF0000E4FF00008002600210A4624E474
:10411800D8270020982100204450002000007A442D
:1041280035FA8E3C43280020144E0020442C0020F1
:10413800024E0020207D002039A302083EA3020879
:1041480030A3020834A30208202800200C5A0020BB
:10415800B07200200000C842888900202C2A1ED096
:104168002D2A03D02B2A7FF444ABF1E0022B28BF81
:1041780002231A460EA806F5A461ADF8389021F07E
:1041880035FD9DF83830012B7FF433AB15F0FAF983
:1041980096F81D2596F81E35CDF8009078E1042B89
:1041A80028BF04231A4608A806F5A461CDF8209074
:1041B80021F01CFD9DF82230012B7FF41AABBDF8CD
:1041C800201096F81D2596F81E353C2911D88DF833
:1041D8003A208DF83B30ADF83890B74B0E9843F83D
:1041E80008092822C6F83416C6F83896DA71404607
:1041F800A3E0B249098849071ED4042147E149468A
:1042080025220EA8059321F00CFC059B252B28BF21
:1042180025231A460EA806F5A46121F0E7FC9DF8AF
:104228005830012B7FF4E5AAA44B1B885B0706D501
:1042380096F81D2596F81E35CDF8008028E19DF8E2
:104248005C302BB1BDF8562022F00403102B05D0AA
:1042580094F81D2594F81E35032177E09DF85A300F
:10426800032B09D0022B01D1142A05D094F81D255F
:1042780094F81E35022169E0BDF85460D4F8381668
:104288008F4B8E425DD10136C3F83866DFED8D6AFB
:104298009DED127ADDED137AD4F8347627EE267A7E
:1042A80067EEA67ABDEEC77AFDEEE77A8DED097A5C
:1042B800CDED0A7A9FED847ADDED147A67EE877A80
:1042C800142A14BF012304230025FDEEE77A8DF894
:1042D8002030F0B2BE42ACBFA5232B4608A9CDEDD5
:1042E8000B7AADF83050ADF83250ADF834508DF847
:1042F800363015F01DFCBE420EDB744B94F81D25BC
:1043080093F84C3723B194F81E3500950120C0E08E
:1043180094F81E35052119E094F81D2594F81E35EA
:104328008DF81E208DF81F30ADF81C60624B079881
:1043380043F808092822DA710120FA210422E62329
:104348009DE093F81D2593F81E350D210091DDE7BA
:10435800022B28BF02231A4608A806F5A461ADF867
:10436800209021F043FC9DF82030012B7FF441AAD6
:10437800564996F81D2596F81E3591F94D17ADF852
:1043880038108DF83A208DF83B304B4B0E9843F897
:1043980008092C22DA714046FA210422DD236EE056
:1043A800042B28BF04231A4607A806F5A461CDF8F4
:1043B8001C9021F01BFC9DF81E30012B7FF419AADC
:1043C800424BBDF81C5093F94D379D425ADA681C90
:1043D800C0B208A915F0E6F8DDED097A9FED397A43
:1043E8009FED396A9DF8203096F81D0596F81E1540
:1043F800ADF85450F8EEE76ADDED0A7A8DF858000A
:10440800F8EEE77AC6EE876A042B4FF000030BBF7D
:1044180002220322142610260E930F931093119351
:10442800254BADF856608DF85A2087EE877A8DF8BF
:1044380059108DF85B908DF85C800EAA16AEDDEDF4
:104448000B7ACDED126AF8EEE77A8DED137AC7EEA6
:10445800867ACDED147A154603CDB54218605960B9
:104468002A4603F10803F6D1286818602A791A71D8
:10447800174B2722DA710120FA212522FE231CF08E
:1044880011FF09E096F81D2596F81E350D210091BB
:104498004046FA211CF05CFF08F04CFBBBF1000F12
:1044A8003FF4A7A9012384F83C36FFF7A2B919B055
:1044B800BDEC028BBDE8F08F628200208689002067
:1044C800982100208096184B0000C842B072002046
:1044D8005A820020AC4B1B682DE9F04F9B6AAB4F0A
:1044E80007EE903A2DED088BF8EEE77A9FEDA89A43
:1044F8003B6067EE897AA74BC3ED007AA64B9BB069
:104508005A79049304460D460AB90BF075F9049BD1
:104518005B79022B09D0A14B1B689A0705D519F0C6
:10452800EBFC2046294619F075FF9D4B03931A7939
:10453800DFF8B092002A00F081809A4B9A4E1B68EF
:1045480013F0100304D1ADF84830ADF84A3040E01C
:10455800964B1C68B6F90830B4F9540000EE103ACE
:10456800B8EEC00A1AF0EAFCB6F90A30ADF848000D
:1045780000EE103AB4F95600B8EEC00A1AF0DEFCA4
:104588008B4BADF84A001B689FED8A6ADB7906EE13
:10459800903AB6F90C30F8EEE66A07EE103AF2EE09
:1045A800047A66EEA76AB8EEC77A37EE267A76EE10
:1045B800A66A27EE067AC7EE267A9FED7F7A77EE0F
:1045C800C67A77EE877AF1EE677AFDEEE77A17EE2C
:1045D800903AADF84C303388ADF84E30774BB9F897
:1045E80016401868764B1D88F37900F4805003EB69
:1045F80083010023734A5E1832445278012A0BD093
:1046080005D3022A16D112AA32F813600FE0039AD2
:1046180002EB4302568D0AE0032B6B4A01D00026B9
:1046280006E000280CBF2E462646D68002E0664AE1
:1046380022F813600133042BDCD19CE05C4BDFF8DB
:10464800A8A1D3F800B0DFF8A4819BF802409AF83B
:104658000060B8F900005C4D324621460BF0C0FC02
:104668000090BDF80030B8F902002B803246214690
:104678000BF0B6FC68809BF809109AF801200646F2
:10468800B8F904000BF0ACFCB8F90610B9F818300A
:1046980040429942A88005DBB1F5FA6FA8BF4FF4F4
:1046A800FA6100E01946C91A4FF47A725143474A31
:1046B8004548C3F5FA63B1FBF3F16FF063034FF0BC
:1046C800640C91FBFCF803FB081332F818E008F1BE
:1046D800010832F918100FFA8EF28A1A0399C9786C
:1046E8005A4392FBFCF37344EB802D4A00293AD0DD
:1046F800374B1B685B063ED5364BDFED377AB3F98F
:1047080004300A2293FBF2F3344A12889B1A1BB234
:1047180008EE103AB8EEC88A28EE278AB0EE480AA2
:1047280014F0D0F9F0EE408AB0EE480A14F068F9B7
:1047380007EE906AB8EEE77ADDED007A60EE476A38
:10474800F8EEE77AE7EEA86A67EE807AFDEEE66AA9
:10475800E7EE287A16EE903AFDEEE77A2B8017EE10
:10476800903A6B8007E0018851854188918581885E
:10477800D1851386BCE71A4C23885E0738D50120FB
:1047880019F096F8E9E000BFEC4E002050890020AF
:10479800BD3786351C7D00204A500020605100201E
:1047A800244F0020085A00204C7B0020787B0020F2
:1047B800187D002000007A440000FA439851002038
:1047C8004A7E0020A09D02084C8200205E7B0020CB
:1047D800207D00208889002035FA8E3C3E4B002041
:1047E80086890020F04E0020548200206C4F002063
:1047F8009F4A1668F50707D4039A92F82920012AD8
:1048080004BF43F0010323809A4D2288D5F8008025
:1048180044F2FF03134018F0080F238001BF44F24D
:10482800FE031340944A43F4807308BF13800BF0CF
:1048380015FC28B1238823F0010343F40073238077
:104848008E4B1B88632B81BF238823F0010343F41D
:104858008063238016F4804305D0894B3340191CAC
:1048680018BF012100E01946864B5A789A46002A5B
:104878003FD0854B854A1B781BB98548C0790228EB
:1048880006D1137A33B188F0010808F0010803E073
:10489800984601E04FF001082388580706D47D4B5D
:1048A80033401BB1002908BF4FF0010892F94D278A
:1048B800764B002A14DDD3F8B0211292D3F8B42134
:1048C8001392D3F8B831149312A80FA9012219F042
:1048D8004BFA0FA815F0DAF9BAF80C30984202D85A
:1048E800B8F1000F05D0238823F0010343F40063D7
:1048F8002380694B1A68110708D52B68DB055FBF51
:10490800238823F0010343F480532380960708D5B6
:104918002B689D055FBF238823F0010343F40053F0
:10492800238010F063FB38B9238823F001036FEA72
:1049380043436FEA53432380238813F0010F574BF7
:1049480014BF002202221A700EF020FD544B1B687F
:10495800C01A002801DB1BF09FFD99F82030514E4A
:10496800002B65D0504B347893F800805CB90CF07C
:10497800B9F9234602460121301D9FED4C0A14F077
:10498800A9F80123337097ED000A464DB8EEC00A26
:10499800281D13F072F9464BBDEEC00A588810EE78
:1049A800103A90FBF3F0441CA4B23484B8F1000F21
:1049B8001FD0B5F8228000233A4D3E4A05F12C0756
:1049C80005F1240C32F813E037F813203CF81310E3
:1049D80027F813E0C2EB0E0911FB08F122B291FB94
:1049E800F2F24A442CF813200133042BE4D16884F2
:1049F80002E06B8C013B6B842A4A508C03B2002B7B
:104A08004FF0000313DDB2F920402B4931F8132091
:104A1800083112FB00F231F8131092FBF4F28A1AF3
:104A2800244921F813200133042BEED100E05384EC
:104A38001D4B104F93F800901E4DDFF83C80134C2F
:104A4800B9F1000F00F00282B8F80030DFF820A0BA
:104A5800DFF850B013F0040F30D1237A002B5DD06B
:104A680004F58070D4F81811072214F07BFF55E084
:104A7800045A0020085A00208689002084890020D2
:104A880000010800F4810020767B0020B07200202D
:104A98004C7B002000030800605100204A81002060
:104AA8004C810020482800208C4B0020F304353F1F
:104AB800584F00204C8200206C280020DAF8003083
:104AC800980219D59BF83430CBB1B44B1A6841F22F
:104AD800100313409BB9227A8AB13A68D4F81811A6
:104AE800009312F0010F04F5807014BF052207220D
:104AF80014F038FF009B00E001238BF834303B684A
:104B0800D9070BD5A64815F0C1F8C4F8A401A448E4
:104B180014F056FFC4F8A80114F00AFFA14BB8F826
:104B280000201B68DBF83810CBF83830520711D555
:104B38005B1A07EE903A9C4A9FED9C7AD4ED4C6A3A
:104B4800F8EEE77A67EE877A92ED007AA6EEA77A12
:104B580082ED007A237A63B13B68DB0709D59BF8BD
:104B68003C3033B90E2015F079FF914B012283F8C0
:104B78003C20A37B33B1DAF8003058025EBF8D4B7E
:104B88000122DA73DAF80030C3F38052C3F300630A
:104B9800A273237414F066FC07F06FFB2278864B2F
:104BA8001C2101FB0233B3F80AA01AF4006F5ED08F
:104BB8007A4B1B6859055AD43B6813F0100F7F4B8A
:104BC8001ED093F803B0B5F90200594613F086FEDB
:104BD80080B2002849D07A4B00B29B8A07EE10BAFF
:104BE8004042584307EE900AB8EEC70A9FED757A1F
:104BF800F8EEE77A37EE400A012087EE800A25E0D2
:104C0800714AB5F90600B2F900B0DA780092114697
:104C1800CBEB000013F062FE83B2009AD3B168496F
:104C28006A48898A1BB2002B01FB03F3CBBF41887A
:104C38000188CBEB010BC1EB0B0BC2EB0B0293FB17
:104C4800F2F300EE103AB8EEC00A022014F05CFD50
:104C580048460AE0574A107B38B102209FED5C0AAB
:104C6800009314F051FD009B1846207301E00023C7
:104C780023731AF4805F00F0AF80484B1B685A0515
:104C880000F1AA803B6813F0100F4C4B09D09978BB
:104C9800B5F9000013F022FE00B2031C18BF01236F
:104CA8005DE093F802B0B5F90200594613F016FE1C
:104CB800594683B2B5F90000009313F00FFE009B2C
:104CC8001FFA80FB13B9BBF1000F39D03C4A90782A
:104CD800012841D1528A94ED485AD4ED475A94EDAF
:104CE800056A1BB202FB03F14FF4FA7E91FBFEF159
:104CF80007EE901A0FFA8BF3B8EEE77A534393FB5B
:104D0800FEF307EE903AF8EEE77A65EEE76A67EEAB
:104D1800857AE7EE056AE7EE257A94ED067AC6EE1F
:104D2800866AC7EE877A94ED406A94ED417A76EE0A
:104D3800266A77EE277AC4ED4D6AC4ED4E7A0DE007
:104D4800E07A58B112A814F023F812A859460122A3
:104D580014F066FE5B4602E0012300E0034694ED92
:104D68004D0A059321F0C8F847F6FF7B194A94EDE0
:104D78004E0A00925845A8BF58469042B8BF104600
:104D8800F08721F0B9F8009A059B5845A8BF584606
:104D98009042B8BF1046A6F840001EE0207D0020D3
:104DA800347400207C5B00201C7A00206F12833A48
:104DB80048280020B0720020E89D02085482002094
:104DC800F48100200000FA433C0000204A7E0020C5
:104DD800000000005A80FFFF00231AF4005FE3720E
:104DE80089491CD0894B1B6813F4806317D13A6832
:104DF80012F010020DD1B5F904308548002B8078E7
:104E0800B8BF5B42834206DDD1F81831C1F84C3196
:104E180002E0994600E0914681F80D9001E00023F8
:104E28004B7322787B4B1C2101FB023341F2B80003
:104E3800B3F80C906FEA0903184019F08DFF484643
:104E480019F09AFF744B2278A3F84420734BDFF8CB
:104E5800E49100221A70704B93F846B09A46BBF161
:104E6800000F3ED16E4B9FED6F7AD3ED0C7A89F827
:104E7800B8B077EE877A00220023C9E90023C9E990
:104E88000C23C9E91023594600234FF4967209F1FF
:104E9800BC00C9F8A830C9F8AC30C9F86C30C9F8FA
:104EA8008830C9F89430C9F87030C9F88C30C9F81E
:104EB8009830C9F87430C9F89030C9F89C30C9EDF9
:104EC800287AC9ED297A89F878B020F0AAFD09F581
:104ED800F47059464FF4967220F0A3FD01238AF826
:104EE80046300EF053FACDE900011AF09FFF68B979
:104EF8000023C9F86030C9F86430C9F868304A4BF3
:104F080089F878001B68CAF84830B5E0474BD9EDF6
:104F18001B5AD3ED007A99ED1C7A99ED1D6A77EE4C
:104F2800E55AD3ED017A37EEC77AD3ED027A404BD2
:104F380037EEC66AD3ED077AD3ED066A93ED035AC6
:104F480067EE277AE6EEA57AD3ED086AE6EE867A6A
:104F5800D3ED046AC9ED1A7A67EE266AE5EE256A8A
:104F680093ED055AE5EE066A93ED015A27EE057AA8
:104F780093ED005AA5EE257AD3ED025AB8F8003021
:104F8800A5EE867A5B07F1EE666A89ED187AC9EDB7
:104F9800196A2DD4274B93F878304BBB264B9FEDDD
:104FA800276AD3ED016A37EEE67AE7EE066AB5EED0
:104FB800C07AC3ED016A1A4B9B7806EE903AF1EE7F
:104FC80010FAF8EEE66A48BFB1EE477AB4EEE67A30
:104FD800154BF1EE10FA1B6808D5DAF848209B1A31
:104FE800FA2B05D9012389F8783001E0CAF848304E
:104FF80099F878300F4A1BB30F4B93ED017A77EE8F
:10500800C77AC2ED1A7A1FE0B0720020207D002016
:1050180054820020E89D0208482800208C4B00207C
:10502800D82D00206F12833A7C5B0020107B002073
:10503800447D0020808400203C0000200AD7233BC8
:105048000023136653669366D9ED187AFDEEE77A66
:1050580017EE903AD9ED197AAAF84C30FDEEE77AB6
:1050680017EE903AD9ED1A7AAAF84E30FDEEE77AA3
:1050780017EE903AAAF85030DDE9000108F0C8F8B8
:10508800CD4B9FEDCE8AB3F9043003EB83035B006D
:1050980007EE903AF8EEE78ADFEDC97AC4F81831DE
:1050A800C8EE888A68EEA78AB0EE680A13F0A8FCF2
:1050B80084ED470AB0EE680A13F004FDC14984ED97
:1050C800480AD1E91623DDE900ABBAEB020A6BEB1B
:1050D800030B5B464FF0000B52469B4544F61F6A94
:1050E8004FF0010008BF9245207180F0A980C1E906
:1050F8001823DDE90023C1E91623B34BB34A93ED26
:10510800287AD2ED0C7AB4EEE77AF1EE10FA53BFB2
:105118009FEDB61A93ED220AD3ED230A93ED220AE6
:1051280052BFD3ED230A93ED251AD3ED261A9A46DA
:1051380091465CBF0020F0EE411A14F087FE9AED0C
:10514800297AD9ED0C7AA04BB4EEE77AF1EE10FA91
:1051580047BF93ED240AD3ED270A93ED240ADFED28
:10516800A30A4CBF0120002014F030FE984B9AEDA2
:105178002A7A9AF8B020DAF8AC1083ED497AC3F8A5
:1051880028111AB101215972D97001E05A72DA70E6
:10519800B8F8001048071CD5F2B1D3ED496A8C4A1B
:1051A800F5EEC06AF1EE10FA16DDD2ED4B7AF5EEA7
:1051B800C07AF1EE10FA09DDF4EEE67AF1EE10FAB3
:1051C80058BFF0EE667AC3ED4B7A05E0C2ED4B6A44
:1051D80002E0804AC3F82C21FDEEC77ADFF8E8E147
:1051E80017EE903AA6F868309AF8B8300C2202FB0D
:1051F80003AA0EF1880207CA0AF1BC0C8CE8070062
:105208000EF1940207CA0AF5F47A8AE807006E4993
:105218006C4AD1ED287A0133DBB2182BFCEEE77A21
:1052280088BF00238EF8B83017EE903AD1ED297A6E
:10523800A2F86A30FCEEE77A17EE903AA2F86C30E2
:105248000EF0A4F85F4B824661480022A3F86E2056
:10525800C2798B4612B10121A3F86E10417A29B1A7
:10526800B3F86EE04EF0020EA3F86EE090F808E096
:10527800BEF1000F05D0B3F86EE04EF0040EA3F8AF
:105288006EE0DFF844E19EF808E0BEF1000F07D0B9
:10529800DFF830C1BCF86EE04EF0100EACF86EE0EE
:1052A800807A28B1B3F86E0040F02000A3F86E00B1
:1052B8003B6823F080003860B8F8000000F0040074
:1052C80080B218B9424B587400F095BD0020277879
:1052D8006071A0714048DFF8F8804FF01C0E0EFB9B
:1052E800070013F01003B0F80A90364F00F00C8452
:1052F80019F0100F00F0288197F88030374C002BF8
:1053080000F09B8097F89130002B00F00081D7E9DE
:105318002201BAEB00006BEB01011DF0C9FD304B17
:10532800DFED307A9A78B5F90030002B07EE100AD5
:10533800B8BF5B42934227EE277A07DC2A4BB3F9C2
:105348000230002BB8BF5B42934202DD012387F88D
:105358009030B4F84630214A07EE903AF8EEE77AF2
:10536800B4EEE77AF1EE10FAA4BF012387F8903083
:10537800B4F8423007EE903AF8EEE77AB4EEE77AFE
:10538800F1EE10FAC0F2C380B2F84430002B50D0CE
:1053980077EE677A07EE103AF5EEC07AF1EE10FA7A
:1053A800B8EE477A24D4F4EE477AF1EE10FAC8BF83
:1053B800F0EE477A1EE000BF888900200000C8424E
:1053C80035FA8E3C4828002080840020D82D002003
:1053D800B0720020000080BFE89D0208F481002020
:1053E800548200206F12833A4C8200200000000093
:1053F8005FED027AB4F84030E28F05EE903AB94B8F
:105408001B88934238BF134606EE903AF8EE655A69
:10541800B8EE666A35EEC66A66EE276A86EE877A61
:1054280077EE467A77EEA57AFDEEE77A17EE903AB0
:1054380001E0B2F84030EB806BE0AB4BDFEDAB6ADC
:1054480093ED027AAA4BB5EEC07AF1EE10FA4CBF92
:10545800F1EE477AF0EE477AF4EEE67AF1EE10FADA
:10546800C8BFD3ED017AD3ED006AA24BD8BFDFEDF8
:10547800A27A93ED086A638FC8BFC7EE877A07EEF2
:10548800103AB8EEC77AF4EEC76AF1EE10FA09DD01
:105498009FED9A7AB4EEC76AF1EE10FAACBF012319
:1054A800002300E00023228F07EE102AB8EEC77A07
:1054B800F4EEC77AF1EE10FA21DDF5EEC06AF1EEEE
:1054C80010FA1CDDD6E91C01D6E91E23121AA08F9A
:1054D80063EB010312EB0A024FF47A7143EB0B03FF
:1054E800484300218B4208BF8242C6E91E23C6E911
:1054F8001CAB0CD3824B012283F8802007E0002BE1
:10550800E0D100220023C7E91CABC7E91E2313F032
:1055180053FE97F8903013B9142015F09FFA94F8B9
:1055280048206FF009035343764A00EE103A126898
:105538000026B8EEC00AB2F956002E8019F0FEFC1B
:10554800AE80688000F034BC09F0080189B20029F7
:1055580043D06D4C6B4B1E68B4F90830B6F9540053
:1055680000EE103AB8EEC00A19F0E8FCB4F90A30B7
:10557800288000EE103AB6F95600B8EEC00A19F0C5
:10558800DDFC624B68801B689FED616ADB7906EE83
:10559800903AB4F90C30F8EEE66A07EE103AF2EEFB
:1055A800047A66EEA76AB8EEC77A37EE267A76EE00
:1055B800A66A27EE067AC7EE267A9FED567A77EE28
:1055C800C67A77EE877AF1EE677AFDEEE77A17EE1C
:1055D800903AAB802388EB80EAE319F0010300934B
:1055E8006AD0D7F898304C48C3EB0A038342C7E91E
:1055F80026AB04DDC7E928AB13F018FE5CE0002AEF
:1056080058D098F80230002B50D0D7F8A030434A31
:10561800C3EB0A039342C7E928AB42DC404AD8ED02
:10562800420A92F82C0098ED4F0A07EE903A6FF074
:1056380009034343B8EEE7AA07EE903A92F82B30F5
:1056480003EB83035B00F8EEE78A07EE903A2AEE55
:1056580009AAF8EEE79A08F1B000B0EE4A1AF0EE9F
:10566800681AB0EE692A06F087FD07F1A800022142
:10567800F0EE4A0A13F0D5FAB4EEE80AF1EE10FAA1
:1056880008D4B4EEE90AF1EE10FAD4BFF0EE408A7D
:10569800F0EE698AFDEEE87A17EE903AA8F86437DA
:1056A80001E013F0C3FD012388F80630012387F8D1
:1056B800B43001E087F8B42009F00204A4B2002C49
:1056C80000F0E580D7F8B830134A0D4EC3EB0A0353
:1056D8009342C7E92EAB25DDC6E930AB13F088FD50
:1056E800D5E000BF4A7E0020F87A0020F366DF3F4D
:1056F800107B0020447D002000000000F304353FAB
:1057080048280020787B00204C7B0020187D002052
:1057180000007A440000FA43400D03003F0D0300E7
:10572800F481002098F80830AF4F002B00F0AD80CE
:105738007B78002B00F0A480D6F8C030C3EB0A03B6
:1057480008EE903AA94B18EE902A9A42C6E930AB77
:1057580000F391801BF0D4FCA54814F031F9D7F878
:105768001881C8EB000013F0C8F880EAE073A3EBD7
:10577800E07344F26822934201DD012207E042F21D
:105788002732934205DC96F8C82012B1002286F829
:10579800C8209849984E91F8C820002A18BF184682
:1057A800D1E93423BAEB02026BEB030300279F42D3
:1057B80008BF964221D280EAE073D1ED367AA3EB96
:1057C800E07307EE103AF5EEC07AF1EE10FAB8EE93
:1057D800C77A48BFF1EE677AF4EEC77A07EE900A07
:1057E800F1EE10FAF8EEE77AC1E934ABCCBF012349
:1057F800002381F8DC30C1ED367A91F8DC30002BDB
:105808007E4B93F82A106FF0630208EB000300EE5A
:10581800103A02FB01F301EE903AF8EEE88A4FF0F5
:10582800640311FB03F302EE103A07EE908A68EE68
:10583800898AF8EEE70A14BF052101217048B0EE05
:10584800681AF8EEE11AB8EEC22AB8EEC00A06F0F5
:1058580093FC6C480A21F0EE680A13F0E2F9F2EEC4
:10586800047A80EE270A684AFDEEC07A17EE903A6D
:10587800A2F8623701E013F0BBFC5B4B01225A71BE
:105888005C4B012283F8EC2001E086F8EC3019F03B
:10589800030F00F08D82594F534AF88D7B8EB7F86D
:1058A80030C0C0EB0C0C181A524B93F8EC101FFACE
:1058B8008CFC80B219B124B1B2F8628702E0884644
:1058C80000E0A04693F8B410002901F03381009B52
:1058D800B3B1B2F864170A220BB293FBF2F397F84C
:1058E800342053431BB20FFA8CF6B34203DB06B2E3
:1058F8009E42A8BF1E46B6B2002C00F0AC8004E061
:10590800002C01F01A8100990E463A4ADFF80CE1A2
:10591800D2F8F030C3EB0A037345C2E93CAB06DDAD
:105928000023C2F80031C2E93EAB002383E0DFF870
:10593800B8E09EF80830002B72D09EF80130002B9A
:1059480071D0D2F8F830C3EB0A09284B9945C2E95F
:105958003EAB3FDCDEED4C7A9FED2C6A254B36EEF4
:10596800677AF7EE086A67EE266A07EE109A77EE0E
:10597800C67AB8EEC77AF5EEC07AF1EE10FA27EEDD
:10598800099A9FED237A48BFF1EE677AF4EEC77A59
:10599800F1EE10FAC8BFD3ED407A26EE899AC4BF5B
:1059A80037EE899A83ED409AD3ED407AF5EEC07AC6
:1059B800F1EE10FA09D49FED177AF4EE477AF1EE7A
:1059C80010FAC8BFF0EE477A01E0DFED137AC3EDB5
:1059D800407A02E00023C2F80031034B4FF0010E79
:1059E80083F805E01FE000BFB07200203F0D030000
:1059F80040820020482800201FA10700F4810020D1
:105A08008473002028290020B072002000002F4451
:105A1800000048420000FA4300000000400D030067
:105A28000023C2F80031D2ED407AFDEEE77ACDEDE1
:105A3800057ABDF8143033441BB20FFA8CF6B34222
:105A480003DB06B29E42A8BF1E4692F8B430B6B237
:105A5800FBB1009BEBB197F82C206FF0090353437F
:105A680009B2994297F82B2005DB02EB82035B0011
:105A78008B42A8BF0B46AD4A1BB200EE103A126823
:105A8800B8EEC00AB2F9560019F058FAA84B4042CD
:105A98005880A84BDFF8989293F8EC30EBB1E4B15A
:105AA80097F82A106FF009020FFA88F802FB01F341
:105AB800984505DB01EB81035B004345A8BF4346DE
:105AC8009A4A1BB200EE103A1268B8EEC00AB2F950
